:10000000F85F002011040000FD4F0000FD4F0000CC
:10001000FD4F0000FD4F0000FD4F0000FD4F0000B0
:10002000FD4F0000FD4F0000FD4F0000FD4F0000A0
:10003000FD4F0000FD4F0000FD4F0000FD4F000090
:10004000FD4F0000FD4F0000FD4F0000FD4F000080
:10040000FFFFFFFFFFFFFFFFFFFFFFFFFEFFFFFFFD
:1004100062B609F091FDFEE700B583B0002098496F
:10042000087000209749087000F006FBC148007969
:10043000412803DA01209449087002E00020924923
:10044000087000F0A1FC02F02BFA00208F49087020
:100450008F4800214056002833D101208B49087075
:1004600069218C4800688C4A801800F03DF9854865
:100470000078401DAF49C97888421ADA814800786F
:10048000401DAC490979884213DA7E480078401D46
:10049000A849497988420CDAA6480179C91C7D48E7
:1004A0000068A44A127928235A438018783000F053
:1004B0001BF97A487349097804225143405800F0E7
:1004C000FBFB77480078012800D0D4E07548019004
:1004D000F8200002009071486A49097804225143CB
:1004E0004358714A6421FA2003F0EDFD6D480190F4
:1004F000F820000200906948624909784018F0210C
:100500008900435C694A7821FA2003F0DCFD6548E4
:100510000190F8200002009060485A49097840187C
:10052000C3210901435C62A28C21FA2003F0CBFDB8
:100530005C480190F8200002009058485149097821
:100540000422514340189621C900435859A2A021C2
:10055000FA2003F0B8FD53480190F8200002009003
:100560004E48484909784018D2210901435C52A2FB
:10057000B421FA2003F0A7FD4A480190F8200002B8
:10058000009046483F49097804225143401887218A
:100590000901435849A2C821FA2003F094FD3C48C0
:1005A0000021405600280CD002281ED013D3042866
:1005B0002FD024D3062840D035D3082851D046D395
:1005C00059E038480090F8231B023DA2DC21FA20B4
:1005D00003F014FD4FE033480090F8231B0239A2CA
:1005E000DC21FA2003F00AFD45E02E480090F823B4
:1005F0001B0235A2DC21FA2003F000FD3BE0294874
:100600000090F8231B0231A2DC21FA2003F0F6FC53
:1006100031E024480090F8231B022DA2DC21FA20AF
:1006200003F0ECFC27E01F480090F8231B0229A2EE
:10063000DC21FA2003F0E2FC1DE01A480090F823C8
:100640001B0225A2DC21FA2003F0D8FC13E0154898
:100650000090F8231B0221A2DC21FA2003F0CEFC3B
:1006600009E010480090F8231B021DA2DC21FA20AB
:1006700003F0C4FCFFE700201A49087007BD000022
:10068000624C0020F4FEFF1F654C0020704C0020DF
:1006900034E4FF1FF84B002068100000E4F0FF1F57
:1006A00097ECFF1FFFFF0000C4A30000CCA30000D5
:1006B0004C0000004C5F560052000000525F560094
:1006C0004E0000004C700000527000004C690000A9
:1006D000526900004C6F0000526F00004C57000040
:1006E00052570000734C0020F1B58CB00F00A020D1
:1006F00003900A200A909B204000099000250024C6
:100700000020089000200790642004900020694693
:1007100008720026C3480078002805D1C148007837
:10072000401CC049087013E0BF4804217943405879
:10073000004901E02CE4FF1F49784018022103F032
:10074000CBFE0390B848C019F0218900405C0490AA
:1007500000200600282E14DA002008280FDA0C9951
:10076000895D07220300D21A11410B00DB07DB0F62
:10077000AE4A0821714309185354401CEDE7761C1A
:10078000E8E703980400A9480019C078012809D1B6
:10079000A64800198078012804D1A448001940789F
:1007A000012804D00998844201DA641CEBE7099817
:1007B000844209DA069401209B49C919D222120108
:1007C00088540120079007E00020079000209649F8
:1007D000C919D22212018854039805009348401980
:1007E000C01E007801280BD190484019801E007867
:1007F000012805D18D484019401E0078012804D0F9
:100800000A98A84201DA6D1EE8E70A98A84209DAB8
:10081000059501208449C919C32212018854012079
:10082000089007E00020089000207F49C919C322E2
:10083000120188540398854202D00398844213D150
:100840000020079000207849C919D222120188544B
:100850000020089000207449C919C322120188544D
:1008600001206946087202E0002069460872684665
:10087000007A012818D1D22F16DA03986A49042287
:100880007A438918C860049808306749C919684ACA
:1008900088543900C91C6748006828227A438018A8
:1008A0007830FFF721FF51E00898079901430029AC
:1008B0004CD0089801280DD0079801280AD1069835
:1008C0000499401A03900698049902225143401A51
:1008D00005903BE0089801280DD1079801280AD01F
:1008E00005980499401803900598049902225143F1
:1008F000401806902AE00898012827D10798012877
:1009000024D106980599401A03F040FE0022802366
:10091000DB0503F055FE03F0C9FE0490049864283B
:1009200002DA6420049004E004988D2801DB8C2016
:10093000049006980599401803F028FE00228023B1
:10094000DB0503F03DFE03F0B1FE0390039823287E
:1009500002DA2320039007E003988F2149008842A0
:1009600002DBFF201E300390039803F00FFE00907F
:100970000191380069380021484303F007FE002246
:10098000C94B03F0BCFE0022C84B03F019FE002245
:10099000C74B03F076FF009A019B03F072FF03F050
:1009A00085FE214904227A438850C2480078B84223
:1009B00002DA3800BF4908700598A0214900884232
:1009C00003DBFF204030059004E00598002801D5A6
:1009D000002005900598144904227A43891896222C
:1009E000D20088500698A0214900884203DBFF20EE
:1009F0004030069004E00698002801D500200690BB
:100A00000698094904227A438918872212018850DE
:100A100004980549C919F0229200885400200DB0AD
:100A2000F0BD0000664C0020E4F0FF1FA4EFFF1FA4
:100A3000C3030000F84B0020FFB5D2480478684695
:100A4000D049497841816846CE49897801810020A2
:100A50006946887300206946487300206946087318
:100A6000EF200600A4B22000082103F035FDBC49A8
:100A70000968F6B2282272438918085C01900720A1
:100A80000090A4B22000082103F026FD0098411A2E
:100A900001980841C00737D5A4B22000082103F00F
:100AA0001BFDAF490968F6B228227243891808185D
:100AB00028380078019007200090A4B22000082177
:100AC00003F00AFD0098411A01980841C0071BD5A0
:100AD000A4B22000082103F0FFFCA1490968F6B286
:100AE000282272438918081850380078019007208E
:100AF0000090A4B22000082103F0EEFC0098411AF7
:100B000001980841C00704D4F6B2022E01DB761E1C
:100B1000A8E7F6B2EF2E02D0012069468873994803
:100B2000C670EF20070068464089082103F0D4FC16
:100B30008B490968FFB228227A438918085C019022
:100B40000720009068464089082103F0C5FC009802
:100B5000411A01980841C00737D5684640890821E5
:100B600003F0BAFC7E490968FFB228227A4389184B
:100B700008182838007801900720009068464089BE
:100B8000082103F0A9FC0098411A01980841C00708
:100B90001BD568464089082103F09EFC704909680E
:100BA000FFB228227A43891808185038007801903B
:100BB0000720009068464089082103F08DFC0098CA
:100BC000411A01980841C00704D4FFB2022F01DB8B
:100BD0007F1EA8E7FFB2EF2F02D0012069460873FD
:100BE00068480771EF20050068460089082103F076
:100BF00073FC5B490968EDB228226A438918085CD6
:100C000001900720009068460089082103F064FCE9
:100C10000098411A01980841C00737D568460089F5
:100C2000082103F059FC4E490968EDB228226A43B5
:100C30008918081828380078019007200090684625
:100C40000089082103F048FC0098411A01980841E6
:100C5000C0071BD568460089082103F03DFC4049C8
:100C60000968EDB228226A438918081850380078BC
:100C700001900720009068460089082103F02CFCB1
:100C80000098411A01980841C00704D4EDB2022D22
:100C900001DB6D1EA8E7EDB2EF2D02D00120694601
:100CA000487338484571FFBD0000F03F000034C074
:100CB00000001040F4FEFF1F70B504005A48007891
:100CC000012801D1002021E058490E00200003F046
:100CD000B3FE310003F0CCFE03F0E6FE0500012078
:100CE00051490870524800214056012804D050480C
:100CF00000214056022804D1A020401B4D49086025
:100D000003E0A020001B4B490860002070BD38B5EF
:100D1000002500200400E4B2052C11DA2821104837
:100D20000068E4B20222624328235A438018424AF0
:100D3000801803F0FCFE062800DA6D1C641CEAE74C
:100D4000EDB2042D09DB0F48C078782803DB0D488D
:100D50004079782801DA012000E0002032BD00004F
:100D6000F84B002000B5354800683549884204D268
:100D7000344800683449884201D3012000E0002053
:100D800000BD00002CE4FF1F80B500F00AF800F061
:100D900065F800F063FB00F0DBFB01F055FB002081
:100DA00002BD10B50024224800214056002811D170
:100DB00000F0BEFD0400E4B2002C0BD0FFF7D2FF20
:100DC000012807D11A480470204800682021884370
:100DD0001E49086016480021405605280ED1FFF72D
:100DE000C1FF01281DD107201149087001201849B1
:100DF0000870184800881849088012E00C48002143
:100E0000405606280DD1FFF7ADFF012809D1082073
:100E10000749087001200E4908700E4800880E49E5
:100E20000880002010BD0000624C002018E4FF1F65
:100E300034E4FF1F8C000020681000008CFFFF1FAF
:100E4000B90B000090FFFF1F6109000080F00FF850
:100E500074E4FF1F78E4FF1F76E4FF1FFEB5002057
:100E600069460872C44800214056012806D0C2488D
:100E700000214056022801D001207BE102A800F0A9
:100E800095F905000020C04385422ED1BB4800786B
:100E9000401CBA490870B848C06AFFF70DFFB74850
:100EA00000780A2800DA64E1B3480021405601289E
:100EB0000AD10320B04908700120B1490870AE483A
:100EC000808FAD49488754E1AB4800214056022845
:100ED00000D04EE10420A84908700120A8490870FC
:100EE000A548808FA449488743E1A3480021405684
:100EF000012800D0B0E0A34840781E30A84235DA7F
:100F00009E480078401C9D4908706921C0480068CF
:100F10009D4A8018FFF7E8FB9C480078401D9949DE
:100F2000C97888421ADA99480078401D95490979AC
:100F3000884213DA95480078401D924949798842E1
:100F40000CDA90480179C91CB14800688D4A1279C1
:100F500028235A4380187830FFF7C6FB8C488B490A
:100F6000097804225143405804006FE0002083496F
:100F700008706846007A5F2832DA280003F006FB22
:100F800000900191834828186946097A69394843D5
:100F900003F0FCFA0022804B03F0B1FB06000F00C7
:100FA0006846007A7D490978401A03F0EFFA02009A
:100FB0000B003000390003F003FB02000B00009827
:100FC000019903F0C1FC00228023DB0503F0F8FA4D
:100FD0000022734B03F055FC03F068FB040031E082
:100FE000280003F0D3FA009001916A482818694656
:100FF000097A6939484303F0C9FA0022664B03F0C5
:101000007EFB06000F006846007A64490978401AA2
:1010100003F0BCFA02000B003000390003F0D0FAF4
:1010200002000B000098019903F08EFC002280233F
:10103000DB0503F0C5FA00225A4B03F022FC03F053
:1010400035FB0400232C01DA232004004A48C46243
:101050002000FFF731FE82E0474800214056022879
:101060007DD1484840781E38854235DA43480078BB
:10107000401C42490870692165480068424A80184E
:10108000FFF732FB41480078401D3E49C97888424D
:101090001ADA3E480078401D3A490979884213DA45
:1010A0003A480078401D3749497988420CDA35487A
:1010B0000179C91C56480068324A127928235A43DC
:1010C00080187830FFF710FB314830490978042246
:1010D0005143405804003DE0002028490870280092
:1010E00003F054FA009001916846007A6938684329
:1010F00003F04CFA0022284B03F001FB06000F001E
:101100006846007A25490978401A03F03FFA020040
:101110000B003000390003F053FA02000B00009876
:10112000019903F011FC00221F4B03F0AAFB0022DF
:101130008023DB0503F044FA0022C34B03F0A1FB3C
:1011400003F0B4FA04008F204000844202DBFF2049
:101150001E3004000848C4622000FFF7ADFDBB4804
:101160000078012805D11F226921200080B203F0F8
:1011700081F90020FEBD000034E4FF1F64E4FF1F7E
:101180006DE4FF1F2CE4FF1F68100000F4FEFF1F3A
:10119000E4F0FF1FC1FEFFFF0000F03F5FE4FF1F10
:1011A0000000494000003E4000F07340F1B5C0B07F
:1011B0000A2002909B20400001900024002500207E
:1011C000694648700020694608700026002700F034
:1011D0007FFD03909E4800214056022805D10398C8
:1011E000C9280DDB0020C0432CE19948002140565E
:1011F000012805D10398782802DA0020C04321E1B4
:1012000000200600F6B2142E00DBA1E0004801E049
:10121000F84B00200068F6B2032171438D4A127822
:101220008918282251434018059000200700FFB27A
:10123000282F19DA0021C9B2082913DA864BFFB228
:1012400008207843C9B2401884460598FFB2C05DB3
:101250000722521A10410200D207D20F60461A54D8
:10126000491CE8E77F1CE2E7794800214056022844
:1012700032D10398050078484019C078012809D177
:10128000754840198078012804D173484019407886
:10129000012804D00198854201DA6D1CEBE7019822
:1012A000854206DA280006A9F6B202227243885265
:1012B0004CE09F4840780A30854206DA019806A93A
:1012C000F6B202227243885240E0019806A9F6B2B3
:1012D00002227243885239E05D48002140560128BD
:1012E00034D1039804005C480019C01E007801281E
:1012F0000BD159480019801E0078012805D15648A5
:101300000019401E0078012804D00298A04201DA9A
:10131000641EE8E70298A04206DA200010A9F6B29F
:1013200002227243885211E0814840780A38A04274
:1013300006DA029810A9F6B202227243885205E03A
:10134000029810A9F6B2022272438852761C59E71D
:101350003F4800214056022830D100200600F6B256
:10136000132E63DA06A8F6B20221714340184088B2
:1013700006A9F6B202227243895A401A1AA9F6B295
:101380000422724388501AA8F6B2042171434058CF
:101390001F2811DB01206946087006A8F6B2022159
:1013A0007143405A0490F6B20320704329490978EA
:1013B00040184099087039E0761CD0E72448002195
:1013C0004056012832D100200600F6B2132E2DDA45
:1013D00010A8F6B2022171434018408810A9F6B255
:1013E00002227243895A401A2DA9F6B2042272438E
:1013F00088502DA8F6B20421714340581D21C943DD
:10140000884211DA01206946487010A8F6B202211C
:101410007143405A0490F6B2032070430D49097895
:1014200040184099087001E0761CCEE768460078C5
:10143000002806D168464078002802D10020C04329
:1014400000E0049841B0F0BD000024C097ECFF1FFD
:1014500034E4FF1F5EE4FF1FA4EFFF1F80B5354893
:1014600000214056032806D0324800214056042867
:1014700001D001205BE030480178304800682E4AF6
:10148000127828235A438018FFF72EF92C48007849
:10149000401D2749C97888421ADA29480078401D3A
:1014A00023490979884213DA25480078401D2049EC
:1014B000497988420CDA1E480179C91C1F48006826
:1014C0001B4A127928235A4380187830FFF70CF909
:1014D0001C481B490978042251434058FFF7ECFB94
:1014E00019480078012821D100F00AFE012805D111
:1014F00016480078401C1549087002E00020134986
:10150000087012480078022810DB0A480021405673
:10151000032803D105200749087007E0054800218A
:101520004056042802D1062002490870002002BD5E
:101530002CE4FF1F34E4FF1F6CE4FF1FF84B002076
:10154000F4FEFF1FE4F0FF1F72E4FF1F73E4FF1FB0
:10155000F0B585B0D54800214056062806D0D348BE
:1015600000214056052801D00120C3E102A903A8AB
:1015700000F01EFC0500CD4800214056062800D092
:10158000DBE0280003F002F800900191029869382E
:10159000684302F0FBFF0022D74B03F0B0F80600CF
:1015A0000F0002980399401A02F0F0FF02000B00AE
:1015B0003000390003F004F802000B000098019994
:1015C00003F0C2F90022CD4B03F05BF90022802327
:1015D000DB0502F0F5FF03F069F80400C848407825
:1015E0001E30A0423EDA8F204000844202DBFF2002
:1015F0001E3004002000FFF75FFBC24800780A2875
:1016000002DB0020BF490870A848406BBE49BD4AB4
:10161000127802235A43895A401AA4494863200089
:10162000B949B84A127802235A4388529F48406BFE
:10163000B549B44A127802235A43895A40189B4943
:101640004863B0480078401CAE490870AF48007845
:10165000012800D04DE1AE4A6921200080B202F09D
:1016600009FF46E1A6480079A549C9780A398842A8
:1016700006DBA3484079A24909790A39884241DA50
:101680006921A4480068A44A8018FFF72DF8A348F0
:101690000078401D9A49C97888421ADA9F48007834
:1016A000401D97490979884213DA9C480078401D0B
:1016B0009349497988420CDA91480179C91C9548C7
:1016C00000688F4A127928235A4380187830FFF730
:1016D0000BF8934891490978042251434058AB28AC
:1016E00008DB8F488D490978042251434058FFF7A1
:1016F000E3FAFEE06D48406B0A2102F0EDFEFFF7D1
:10170000DBFAF6E06948406B0A2102F0E5FEFFF7DC
:10171000D3FA7E480078012800D0EAE0814A6921A6
:101720000E0017006148406B0A2102F0D5FE3A0016
:10173000310080B202F09EFEDBE05C4800214056A2
:10174000052800D0D5E0280002F020FF009001918C
:101750007548281802996939484302F017FF00229A
:10176000654B02F0CCFF06000F0002980399401A67
:1017700002F00CFF02000B003000390002F020FFE5
:1017800002000B000098019903F0DEF8002280238C
:10179000DB0502F015FF02F089FF0400584840788D
:1017A0001E3884423ADA232C01DA23200400200078
:1017B000FFF782FA534800780A2802DB00205149DB
:1017C00008703A48406B50494E4A127802235A43F7
:1017D000895A401A3549486320004B49494A1278D2
:1017E00002235A4388523148406B4749454A127890
:1017F00002235A43895A40182C49486341480078CB
:10180000401C4049087041480078012871D1404A85
:101810006921200080B202F02DFE6AE0384800798C
:10182000374949790A39884206DB3548C078344956
:1018300009790A39884243DA692136480068364A0C
:101840008018FEF751FF35480078401D2C49C978B3
:1018500088421ADA31480078401D294909798842BE
:1018600013DA2E480078401D2549497988420CDA60
:1018700023480179C91C27480068214A1279282386
:101880005A4380187830FEF72FFF254823490978FE
:1018900004225143405896280ADA21481F49097802
:1018A000042251434058FFF707FA22E034E4FF1FB7
:1018B0001E48406B0A2102F00FFEFFF7FDF918E009
:1018C0001A48406B0A2102F007FEFFF7F5F90F48AE
:1018D000007801280DD1134A69210E001700134822
:1018E000406B0A2102F0F8FD3A00310080B202F0AC
:1018F000C1FD002005B0F0BD0000F03F00F07340D6
:101900002CE4FF1F674C0020F8FEFF1F97ECFF1F21
:10191000FF7F0000F84B002068100000F4FEFF1F5E
:10192000E4F0FF1F1FF80000C1FEFFFF34E4FF1FBB
:10193000F0B5A8B00A2004909B204000039000213D
:101940000022002002900020019000206B46D870F9
:1019500000206B46987000206B46587000206B4644
:1019600018700023002400200300DBB20A2B00DBE8
:101970009FE03D480068DBB203255D433B4E36786F
:10198000AD19282675434019059000200400E4B2E3
:10199000282C19DA0025EDB2082D13DAC94FE4B26C
:1019A00008206043EDB2401984460598E4B2005D1A
:1019B0000726761B30410600F607F60F60463E54B8
:1019C0006D1CE8E7641CE2E7BF4840780200BD48B0
:1019D0008018C078012809D1BA4880188078012879
:1019E00004D1B84880184078012804D00398824276
:1019F00001DA521CEBE70398824207DA1000B34D7C
:101A0000DBB202265E43AD19E88213E0AE484078AF
:101A10000A30824207DA0398AC4DDBB202265E43FD
:101A2000AD19E88206E00398A84DDBB202265E43BA
:101A3000AD19E882A44840780100A2484018C01EB1
:101A4000007801280BD19F484018801E007801289B
:101A500005D19C484018401E0078012808D0049801
:101A6000884205DA491EE8E7F84B00205EE4FF1FD4
:101A70000498884207DA0800944DDBB202265E43E0
:101A8000AD19688013E0904840780A38884207DA38
:101A900004988E4DDBB202265E43AD19688006E0E5
:101AA00004988A4DDBB202265E43AD1968805B1C48
:101AB0005BE700200300DBB2092B25DA8348DBB2A9
:101AC00002255D4340198088804DDBB202265E43CB
:101AD000AD196D88401B1FADDBB204265E43A851D3
:101AE0007A48DBB202255D434019008B774DDBB2AB
:101AF00002265E43AD19ED8A401B16ADDBB204260B
:101B00005E43A8515B1CD6E700200300DBB2082B24
:101B100000DBB3E01FA8DBB204255D434019406839
:101B20001FADDBB204265E43AD59401B0EADDBB2E8
:101B300004265E43A85116A8DBB204255D43401974
:101B4000406816ADDBB204265E43AD59401B06ADBE
:101B5000DBB204265E43A8510EA8DBB204255D4328
:101B60004059012805DB0EA8DBB204255D4340592E
:101B700005E00EA8DBB204255D4345596842032801
:101B800017DA1FA8DBB204255D434059012805DBA5
:101B90001FA8DBB204255D43405905E01FA8DBB256
:101BA00004255D4345596842012802DB0298401C28
:101BB000029006A8DBB204255D434059012805DBED
:101BC00006A8DBB204255D43405905E006A8DBB258
:101BD00004255D4345596842032817DA16A8DBB28D
:101BE00004255D434059012805DB16A8DBB2042516
:101BF0005D43405905E016A8DBB204255D43455915
:101C00006842012802DB0198401C01900EA8DBB25B
:101C100004255D4340591D25ED43A84212DA2B48A7
:101C2000DBB202255D434019408847280ADBDBB25E
:101C3000D81E029DA84205DA0298012802DB012085
:101C40006D46687006A8DBB204255D4340591F2825
:101C500012DB1E48DBB202255D434019C08AF92819
:101C60000ADADBB2D81E019DA84205DA01980128E4
:101C700002DB01206D4628705B1C47E702980628AE
:101C800002DB01206D46E8700198062802DB012086
:101C90006D46A8706846C078002805D06846007870
:101CA000012801D102200AE068468078002805D08A
:101CB00068464078012801D1012000E0002028B0CA
:101CC000F0BD00BFA4EFFF1F2CE4FF1F34E4FF1F93
:101CD000F0B585B000200500EDB2142D5DDAB4201A
:101CE0000400EDB20A2068434130082102F0F4FB01
:101CF0002E490968E4B22822624389180E5C07273E
:101D0000EDB20A2068434130082102F0E5FB781A61
:101D10000641F00737D5EDB20A206843413008216B
:101D200002F0DAFB21490968E4B2282262438918EB
:101D30000818283806780727EDB20A206843413092
:101D4000082102F0C9FB781A0641F0071BD5EDB255
:101D50000A2068434130082102F0BEFB134909689C
:101D6000E4B22822624389180818503806780727F9
:101D7000EDB20A2068434130082102F0ADFB781A29
:101D80000641F00704D4E4B20A2C01DB641EA8E784
:101D90006846EDB244556D1C9EE71421684602F07A
:101DA000A1FE0A214843413005B0F0BDF84B0020A8
:101DB000F3B5B8B00025A0200190CF4800214056CF
:101DC000062800D0B8E000200600F6B2192E5DDA31
:101DD000EF200400F6B204207043082102F07CFBDF
:101DE000C6490968E4B2282262438918085C009059
:101DF0000727F6B204207043082102F06DFB791A20
:101E000000980841C00737D5F6B204207043082176
:101E100002F062FBB9490968E4B2282262438918DA
:101E200008182838007800900727F6B2042070437D
:101E3000082102F051FB791A00980841C0071BD510
:101E4000F6B204207043082102F046FBAB49096852
:101E5000E4B22822624389180818503800780090AC
:101E60000727F6B204207043082102F035FB791AE7
:101E700000980841C00704D4E4B20A2C01DB641EB8
:101E8000A8E702A8F6B28455761C9EE7002006005B
:101E9000F6B2182E0EDA02A8F6B28019407802A91E
:101EA000F6B2895D401A20A9F6B204227243885026
:101EB000761CEDE700200600F6B2172E37DA20A8D0
:101EC000F6B2042171434018406820A9F6B20422FA
:101ED00072438958401A09A9F6B204227243885005
:101EE00009A8F6B2042171434058012805DB09A86E
:101EF000F6B204217143405805E009A8F6B2042166
:101F0000714341584842032800DA6D1C09A8F6B213
:101F10000421714340580E21C943884205DAF6B2C4
:101F2000B01EA84201DA022D01DA761CC4E7F6B22F
:101F3000042070430190D2E06F48002140560528EC
:101F400000D0CCE000200600F6B2192E6FDAEF20A8
:101F50000400FF204030F6B204217143401A0821EA
:101F600002F0BAFA65490968E4B228226243891886
:101F7000085C00900727FF204030F6B2042171432F
:101F8000401A082102F0A8FA791A00980841C007FF
:101F900043D5FF204030F6B204217143401A082196
:101FA00002F09AFA55490968E4B228226243891876
:101FB00008182838007800900727FF204030F6B234
:101FC00004217143401A082102F086FA791A009818
:101FD0000841C00721D5FF204030F6B204217143EB
:101FE000401A082102F078FA44490968E4B228222C
:101FF0006243891808185038007800900727FF209E
:102000004030F6B204217143401A082102F064FA0C
:10201000791A00980841C00704D4E4B20A2C01DB05
:10202000641E96E702A8F6B28455761C8CE7002061
:102030000600F6B2182E0EDA02A8F6B28019407821
:1020400002A9F6B2895D401A20A9F6B204227243B1
:102050008850761CEDE700200600F6B2172E37DA1E
:1020600020A8F6B2042171434018406820A9F6B2B6
:10207000042272438958401A09A9F6B20422724315
:10208000885009A8F6B2042171434058012805DBA5
:1020900009A8F6B204217143405805E009A8F6B238
:1020A0000421714341584842032800DA6D1C09A8F5
:1020B000F6B20421714340580E21C943884205DA23
:1020C000F6B2B01EA84201DA022D01DA761CC4E78E
:1020D000FF204030F6B204217143401A0190684657
:1020E000007A3899086002A8F6B2805D39990860D4
:1020F00001983AB0F0BD000034E4FF1FF84B002017
:10210000F0B5C3B00025002069460871CC48002115
:102110004056042800D0BEE000200600F6B21E2E75
:1021200063DAEF200400F6B2042070431E30082169
:1021300002F0D2F9C3490968E4B22822624389183F
:10214000085C00900727F6B2042070431E30082177
:1021500002F0C2F9791A00980841C0073BD5F6B2DF
:10216000042070431E30082102F0B6F9B549096811
:10217000E4B22822624389180818283800780090B1
:102180000727F6B2042070431E30082102F0A4F99C
:10219000791A00980841C0071DD5F6B20420704393
:1021A0001E30082102F098F9A6490968E4B22822F5
:1021B0006243891808185038007800900727F6B253
:1021C000042070431E30082102F086F9791A009825
:1021D0000841C00704D4E4B20A2C01DB641EA2E764
:1021E00002A8F6B28455761C98E700200600F6B2E5
:1021F0001D2E0EDA02A8F6B28019407802A9F6B2B6
:10220000895D401A26A9F6B2042272438850761CD2
:10221000EDE700200600F6B21C2E00DB0BE126A83D
:10222000F6B2042171434018406826A9F6B2042290
:1022300072438958401A0AA9F6B2042272438850A0
:102240000AA8F6B2042171434058012805DB0AA808
:10225000F6B204217143405805E00AA8F6B2042101
:10226000714341584842032800DA6D1C0AA8F6B2AF
:102270000421714340580E21C943884209DAF6B25D
:10228000B01EA84205DA022D03DB01206946087161
:10229000D1E0761CBFE76A4800214056032800D0F1
:1022A000C9E000200600F6B21E2E6FDAEF2004000F
:1022B000FF202230F6B204217143401A082102F0B7
:1022C0000BF960490968E4B2282262438918085C66
:1022D00000900727FF202230F6B204217143401AF4
:1022E000082102F0F9F8791A00980841C00743D58F
:1022F000FF202230F6B204217143401A082102F077
:10230000EBF850490968E4B228226243891808189A
:102310002838007800900727FF202230F6B20421E9
:102320007143401A082102F0D7F8791A0098084141
:10233000C00721D5FF202230F6B204217143401A94
:10234000082102F0C9F83F490968E4B22822624333
:10235000891808185038007800900727FF2022308D
:10236000F6B204217143401A082102F0B5F8791A37
:1023700000980841C00704D4E4B20A2C01DB641EB3
:1023800096E702A8F6B28455761C8CE7002006007A
:10239000F6B21D2E0EDA02A8F6B28019407802A914
:1023A000F6B2895D401A26A9F6B20422724388501B
:1023B000761CEDE700200600F6B21C2E3BDA26A8BC
:1023C000F6B2042171434018406826A9F6B20422EF
:1023D00072438958401A0AA9F6B2042272438850FF
:1023E0000AA8F6B2042171434058012805DB0AA867
:1023F000F6B204217143405805E00AA8F6B2042160
:10240000714341584842032800DA6D1C0AA8F6B20D
:102410000421714340580E21C943884209DAF6B2BB
:10242000B01EA84205DA022D03DB012069460871BF
:1024300001E0761CC0E76846007943B0F0BD0000BB
:1024400034E4FF1FF84B002010B582B096480021FD
:102450004056072806D0944800214056082801D04D
:1024600001204DE0684600F053F804000020C0430E
:10247000844231D169218D480068224A8018FEF7D4
:1024800033F921480078401D8949C97888421ADA11
:102490001D480078401D86490979884213DA1A4898
:1024A0000078401D8249497988420CDA80480179D8
:1024B000C91C7E4800687E4A127928235A43801836
:1024C0007830FEF711F911480F4909780422514379
:1024D0004058FEF7F1FB12E0684601787348006847
:1024E0006A46127828235A438018FEF7FDF80748F9
:1024F00005490978042251434058FEF7DDFB0020CE
:1025000016BD000068100000F4FEFF1FE4F0FF1F7E
:10251000F1B5E6B00A2004909B204000039000240F
:10252000002500200290002001900020694648709C
:1025300000206946087000260027FFF7C9FB0590B8
:10254000594800214056022805D10598C9280DDBBD
:102550000020C0439EE1544800214056012805D187
:102560000598782802DA0020C04393E10020060095
:10257000F6B2142E00DBA5E04C480068F6B2032149
:102580007143C54A12788918282251434018079090
:1025900000200700FFB2282F19DA0021C9B208294C
:1025A00013DABE4BFFB208207843C9B24018844604
:1025B0000798FFB2C05D0722521A10410200D207ED
:1025C000D20F60461A54491CE8E77F1CE2E7364800
:1025D00000214056082832D105980500AF4840191F
:1025E000C078012809D1AD4840198078012804D16C
:1025F000AA4840194078012804D00398854201DA9E
:102600006D1CEBE70398854206DA280008A9F6B2AC
:1026100002227243885253E0254840780A308542AE
:1026200006DA039808A9F6B202227243885247E0FC
:10263000039808A9F6B202227243885240E01A4871
:102640000021405607283BD11948407804009348A0
:102650000019C01E007801280BD190480019801E77
:102660000078012805D18D480019401E0078012806
:1026700004D00498A04201DA641EE8E70498A0425E
:1026800006DA200012A9F6B202227243885217E03D
:10269000074840780A38A0420CDA049812A9F6B22A
:1026A0000222724388520BE034E4FF1FF84B0020F3
:1026B0002CE4FF1F049812A9F6B20222724388523A
:1026C000761C55E700200600F6B2132E2EDA8B4852
:1026D00000214056082811D108A8F6B20221714302
:1026E0004018408808A9F6B202227243895A401A5B
:1026F00040A9F6B204227243885015E07F480021B9
:102700004056072810D112A8F6B202217143401892
:10271000408812A9F6B202227243895A401A53A97C
:10272000F6B2042272438850761CCDE700200600E2
:10273000F6B2122E00DBA1E07048002140560828B6
:102740004BD140A8F6B2042171434018406840A91B
:10275000F6B2042272438958401A1CA9F6B2042228
:10276000724388501CA8F6B20421714340580128D6
:1027700005DB1CA8F6B204217143405805E01CA8F3
:10278000F6B20421714341584842032802DA019805
:10279000401C01901CA8F6B20421714340581D2131
:1027A000C943884268DAF6B2F01E0199884263DABA
:1027B0000198022860DB01206946087008A8F6B27B
:1027C00002217143405A0690F6B203207043324909
:1027D000097840186699087050E048480021405632
:1027E000072849D153A8F6B2042171434018406824
:1027F00053A9F6B2042272438958401A2EA9F6B2A0
:102800000422724388502EA8F6B204217143405826
:10281000012805DB2EA8F6B204217143405805E0DB
:102820002EA8F6B20421714341584842032802DA27
:102830000298401C02902EA8F6B204217143405821
:102840001F2819DBF6B2F01E0299884214DA0298AA
:10285000022811DB01206946487012A8F6B2022155
:102860007143405A0690F6B2032070430A49097832
:1028700040186699087001E0761C59E768460078B0
:10288000002806D168464078002802D10020C043C5
:1028900000E0069867B0F0BD5EE4FF1FA4EFFF1FE5
:1028A00080B5164800214056002801D0012009E0DB
:1028B00000201349087000F006F800F023F801F03A
:1028C0000FF8002002BD10B500240D48002140562D
:1028D000032809D00A4800214056042804D008489B
:1028E00000214056052801D1012005E000F052FEEC
:1028F00000F0F8F90400002010BD000034E4FF1FD0
:102900007CE4FF1FF0B585B0D54800214056032870
:1029100006D0D34800214056042801D00120C3E14D
:1029200002A903A800F08CFC0500CD480021405608
:10293000032800D0DBE0280001F028FE0090019180
:1029400002986938684301F021FE0022D74B01F05C
:10295000D6FE06000F0002980399401A01F016FEF9
:1029600002000B003000390001F02AFE02000B00CB
:102970000098019901F0E8FF0022CD4B01F081FFA2
:1029800000228023DB0501F01BFE01F08FFE040016
:10299000C84840781E30A0423EDA8F204000844272
:1029A00002DBFF201E3004002000FEF785F9C2483C
:1029B00000780A2802DB0020BF490870A848406858
:1029C000BE49BD4A127802235A43895A401AA44983
:1029D00048602000B949B84A127802235A43885205
:1029E0009F484068B549B44A127802235A43895A2D
:1029F00040189B494860B0480078401CAE490870B8
:102A0000AF480078012800D04DE1AE4A692120008E
:102A100080B201F02FFD46E1A6480079A549C978AA
:102A20000A39884206DBA3484079A24909790A3964
:102A3000884241DA6921A4480068A44A8018FDF759
:102A400053FEA3480078401D9A49C97888421ADA93
:102A50009F480078401D97490979884213DA9C48BD
:102A60000078401D9349497988420CDA91480179F0
:102A7000C91C954800688F4A127928235A43801848
:102A80007830FDF731FE934891490978042251438B
:102A90004058AB2808DB8F488D4909780422514300
:102AA0004058FEF709F9FEE06D4840680A2101F040
:102AB00013FDFEF701F9F6E0694840680A2101F0CC
:102AC0000BFDFEF7F9F87E480078012800D0EAE017
:102AD000814A69210E001700614840680A2101F00F
:102AE000FBFC3A00310080B201F0C4FCDBE05C4842
:102AF00000214056042800D0D5E0280001F046FD12
:102B0000009001917548281802996939484301F0ED
:102B10003DFD0022654B01F0F2FD06000F0002981A
:102B20000399401A01F032FD02000B003000390019
:102B300001F046FD02000B000098019901F004FF2E
:102B400000228023DB0501F03BFD01F0AFFD040016
:102B5000584840781E3884423ADA232C01DA232080
:102B600004002000FEF7A8F8534800780A2802DB8A
:102B70000020514908703A48406850494E4A12783E
:102B800002235A43895A401A3549486020004B496C
:102B9000494A127802235A438852314840684749CB
:102BA000454A127802235A43895A40182C494860F2
:102BB00041480078401C404908704148007801288D
:102BC00071D1404A6921200080B201F053FC6AE0D3
:102BD00038480079374949790A39884206DB35484F
:102BE000C078344909790A39884243DA692136487C
:102BF0000068364A8018FDF777FD35480078401D9B
:102C00002C49C97888421ADA31480078401D294990
:102C10000979884213DA2E480078401D2549497900
:102C200088420CDA23480179C91C27480068214AE8
:102C3000127928235A4380187830FDF755FD25482E
:102C40002349097804225143405896280ADA21483A
:102C50001F490978042251434058FEF72DF822E01D
:102C60007CE4FF1F1E4840680A2101F035FCFEF796
:102C700023F818E01A4840680A2101F02DFCFEF7FD
:102C80001BF80F48007801280DD1134A69210E0066
:102C90001700134840680A2101F01EFC3A00310079
:102CA00080B201F0E7FB002005B0F0BD0000F03F6E
:102CB00000F073402CE4FF1F684C00200CFFFF1F46
:102CC00097ECFF1FFF7F0000F84B0020681000000A
:102CD000F4FEFF1FE4F0FF1F1FF80000C1FEFFFF1E
:102CE0007CE4FF1FF0B5B14CA5440A2009909B205D
:102CF0004000089000240025002007900020069046
:102D000000206946C8710020694688710020694624
:102D1000C87000206946887000206946487000200D
:102D20006946087000200590002004900020039060
:102D30000020029000206946487100206946087111
:102D400000200B9000200A9000260027002006009B
:102D5000F6B23C2E00DB87E0954800689549097A79
:102D6000F6B202227243891A2822514340180C906D
:102D700000200700FFB2282F19DA0021C9B2082964
:102D800013DA8D4BFFB208207843C9B2401884464D
:102D90000C98FFB2C05D0722521A10410200D20700
:102DA000D20F60461A54491CE8E77F1CE2E78148CD
:102DB00000214056022825D1232005007E484019D5
:102DC000C078012809D17C4840198078012804D1B5
:102DD000794840194078012804D00898854201DAE2
:102DE0006D1CEBE70898854205DAF7A8F6B20421D6
:102DF0007143455036E00898F7A9F6B204227243B1
:102E000088502FE06B480021405601282AD1FF202E
:102E10001E30040068480019C01E007801280BD13C
:102E200065480019801E0078012805D16248001904
:102E3000401E0078012804D00998A04201DA641EDF
:102E4000E8E70998A04206DAFFA8D030F6B20421DC
:102E50007143445006E00998FFA9D031F6B204222C
:102E600072438850761C73E752480021405602286E
:102E700071D100200600F6B23B2E20DAF7A8F6B298
:102E80000421714340184068F7A9F6B20422724346
:102E90008958401A81A9F6B204227243885081A849
:102EA000F6B20421714340586321C943884204DAD1
:102EB000012069460871F6B20A96761CDBE700200D
:102EC0000600F6B23B2E00DBC3E06846807800289F
:102ED0000AD181A8F6B2042171434058012803DACF
:102EE0000498401C049034E068468078002822D181
:102EF000F6B2322E1FDA81A8F6B20421714340588F
:102F0000012818DB81A8F6B20421714340184068FB
:102F1000012810DB81A8F6B20421714340188068B3
:102F2000012808DB0120694688700298401C029045
:102F3000684606700DE068468078012809D181A8AE
:102F4000F6B2042171434058012802DB0298401C6C
:102F50000290761CB5E7174800214056012878D129
:102F600000200600F6B23B2E28DAFFA8D030F6B2D9
:102F70000421714340184068FFA9D031F6B2042201
:102F800072438958401ABCA9F6B204227243885091
:102F9000BCA8F6B2042171434058652804DB012027
:102FA00069464871F6B20B96761CDBE744FAFFFFE0
:102FB000F84B00207CE4FF1FA4EFFF1F0020060059
:102FC000F6B23B2E45DA6846C07800280AD1BCA884
:102FD000F6B2042171434058002803D40598401CE0
:102FE000059034E06846C078002822D1F6B2322E2F
:102FF0001FDABCA8F6B2042171434058002818D546
:10300000BCA8F6B20421714340184068002810D5CE
:10301000BCA8F6B20421714340188068002808D586
:1030200001206946C8700398401C039068464670AA
:103030000DE06846C078012809D1BCA8F6B2042189
:1030400071434058002802D50398401C0390761C19
:10305000B6E77A480021405602283FD100200600FA
:1030600068460078F6B286422AD281A8F6B20421D8
:1030700071434018406881A9F6B20422724389580E
:10308000401A0DA9F6B20422724388500DA8F6B278
:10309000042171434058012805DB0DA8F6B2042134
:1030A0007143405805E00DA8F6B204217143415820
:1030B0004842032802DA0698401C0690761CCFE7A7
:1030C0006846007802214843032101F005FA069979
:1030D000884247DA01206946887143E05748002159
:1030E000405601283ED10020060068464078F6B2DE
:1030F00086422AD2BCA8F6B2042171434018406827
:10310000BCA9F6B2042272438958401A47A9F6B204
:1031100004227243885047A8F6B2042171434058F4
:10312000012805DB47A8F6B204217143405805E0A9
:1031300047A8F6B20421714341584842032802DAF5
:103140000798401C0790761CCFE76846407802211C
:103150004843032101F0C0F90799884202DA0120AF
:103160006946C87135480021405602282ED168466C
:10317000807900285ED06846807800285AD068465A
:103180000078062856DB6846007802214843032170
:1031900001F0A2F9049988424CDA684600782D289B
:1031A00048DA68460079002844D00A9869460978C8
:1031B000401A02214843032101F08EF90299884206
:1031C00038DA04201D490870012034E01B48002132
:1031D000405601282ED16846C07900282AD068467A
:1031E000C078002826D068464078062822DB68464A
:1031F000407802214843032101F06EF90599884285
:1032000018DA684640782D2814DA68464079002894
:1032100010D00B9869464978401A0221484303218F
:1032200001F05AF90399884204DA0320034908702F
:10323000012000E00020D4498D44F0BD7CE4FF1F54
:10324000F3B5B8B00025A0200190D0480021405629
:10325000032800D0B8E000200600F6B2192E5DDA8F
:10326000EF200400F6B204207043082101F034F985
:10327000C7490968E4B2282262438918085C0090B3
:103280000727F6B204207043082101F025F9791AC6
:1032900000980841C00737D5F6B2042070430821D2
:1032A00001F01AF9BA490968E4B228226243891880
:1032B00008182838007800900727F6B204207043D9
:1032C000082101F009F9791A00980841C0071BD5B7
:1032D000F6B204207043082101F0FEF8AC490968F9
:1032E000E4B2282262438918081850380078009008
:1032F0000727F6B204207043082101F0EDF8791A8F
:1033000000980841C00704D4E4B20A2C01DB641E13
:10331000A8E702A8F6B28455761C9EE700200600B6
:10332000F6B2182E0EDA02A8F6B28019407802A979
:10333000F6B2895D401A20A9F6B204227243885081
:10334000761CEDE700200600F6B2172E37DA20A82B
:10335000F6B2042171434018406820A9F6B2042255
:1033600072438958401A09A9F6B204227243885060
:1033700009A8F6B2042171434058012805DB09A8C9
:10338000F6B204217143405805E009A8F6B20421C1
:10339000714341584842032800DA6D1C09A8F6B26F
:1033A0000421714340580E21C943884205DAF6B220
:1033B000B01EA84201DA022D01DA761CC4E7F6B28B
:1033C000042070430190D2E0704800214056042848
:1033D00000D0CCE000200600F6B2192E6FDAEF2004
:1033E0000400FF204030F6B204217143401A082146
:1033F00001F072F866490968E4B22822624389182C
:10340000085C00900727FF204030F6B2042171438A
:10341000401A082101F060F8791A00980841C007A5
:1034200043D5FF204030F6B204217143401A0821F1
:1034300001F052F856490968E4B22822624389181B
:1034400008182838007800900727FF204030F6B28F
:1034500004217143401A082101F03EF8791A0098BE
:103460000841C00721D5FF204030F6B20421714346
:10347000401A082101F030F845490968E4B22822D1
:103480006243891808185038007800900727FF20F9
:103490004030F6B204217143401A082101F01CF8B3
:1034A000791A00980841C00704D4E4B20A2C01DB61
:1034B000641E96E702A8F6B28455761C8CE70020BD
:1034C0000600F6B2182E0EDA02A8F6B2801940787D
:1034D00002A9F6B2895D401A20A9F6B2042272430D
:1034E0008850761CEDE700200600F6B2172E37DA7A
:1034F00020A8F6B2042171434018406820A9F6B212
:10350000042272438958401A09A9F6B20422724370
:10351000885009A8F6B2042171434058012805DB00
:1035200009A8F6B204217143405805E009A8F6B293
:103530000421714341584842032800DA6D1C09A850
:10354000F6B20421714340580E21C943884205DA7E
:10355000F6B2B01EA84201DA022D01DA761CC4E7E9
:10356000FF204030F6B204217143401A01906846B2
:10357000007A3899086002A8F6B2805D399908602F
:103580000198C0B23AB0F0BDBC0500007CE4FF1F5A
:10359000F84B0020F0B5B8B000250026002004004C
:1035A000E4B20A2C00DBDDE0EF200700E4B20320E8
:1035B0006043082100F090FFC8490968FFB2282243
:1035C0007A438918085C019007200090E4B2032038
:1035D0006043082100F080FF0098411A01980841DB
:1035E000C0073BD5E4B203206043082100F074FF1C
:1035F000BA490968FFB228227A438918081828387E
:103600000078019007200090E4B203206043082175
:1036100000F062FF0098411A01980841C0071DD5CB
:10362000E4B203206043082100F056FFAB4909686B
:10363000FFB228227A438918081850380078019080
:1036400007200090E4B203206043082100F044FF0B
:103650000098411A01980841C00704D4FFB2822F94
:1036600001DB7F1EA2E7FFB22EA8E4B20421614372
:103670004750EF200700FF204030E4B203216143B0
:10368000401A082100F028FF94490968FFB2282257
:103690007A438918085C019007200090FF20403091
:1036A000E4B203216143401A082100F015FF00989D
:1036B000411A01980841C00747D5FF204030E4B2C5
:1036C00003216143401A082100F006FF834909687D
:1036D000FFB228227A438918081828380078019008
:1036E00007200090FF204030E4B203216143401ADC
:1036F000082100F0F1FE0098411A01980841C00726
:1037000023D5FF204030E4B203216143401A082151
:1037100000F0E2FE71490968FFB228227A43891855
:10372000081850380078019007200090FF204030A2
:10373000E4B203216143401A082100F0CDFE009855
:10374000411A01980841C00704D4FFB2822F01DB5F
:103750007F1E90E7FFB224A8E4B2042161434750E2
:10376000641C1DE700200400E4B2092C23DA2EA813
:10377000E4B204216143401840682EA9E4B2042257
:1037800062438958401A1BA9E4B20422624388505C
:1037900024A8E4B2042161434018406824A9E4B29B
:1037A000042262438958401A12A9E4B204226243F7
:1037B0008850641CD8E700200400E4B2082C79DAB1
:1037C0001BA8E4B204216143401840681BA9E4B27D
:1037D000042262438958401A0AA9E4B204226243CF
:1037E000885012A8E4B2042161434018406812A92D
:1037F000E4B2042262438958401A02A9E4B20422C6
:10380000624388500AA8E4B2042161434058012869
:1038100005DB0AA8E4B204216143405805E00AA888
:10382000E4B20421614341584842032815DA1BA839
:10383000E4B2042161434058012805DB1BA8E4B22F
:1038400004216143405805E01BA8E4B20421614310
:1038500041584842012800DB6D1C02A8E4B2042153
:1038600061434058012805DB02A8E4B2042161430A
:10387000405805E002A8E4B204216143415848429F
:10388000032815DA12A8E4B2042161434058012844
:1038900005DB12A8E4B204216143405805E012A8F8
:1038A000E4B20421614341584842012800DB761C00
:1038B000641C82E7052D03DB052E01DB01200BE0F4
:1038C000052D03DB01202C49087004E0052E02DBE6
:1038D000022029490870002038B0F0BDF84B0020C4
:1038E00010B5254800214056042804D02248002164
:1038F0004056032801D101203CE0FDF708FA0128D9
:1039000038D11E4801F04CF9FEF7E2F904001C48DA
:10391000046055211B4800681B4A8018FCF7E4FE30
:103920001A480078401D1A49C97888421ADA17489F
:103930000078401D16490979884213DA1348007847
:10394000401D1349497988420CDA11480179C91C94
:103950000C4800680E4A127928235A4380187830A0
:10396000FCF7C2FE0B48094909780422514340582C
:10397000FDF7A2F910BD00007CE4FF1F10E4FF1F5B
:1039800038F2FF1FF84B0020480D0000F4FEFF1F27
:103990002CE4FF1FE4F0FF1F80B5012201218620E7
:1039A00001F024F901220121852001F01FF90122F3
:1039B0000121842001F01AF901220121832001F064
:1039C00015F901BD10B50400FFF7E6FF8F48006848
:1039D000202188438D4908608D48006814214843A0
:1039E00001F06EF989480068202101438748016091
:1039F000874800681421484301F062F9CB2000F0A9
:103A000009F9392000F0D8F92C2000F0D5F9002070
:103A100000F0D2F9342000F0CFF9022000F0CCF908
:103A2000CF2000F0F7F8002000F0C6F9C12000F028
:103A3000C3F9302000F0C0F9E82000F0EBF8852051
:103A400000F0BAF9002000F0B7F9782000F0B4F9DE
:103A5000EA2000F0DFF8002000F0AEF9002000F0CE
:103A6000ABF9ED2000F0D6F8642000F0A5F90320B2
:103A700000F0A2F9122000F09FF9812000F09CF9DB
:103A8000F72000F0C7F8202000F096F9C02000F0E1
:103A9000C1F8232000F090F9C12000F0BBF81020FD
:103AA00000F08AF9C52000F0B5F83E2000F084F956
:103AB000282000F081F9C72000F0ACF8862000F043
:103AC0007BF9362000F0A6F8E4B2002C03D0E82001
:103AD00000F072F902E0282000F06EF93A2000F0C0
:103AE00099F8552000F068F9B12000F093F8002013
:103AF00000F062F9182000F05FF9B62000F08AF8B3
:103B0000082000F059F9822000F056F9272000F033
:103B100053F9F22000F07EF8002000F04DF9262045
:103B200000F078F8012000F047F9E02000F072F88A
:103B30000F2000F041F9312000F03EF92B2000F079
:103B40003BF90C2000F038F90E2000F035F9082080
:103B500000F032F94E2000F02FF9F12000F02CF99E
:103B6000372000F029F9072000F026F9102000F096
:103B700023F9032000F020F90E2000F01DF90920A0
:103B800000F01AF9002000F017F9E12000F042F8E7
:103B9000002000F011F90E2000F00EF9142000F0C2
:103BA0000BF9032000F008F9112000F005F90720B7
:103BB00000F002F9312000F0FFF8C12000F0FCF81D
:103BC000482000F0F9F8082000F0F6F80F2000F087
:103BD000F3F80C2000F0F0F8312000F0EDF836207A
:103BE00000F0EAF80F2000F0E7F8112000F012F8DA
:103BF000074800681421484301F062F8292000F0CA
:103C000009F82C2000F006F810BD000000F10FF8B4
:103C1000004C0020D149096840229143CF4A1160ED
:103C2000CE490968102291430200D2B2D209D2B221
:103C300012010A43C9490A60C84909680822914328
:103C4000C64A1160C549096808220A43C3490A6087
:103C5000C2490968102291430200D2B29209D2B23D
:103C6000120110231A400A43BC490A60BB49096883
:103C700008229143B94A1160B849096808220A43E9
:103C8000B6490A60B5490968102291430200D2B2D0
:103C90005209D2B2120110231A400A43AF490A60F6
:103CA000AE49096808229143AC4A1160AB490968E2
:103CB00008220A43A9490A60A849096810229143C9
:103CC0000200D2B21209D2B2120110231A400A43E2
:103CD000A2490A60A1490968082291439F4A1160DC
:103CE0009E49096808220A439C490A609B49096861
:103CF000102291430200D2B2D208D2B21201102394
:103D00001A400A4395490A60944909680822914378
:103D1000924A11609149096808220A438F490A6052
:103D20008E490968102291430200D2B29208D2B2A1
:103D3000120110231A400A4388490A60874909681A
:103D400008229143854A11608449096808220A4380
:103D500082490A6081490968102291430200D2B267
:103D60005208D2B2120110231A400A437B490A605A
:103D70007A49096808229143784A116077490968AD
:103D800008220A4375490A60744909681022914360
:103D9000C0B2020110231A400A4370490A606F49F9
:103DA0000968082291436D4A11606C49096808222C
:103DB0000A436A490A6070476849096840220A4311
:103DC00066490A6065490968102291430200D2B22F
:103DD000D209D2B212010A4360490A605F490968F8
:103DE000082291435D4A11605C49096808220A4330
:103DF0005A490A6059490968102291430200D2B217
:103E00009209D2B2120110231A400A4353490A60A0
:103E10005249096808229143504A11604F49096884
:103E200008220A434D490A604C490968102291430F
:103E30000200D2B25209D2B2120110231A400A4330
:103E400046490A604549096808229143434A11607E
:103E50004249096808220A4340490A603F49096803
:103E6000102291430200D2B21209D2B212011023E1
:103E70001A400A4339490A603849096808229143BF
:103E8000364A11603549096808220A4333490A60F5
:103E900032490968102291430200D2B2D208D2B24C
:103EA000120110231A400A432C490A602B49096861
:103EB00008229143294A11602849096808220A43C7
:103EC00026490A6025490968102291430200D2B2AE
:103ED0009208D2B2120110231A400A431F490A6005
:103EE0001E490968082291431C4A11601B49096850
:103EF00008220A4319490A601849096810229143A7
:103F00000200D2B25208D2B2120110231A400A4360
:103F100012490A6011490968082291430F4A116049
:103F20000E49096808220A430C490A600B490968CE
:103F300010229143C0B2020110231A400A430749DC
:103F40000A600649096808229143044A116003493E
:103F5000096808220A4301490A60704700F10FF816
:103F600010B504002000000AC0B2FFF725FF2000B2
:103F7000C0B2FFF721FF10BDF8B504000F00150017
:103F80001E002A20FFF746FE2000000AC0B2FFF7FD
:103F900013FF2000C0B2FFF70FFF3800000AC0B2C5
:103FA000FFF70AFF3800C0B2FFF706FF2B20FFF72C
:103FB00031FE2800000AC0B2FFF7FEFE2800C0B2A2
:103FC000FFF7FAFE3000000AC0B2FFF7F5FE30003E
:103FD000C0B2FFF7F1FE2C20FFF71CFEF1BDF2B5D9
:103FE00082B0050017001E00089C009433003A00C0
:103FF000D2B20299280000F01DF8F7BDFBB507000A
:104000001400089E00252078002812D020788028EF
:104010000CDA0096029B22780199EDB208206843E1
:104020003818FFF7DCFF641C6D1CECE7A41CAD1C0A
:10403000E9E7F7BDFFB581B00A9F029B0F33029AF3
:104040000199C91D0198FFF797FF00200500102D69
:1040500019D20E486946097B102251434919465C22
:1040600000200400082C0CD2F6B2300603D50498C8
:10407000FFF776FF02E03800FFF772FF7600641C5E
:10408000F0E76D1CE3E705B0F0BD00008CE4FF1F16
:1040900070B50600EF230022FF2140310020FFF71A
:1040A0006BFF00200500F02D0CD200200400A020A2
:1040B0004000844204D23000FFF752FF641CF6E750
:1040C0006D1CF0E770BDF7B58AB01E000025002416
:1040D000002004000C98E4B2005D002807D00C9882
:1040E000E4B2005D01A9E4B20855641CF2E72020A7
:1040F00001A9E4B20855641C002E07D52D2001A9A2
:10410000E4B20855641C0020C04346430A2E0ADA74
:104110003000303001A9E4B20855002001A9E4B212
:1041200009194870B2E00A2E18DB642E16DA300046
:104130000A2100F0D1F9303001A9E4B2085530006D
:104140000A2100F0C9F9303101A8E4B20019417028
:10415000002001A9E4B20919887097E0FA208000D4
:10416000864222DA3000642100F0B6F9303001A92D
:10417000E4B2085530000A2100F0AEF90A2100F03F
:10418000ABF9303101A8E4B20019417030000A21C6
:1041900000F0A2F9303101A8E4B2001981700020CA
:1041A00001A9E4B20919C87070E05A4886422FDAB2
:1041B0003000FA21890000F08FF9303001A9E4B213
:1041C00008553000642100F087F90A2100F084F9D5
:1041D000303101A8E4B20019417030000A2100F02A
:1041E0007BF90A2100F078F9303101A8E4B2001916
:1041F000817030000A2100F06FF9303101A8E4B27B
:104200000019C170002001A9E4B2091908713DE04C
:10421000414886423ADA30003E4900F05DF93030DC
:1042200001A9E4B208553000FA21890000F054F9E0
:104230000A2100F051F9303101A8E4B200194170AF
:104240003000642100F048F90A2100F045F93031CE
:1042500001A8E4B20019817030000A2100F03CF995
:104260000A2100F039F9303101A8E4B20019C17017
:1042700030000A2100F030F9303101A8E4B2001911
:104280000171002001A9E4B20919487100277FB229
:10429000072F0FDA13980090139B20220B998C465E
:1042A0000A997FB20820784308186146FFF797FE05
:1042B0007F1CECE70020040001A8E4B2005D0028A8
:1042C00024D001A8E4B2005D802810DA1398009091
:1042D000129B01A8E4B2025D0B990A98EDB208277F
:1042E0006F43C019FFF77BFE641C6D1C01E0A41C2A
:1042F000AD1C13980090139B20220B990A98EDB2E5
:1043000008276F43C019FFF76AFED5E70DB0F0BD6F
:104310000000000010270000A0860100F8B507008B
:10432000EF230022FF2140310020FFF725FE00206F
:104330000600F02E1CDA00200500282D16DA0020D9
:104340000400082C10DA282070433818405D8021C2
:104350002141084203D00020FFF702FE02E0054899
:10436000FFF7FEFD641CECE76D1CE6E7761CE0E75A
:10437000F1BD0000FFFF0000FFB587B0002400255D
:104380006846808C6946898B401A01906846008D8A
:104390006946098C401A00906846808B0700684681
:1043A000008C06000198012802DB012004900BE03C
:1043B0000198002802D10020049005E00020C043AD
:1043C00004900198414201910098012802DB0120EC
:1043D00003900BE00098002802D10020039005E034
:1043E0000020C04303900098414200910098019939
:1043F000884202DA0198029001E0009802900020C1
:10440000694688820298401C6946898A88421DDB79
:10441000310089B2380080B200F01AF801982418EF
:1044200000982D180298A04203DA0298241A0498E2
:104430003F180298A84203DA02982D1A03983618FA
:1044400068466946898A491C8182DBE70BB0F0BD6A
:1044500038B504000D00ADB22B00ADB22A00A4B2F5
:104460002100A4B22000FFF787FDF8200002FFF72B
:1044700077FD31BDF8B506000D001700ADB22B0079
:104480005B1CADB26A1EB6B23100491CB6B2701EDA
:10449000FFF772FD00200400E4B2092C05DABFB278
:1044A0003800FFF75DFD641CF6E7F1BDF446002817
:1044B00004D4494200F013F84042604740420029CA
:1044C00005D45FD000F00BF84042494260474942B2
:1044D00000F005F84942604703460B43E6D400224A
:1044E000030A8B420BD203098B4219D243088B4239
:1044F0002ED2411A00D20146524110467047FF2287
:1045000009023FD012068B4205D3121209028B42D8
:1045100001D31212090203098B4219D300E0090AE0
:10452000C3098B4201D3CB01C01A524183098B428C
:1045300001D38B01C01A524143098B4201D34B0175
:10454000C01A524103098B4201D30B01C01A5241D8
:10455000C3088B4201D3CB00C01A524183088B425F
:1045600001D38B00C01A524143088B4201D34B0048
:10457000C01A5241884200D3401A5241CFD201465C
:104580001046704708B500F0CDFB08BD010009D505
:10459000F446404200F006F80122D207114360477A
:1045A000010000BF42221201D21E004207D002D4F5
:1045B000521E0018FCD5C10A400512058918704723
:1045C000F0B40E005E400125ED072E40B446AE0A61
:1045D000DF184C18F4423BD2F74241D2640D43D06D
:1045E0007F0D38D0E41BC902DB0229432B43CF0ADD
:1045F000DB0A0600B61A9F4104D2641EB6197F4139
:10460000B6185F416812800D24180018844222DA1F
:10461000E80C0021B6197F41B61A9F4102D2B618A4
:104620005F413F1C40414941F4D3241C21DD240556
:10463000B6197F41B61A9F4105D33743C6073743A2
:104640000026012F7041614166463143F0BC70473E
:10465000FCD1F74205D20020C14349054908F3E7E0
:1046600004D00020C143F1E77F0DFAD0002061465D
:10467000ECE72442FAD1401C61410F03F6D300203D
:10468000E2E730B4012100220368001D002B0BD0AB
:104690000468001D0C4202D04D466D1E6419226054
:1046A000241D1B1FF0D0FAE730BC7047F4464A18AF
:1046B00005D200F00FF801D580174008604700F0E0
:1046C00009F80121C907884200D908004042604723
:1046D0004A1812D2400DC90208430121C9070843F4
:1046E000520D40210901521A521C06D452421F3267
:1046F00001D4D0407047C017704700207047F0B514
:104700000E005E400125ED072E40B446AE0ADF18CC
:104710004C18F44208D2F7420ED2640D01D07F0D3E
:1047200012D100206146F0BD05D1F74201D87F0DBE
:1047300005D10020C143F0BDFBD1640DF9D00020AC
:10474000C143490549088FE0E419C902DB02294346
:104750002B43DB0A460DC00231438E4630B487B28C
:1047600095B27D432E0CADB2140C7C43A419260CDB
:10477000240425439CB27C43A419190C7943270CCB
:10478000C919A4B20F043C43090C000C97B247436B
:104790002E0CBE193543ADB2170C4743360CBF196A
:1047A000A6B2BF193E043543240C3E0C36199FB205
:1047B0004743BF19BCB23E0C89191F0C47437F18F1
:1047C0003E043443390C704680B297B247432E0CF6
:1047D000BE193543ADB2170C4743360CBF19A6B20C
:1047E000BF193E043543240C3E0C36199FB2474393
:1047F000BF19BCB23E0C89191F0C47437F183E04F9
:104800003443390C77463F0C90B278432E0C801914
:104810000604ADB22E43050CA0B22D18120C7A433B
:104820005019020C80B2240CA4189AB27A431219BF
:1048300014042043120C89181B0C7B43C91830BC8C
:10484000EF0A394203D1B61940414941641E6F1243
:10485000BF0DE41B0BDBFF19BC4211DA2405002756
:104860004208AE417841614166463143F0BD641C67
:1048700005D1401C6141CF0201D34908F4E750E75C
:104880005DE7F0B40125ED070F005F404FD48B4288
:1048900000D1824205D98446100062468C46190038
:1048A0006346DF184C18640D7F0D3AD0661C760500
:1048B00037D0E61B352E34DCDB022B43DB0A0C0D34
:1048C000C9022943C912202E0DDB1700203E06D055
:1048D0001F00F741F3405F400026012A7741C018CE
:1048E00071410DD217E01700F741F2405740F341F4
:1048F0005A40B340F3405A400026801859410AD329
:10490000A21C52050FD0C207012F724117004008A8
:10491000CB0718434908641C24054208AF41704185
:104920006141F0BC7047641C21050020F9E76B4031
:1049300010E06B40ABE7F742F3D1E943F1E72442E3
:10494000EFD100200021ECE7F0B40125ED070F00C6
:104950005F40EED40C00871A9C4105D2C01BA141D8
:10496000D219634169406B40AE0ADF184C18F4421B
:10497000E1D2640D7F0DE2D0E61B362ED1DCDB02E6
:104980002B43DB0AA4460C0DC9022943C90A012E98
:1049900028DC04D1D6075208DF073A435B08EF0A48
:1049A00076429041994114D039423BD1B6194041E9
:1049B0004941761C394204D1761C001849413942DC
:1049C000FAD0B9436746B74208D9A41B240521434E
:1049D000A7E70042EAD13642E8D1A2E7E40AE107BC
:1049E00000209EE7202E0BDD203E1F00F340F74104
:1049F0005F40012A002257417E42984191410BE0DD
:104A00001700F741F2405740F3415A40B340F3409A
:104A10005A407E42904199410A0303D2641EB6195E
:104A2000404149410027641E24054208AE417841B7
:104A30006141F0BC704700009D2102000AD5F44698
:104A4000524200F007F80122D207104360470000ED
:104A50009D2102000AD002D4491E9218FCD5C90536
:104A6000100A1206524100D3012A48417047000043
:104A700070B505000E007068B0607560F068306158
:104A80003168706800F04FF901000C00FE208005CD
:104A9000316800F0DAF9316900F045F9210000F0E1
:104AA0009CF9F060F06870BD0122D2070118090E70
:104AB0007F3910D449421F310FD4001805D2C001EC
:104AC0001043C84000D5D0437047C0011043C840D0
:104AD00005D440427047002070470042F3D51000D3
:104AE0007047000030B50200FF23002000252C0095
:104AF000A4B289B28C420BD2A4B2155DDBB29D4246
:104B000004D2A4B2155D2B0025002800641CEFE739
:104B1000C0B230BD10B50200012000242300DBB27A
:104B2000C9B28B4202D250435B1CF8E710BD70B58E
:104B30000200002000252B00DBB2C9B28B420FD24D
:104B400000252C00E4B2082C08DADBB2D55C254144
:104B50002E00F607F60F8019641CF3E75B1CEBE7E9
:104B600070BD000080B500220121952000F03EF8C4
:104B700000F001F801BD80B5194800688021890363
:104B8000014317480160174800686421484300F05A
:104B900097F813480068144901401148016001BDAD
:104BA0000F490968802292030A430D490A600121D6
:104BB000017081784170704700B5017801290DD1ED
:104BC0004178002907D106490968074A0A40044983
:104BD0000A60002101704178491E417000BD00004B
:104BE00000F10FF8004C0020FFFFDFFF70B504005C
:104BF0000D0016006DB2002D15D13048E4B2210031
:104C000049110422514340582C49E4B22200521168
:104C100004235A43895849690122E306DB0E9A406E
:104C20009143416142E02548E4B221004911042248
:104C3000514340582149E4B22200521104235A43FF
:104C4000895849690122E306DB0E9A400A43426112
:104C5000F6B2002E15D11948E4B221004911042200
:104C60005143405800680121E206D20E914088432A
:104C70001249E4B22200521104235A4389580860B1
:104C800014E00E48E4B22100491104225143405877
:104C900001680120E206D20E904008430749E4B2C1
:104CA0002200521104235A43895808608021490088
:104CB0002000C0B200F022F970BD000080EEFF1F9E
:104CC00010B50400002C16D080204004844203D389
:104CD00029210F4800F07EF900200E4908600E4897
:104CE000046000200D49086005200A490860094851
:104CF0000068C003FBD510BD10B504002000441EA1
:104D0000002804D006480068FFF7DAFFF6E710BD78
:104D100018A1000010E000E014E000E018E000E05E
:104D2000004C0020704730B405004D400122D207EE
:104D300015404B180418240E30D01B0E34D0FF2C15
:104D400036D0FF2B3CD0E418000209021043114377
:104D5000000A090A9446C2B24A43000AC3B24B434E
:104D6000000A4843110A5B18190A12061B0C1A4361
:104D7000120A091801D44918641E080A7F3C23DB73
:104D8000FE2C08DAE40509061143634699416041A7
:104D9000284330BC7047FF20C005F9E728001B0EF0
:104DA000FF2BF6D1D043F4E72800FF2CF1D1F9E72F
:104DB0004002F7D1FF2B01D14902F3D1E005E7E72B
:104DC000D8054902E4D0EDE743020020641CDFD19E
:104DD0005B129B1CDCD9D805DAE70122D20703005D
:104DE0004B402ED4431A01D2C01AC91830B44B1804
:104DF0000418240E1B0E22D0FF2C20D0E31A182BEF
:104E00001DDC09021143C40D641E000210439446C8
:104E10001925ED1A0A00AA40D940451801D36D089A
:104E2000A41CE405D209280A2D062A436546AA4196
:104E3000604103181B0EFF2B01D3C00DC00530BC11
:104E40007047514006E05140CCE70122D2070300F1
:104E50004B40F8D4431A03D2C01AC91850405140ED
:104E600030B44B18090211430418240E1B0E40D015
:104E7000FF2C3AD025009D410BD31ED8C50D400212
:104E8000401A0BD3ED050100400AC9059141684164
:104E9000D5E7C50D40024918401AD0D0012140087D
:104EA000491C0018FCD58C4204D36D1A000AED058C
:104EB0004019C4E7E8051040C1E7182DBFDCAC1C61
:104EC0000D00E140E5414D40012D4941C40D000276
:104ED0001043451A01D46D199543641EE405280A50
:104EE0002D069541604130BC7047FF2BA7D1D843B8
:104EF000A5E72442A3D10020A1E7000010B4324A64
:104F0000126880239B000400E4B26409A3401343A9
:104F10002D4A13602D4AC0B203005B110424634381
:104F2000D258A0320123C406E40EA3401360274ADE
:104F3000C0B203005B1104246343D258C0B2C3065D
:104F4000DB0E04246343D15010BC704710B41E4ADA
:104F5000126880239B000400E4B26409A340134359
:104F6000194A1360194AC0B203005B110424634359
:104F7000D258A0320123C406E40EA34013600A00F5
:104F8000134911400A001149C0B203005B11042407
:104F90006343C958C0B2C306DB0E04246343CB5835
:104FA000E021C90019401143084AC0B203005B1157
:104FB00004246343D258C0B2C306DB0E0424634307
:104FC000D15010BC7047000038800440CCEEFF1F69
:104FD000FFF8FFFF38B504000D002A0021000E483D
:104FE00000F022F8FEE738B504000D00210049B2B8
:104FF000012000F0EFF9200032BD704710B50748DE
:1050000004680748E4B2092161434218E4B2210070
:10501000044800F009F810BD5CA2000004ED00E0B7
:10502000C4ECFF1FDCA000000EB400B582B003A9E1
:1050300000916B4602000121034878440A3000F0D9
:105040000BFA029906B00847255300000121C20659
:10505000D20E9140B14A11607047F1B584B00F0093
:10506000AF4869468881694610200856002803D059
:10507000022825D012D335E0AA4800688021C90053
:105080000143A8480160C02189000F20FFF736FFC7
:10509000C02189000E20FFF731FF23E0A1480068FE
:1050A0008021090101439F480160C02189008120BE
:1050B000FFF724FFC02189008020FFF71FFF11E0C8
:1050C0009848006880214901014396480160C02149
:1050D00089006220FFF712FFC02189006320FFF7DB
:1050E0000DFFFFE7694610200856002800D0ABE00E
:1050F0009E4800689E4901409C4801609B480068AA
:105100009C49014399480160AE480078F321014071
:10511000AC4801700020AC490870AC480068AC494C
:1051200048430221FFF7D8F9029004200400E4B2BA
:10513000212C64DA0298E4B22100491C7943FFF77C
:10514000CEF90500ADB280208001854255DA029883
:10515000ADB2E4B22100491C6943FFF7C0F90190E8
:105160000198C01B012803DB01983900461A02E0B0
:105170000198C01B4642B6B2002E05D16846058094
:10518000E4B2684644803AE068468089B6B2864216
:1051900006D26846868168460580E4B26846448047
:1051A0006D1CADB280208001854226DA0298ADB236
:1051B000E4B22100491C6943FFF791F9019001987D
:1051C000C01B012803DB01983900461A02E0019850
:1051D000C01B4642B6B2002E05D168460580E4B237
:1051E000684644800BE068468089B6B2864204D2A5
:1051F00068460580E4B268464480641C97E78248AC
:105200000078E02101400C006846008880B2000A66
:10521000C006C00E20437C490870684600887B4960
:1052200008707B480078E02101400C006846408807
:10523000C006C00E204376490870624800780C21F1
:1052400001436048017066E07D486A46102151566E
:10525000042251434058C178F320084078496B46F6
:1052600010229A5604235A438958C8700021744862
:105270006B4610229A5604235A4380588170714815
:105280000068FA218900484302900298102179436E
:10529000FFF725F969460880684600888021890162
:1052A000884202DB68486946088065486A461021E2
:1052B00051560422514340580078E02101400C002F
:1052C0006846008880B2000AC106C90E21435C48C6
:1052D0006B4610229A5604235A4380580170684640
:1052E000018857486B4610229A5604235A43805827
:1052F000417053486A461021515604225143405888
:10530000C1780C2008434E496B4610229A5604235C
:105310005A438958C87005B0F0BD000000E100E0B4
:10532000FFFF00003480044000B5020052B2002AA2
:1053300008D146480078800615D5454800780870A1
:10534000012011E03E4852B204235343C058007973
:10535000800608D53A4852B204235343C058C07956
:105360000870012000E0002000BD0000048004401F
:10537000FFFFFFF300000104F4B507000E00002555
:10538000002004003348844217D27119380040B21B
:10539000FFF7CAFF00280ED0002004007057002835
:1053A00001D128000CE06D1C00988542EDD300204F
:1053B0007055280004E0641CE4E7002070552800C4
:1053C000F2BD000003A0064002A00640FC4B0020F6
:1053D00040420F0000B540B2002806D11B4A1278A7
:1053E0001206FBD51A4A11700DE0154A40B204238B
:1053F0004343D25812791206F7D5114A40B204231A
:105400004343D258D17100BD00A0064001A0064020
:105410000AA0064010B50400094864B204216143A3
:105420004058C07820210143054864B204226243F9
:105430008058C17020000C3040B2FFF707FE10BD4D
:10544000ECEEFF1F084C0020FF1F000004A00640E8
:1054500007A0064010270000F1B5A2B014001F00FD
:10546000049100200D900AE00498229A904704903D
:10547000002800D1CBE20D98401C0D90641C2178CF
:10548000002901D10D98C4E22529EDD10020079013
:10549000089009900A900B900C9002E00100012006
:1054A0000843641C21782029F8D023290ED02B2909
:1054B00004D02D2907D030290BD00DE001000220A7
:1054C000084380B2EDE701000420F9E7010008205D
:1054D000F6E701001020F3E72A290FD13968396077
:1054E0000A68091D39600F92002A05D551420F91B3
:1054F00001000420084380B2641C12E000210F91D7
:105500000AE00F9A754B9A4205D093009A18520000
:10551000511830390F91641C21780A00303A0A2A58
:10552000EFD321782E2903D00021C9430E911EE02C
:10553000641C21782A2907D1396839600A68091D55
:1055400039600E92641C12E000210E910AE00E9A5E
:10555000624B9A4205D093009A1852005118303984
:105560000E91641C21780A00303A0A2AEFD302A96E
:1055700008872578290058487844FF305D3000F0CE
:10558000E0FE002801D0641C00E0002502A83A30AB
:10559000057002A83A300078682804D1217868297B
:1055A00001D1622005E06C2807D120786C2804D155
:1055B000712002A93A310870641C12A8069025785F
:1055C000641C280025382AD01C3800D1CFE0001FE9
:1055D000022800D8CBE0133800D1EFE0093800D121
:1055E000C5E0801E00D157E1401E00D12BE1401ED6
:1055F000022800D8BBE0001F00D124E1401F00D1E9
:1056000086E0401E00D1D9E0401E26D0C01E0BD03F
:10561000801E00D1D2E0C01E00D1CFE046E10120C3
:105620000790252012A998E0386838600568001DA9
:10563000386005950E9E002E03D5280000F08BFEE5
:1056400009E032000021280000F08DFE002801D082
:10565000401B00E03000089034E138683860026890
:10566000001D38600020C0430021104002AA03C280
:1056700012A80590069B3C2502A803C8002904D166
:10568000002802D10E9A002A14D06D1E019502073F
:10569000120F3032D2B23A2A00DB27325A550009B3
:1056A0000A071043090901D1002803D0059A5E19A1
:1056B000B242EAD33C20401B0890591905910E993B
:1056C00088420FDA081A0A9002A8008F04490140A4
:1056D00002A80187F6E000BF7C4C0000FFFFFF7FBF
:1056E000EFFF0000002900D4ECE002A9383109786E
:1056F00014220A40102A00D0E4E00F99079A891A70
:105700000A9A891A0D1A012D00DADBE00A95D9E010
:1057100002A83A300078622819D0682806D06A2892
:105720000CD06C281BD0712808D018E0386838607D
:105730000168001D38600D980880C3E03868386043
:105740000268001D38600D98C11703C2BAE03868BE
:1057500038600168001D38600D980870B2E0386844
:1057600038600168001D38600D980860AAE03A684A
:10577000D21D072082433A6003CA3A6002AA03C2DC
:10578000002903D5012007902D200CE002A8008FEE
:10579000810703D5012007902B2004E0C00704D522
:1057A00001200790202012A9087012A8079940181C
:1057B0000590290002A800F0FBF983E002A83A3026
:1057C00002786C2A0BD0712A01D06A2A07D13B6873
:1057D000DB1D072083433B6003CB3B6005E039685A
:1057E00039600868091D3960002102AB03C3682ACB
:1057F00003D102A803C880B20BE0622A03D102A839
:1058000003C8C0B205E0742A01D07A2A04D102A8E4
:1058100003C8002102AA03C202A83830007800079A
:1058200031D502A803C8002901D100282BD020209F
:105830002843782827D1302012A908700220079029
:1058400012A845701FE0390002A83A30007800F035
:10585000E2F802AA03C202A8002904DA0798411C50
:1058600007912D210DE0008F810704D50798411C79
:1058700007912B2105E0C00705D50798411C07912A
:10588000202112AA115412A8079940180590290046
:1058900002A800F0F4F815E001200790386838609D
:1058A0000168001D386012A801700BE0012007900C
:1058B000252012A90870002D04D00798411C0791DB
:1058C00012A90D540F980799401A0A99401A08997D
:1058D000401A0B99401A0999401A0C99401A0190E4
:1058E00002A838300078400711D42020694608709B
:1058F000002509E001236A4602A9229800F009FD6B
:10590000002800D083E06D1C01988542F2DB079EE1
:1059100012AD0BE029780498229A90470490002851
:1059200075D00D98401C0D906D1C761E002EF1D187
:105930003020694608700A9E002508E001236A4667
:1059400002A9229800F0E5FC002860D16D1CB54248
:10595000F4DB089E059D0BE029780498229A904775
:105960000490002853D00D98401C0D906D1C761E9D
:10597000002EF1D13020694608700B9E002508E00A
:1059800001236A4602A9229800F0C3FC00283ED1F8
:105990006D1CB542F4DB099E0598089945180BE08B
:1059A00029780498229A9047049000282FD00D98C7
:1059B000401C0D906D1C761E002EF1D130206946E2
:1059C00008700C9E002508E001236A4602A922986F
:1059D00000F09FFC00281AD16D1CB542F4DB02A830
:1059E00038300078400700D449E520206946087027
:1059F000002500E06D1C0198854200DB3FE5012396
:105A00006A4602A9229800F084FC0028F2D0002007
:105A1000C04323B0F0BD0A00622822D0682819D004
:105A20006A2808D06C2823D0712804D074281FD08D
:105A30007A2808D01CE01368DB1D0720834313601D
:105A400003CB13607047116811600868091D11606D
:105A500000217047116811600868091D116000B2CB
:105A60000BE0116811600868091D116040B204E084
:105A7000116811600868091D1160C1177047F3B5FE
:105A800083B0006900906846027C6F2A01D1082427
:105A900006E020211143782901D00A2400E01024D7
:105AA0003C25039803C806000F00642A01D0692A28
:105AB00007D1002905DA00200021801BB94106002A
:105AC0000F00002F12D1002E10D10398006B002878
:105AD0000CD1082C3CD1039838300078000737D51A
:105AE0003B25302000993B31087031E06D1E019557
:105AF000300039002200E31700F041FC3032D2B20E
:105B00003A2A03DB6846007C513812180098425547
:105B1000300039002200E31700F031FC06000F00CE
:105B200001D1002E05D00398C06800994919884218
:105B3000DCD3082C0CD1039838300078000707D547
:105B40000098405D302803D06D1E302000994855E4
:105B50003C20401B0399886100994919039AD16040
:105B60000399096B884209DA081A039908620398B5
:105B7000008F0E4901400398018715E0002913D5D5
:105B800003993831097814220A40102A0CD103995C
:105B9000496B039A5269891A039A126A891A0D1A73
:105BA000012D01DB0398056205B0F0BDEFFF000099
:105BB000F3B591B006AD03C802AA03C212A80078DB
:105BC00020210143009161290BD01198006B00281E
:105BD00001D5062003E004D1672902D101201199E3
:105BE0000863119841684800400DAA4A904225D1A7
:105BF000080310D11198006800280CD103201199D6
:105C0000886112A8007861381A2842D32348784462
:105C10008A3000900BE003201199886112A8007867
:105C200061381A2831D31E4878447430009003221A
:105C300000991198C06800F0D7FBF1E1012817DA4C
:105C4000119800F0FFFB012812DB002700260098C6
:105C5000612832D11198C06830210170401C411C6C
:105C6000119AD16012A9097861291FD178211EE00B
:105C700011994968884A0A4088491143119A51602C
:105C80008749461A0027FF43E1E706487844143065
:105C9000CCE7054878441030BBE700BFCC46000095
:105CA000C0460000B8460000BC4600005821017004
:105CB00011984069801C11994861002F03D100247C
:105CC00068468780A2E10098612800D09FE0119883
:105CD000046B002C01D5212400E0641C24B2601C5C
:105CE0000090119803C804AA03C202A803C80022A6
:105CF000002300F0C9FB04A803C802D280221206C8
:105D0000514002AA03C2301F6946888000270F76DF
:105D100006AE761C00E0F61D0098012830DB02A8D4
:105D200003C80022002300F0C8FB29D21C2102A8CE
:105D300000F0DCFB02A803C8FEF7B8FC05000098E1
:105D4000C01F009001280ADB2800FEF71FFC02009C
:105D50000B0002A803C8FEF7F7FD02AA03C2F61D56
:105D6000072004E0761E2907090F31702D11012D3F
:105D700001DB401EF6D5401ECDD4761E3770FAE703
:105D800006A8401C311A06AD6D1CA14200DA0C00B9
:105D900024B2200032D4884205DA06A909184978CD
:105DA000082900DB0F2706A9091801E0641E491E17
:105DB000401E0A78BA42F9D00F2F04D106A909185B
:105DC0004A78521C4A70002806D506AD641C01981A
:105DD00000B2001D6946888024B2601E0ED42918C6
:105DE0000A783032D2B23A2A03DB12AB1B783A3B44
:105DF000D2180A70401E491E0028F1D51198006B78
:105E0000002800D402E1601E11990863FEE002A898
:105E100003C80022002300F037FB06D202A803C803
:105E200080221206514002AA03C236B27D48704356
:105E30007D49FEF751FB694688800720019909B228
:105E4000421A00207949012A20DB049202AA30CAB2
:105E500000260F000498C00707D532003B00200041
:105E60002900FEF74CFC04000D000498401004903B
:105E70003000390032003B00FEF741FC06000F0005
:105E800004980028E6D102A830C028E05442002639
