:10000000F85F002011040000D13C0000D13C00004A
:10001000D13C0000D13C0000D13C0000D13C0000AC
:10002000D13C0000D13C0000D13C0000D13C00009C
:10003000D13C0000D13C0000D13C0000D13C00008C
:10004000D13C0000D13C0000D13C0000D13C00007C
:10040000FFFFFFFFFFFFFFFFFFFFFFFFFEFFFFFFFD
:1004100062B608F0A3FDFEE700B583B00020A64950
:1004200008700020A549087000F02CFBA448007952
:10043000412803DA0120A349087002E00020A14905
:10044000087000F08FFC012802D104209E4908703A
:1004500000F0BAFC00209D4908709D4800214056DC
:10046000002848D198480078042810D1482199489C
:100470000068B4221201801800F056F996488F499E
:10048000097804225143405800F05BFC33E001201E
:100490008E49087069218F480068904A801800F0E2
:1004A00043F986480078401D8549C97888421ADAA0
:1004B00082480078401D82490979884213DA7F48D2
:1004C0000078401D7E49497988420CDA7C480179E0
:1004D000C91C804800687A4A127928235A43801838
:1004E000783000F021F97C4874490978042251439E
:1004F000405800F026FC7A480078012800D0D4E06B
:1005000078480190F8200002009073486B49097800
:10051000042251434358744A6421FA2002F07DFDBD
:1005200070480190F820000200906B4863490978F8
:100530004018F0218900435C6C4A7821FA2002F0CF
:100540006CFD68480190F8200002009062485B4909
:1005500009784018C3210901435C65A28C21FA2067
:1005600002F05BFD5F480190F820000200905A48BD
:10057000524909780422514340189621C900435832
:100580005CA2A021FA2002F048FD56480190F82014
:10059000000200905048494909784018D2210901C9
:1005A000435C55A2B421FA2002F037FD4D4801907A
:1005B000F82000020090484840490978042251433D
:1005C00040188721090143584CA2C821FA2002F0A3
:1005D00024FD3F480021405600280CD002281ED0A0
:1005E00013D304282FD024D3062840D035D308288D
:1005F00051D046D359E03B480090F8231B0240A25B
:10060000DC21FA2002F0A4FC4FE036480090F823E9
:100610001B023CA2DC21FA2002F09AFC45E03148A2
:100620000090F8231B0238A2DC21FA2002F090FC93
:100630003BE02C480090F8231B0234A2DC21FA2076
:1006400002F086FC31E027480090F8231B0230A21C
:10065000DC21FA2002F07CFC27E022480090F823FD
:100660001B022CA2DC21FA2002F072FC1DE01D48C6
:100670000090F8231B0228A2DC21FA2002F068FC7B
:1006800013E018480090F8231B0224A2DC21FA2072
:1006900002F05EFC09E013480090F8231B0220A240
:1006A000DC21FA2002F054FCFFE700201D4908700D
:1006B00001200549087007BD424C0020D4FEFF1FF1
:1006C00018E4FF1F454C00204E4C0020514C0020E8
:1006D00020E4FF1FD84B0020C4F0FF1F681000006B
:1006E00077ECFF1FFFFF0000E8930000F09300008D
:1006F0004C0000004C5F560052000000525F560054
:100700004E0000004C700000527000004C69000068
:10071000526900004C6F0000526F00004C570000FF
:1007200052570000544C0020F1B58CB00F00A020AF
:1007300003900A200A909B20400009900025002485
:100740000020089000200790642004900020694653
:1007500008720026C1480078002805D1BF480078FB
:10076000401CBE49087010E0BD4804217943405840
:10077000BC4949784018022102F058FE0390B8485D
:10078000C019F0218900405C049000200600282E4A
:1007900014DA002008280FDA0C99895D072203007B
:1007A000D21A11410B00DB07DB0FAF4A082171435E
:1007B00009185354401CEDE7761CE8E70398040041
:1007C000A9480019C078012809D1A74800198078E4
:1007D000012804D1A44800194078012804D00998C0
:1007E000844201DA641CEBE70998844209DA069432
:1007F00001209B49C919D222120188540120079077
:1008000007E00020079000209549C919D222120163
:1008100088540398050094484019C01E00780128A8
:100820000BD191484019801E0078012805D18E48CF
:100830004019401E0078012804D00A98A84201DA25
:100840006D1EE8E70A98A84209DA05950120844957
:10085000C919C322120188540120089007E0002022
:10086000089000207E49C919C322120188540398B8
:10087000854202D00398844213D1002007900020C3
:100880007749C919D222120188540020089000200B
:100890007349C919C322120188540120694608729C
:1008A00002E00020694608726846007A012818D1E3
:1008B000D22F16DA03986A4904227A438918C8604D
:1008C000049808306649C919684A88543900C91C17
:1008D0006748006828227A4380187830FFF724FFA1
:1008E00051E008980799014300294CD00898012845
:1008F0000DD0079801280AD106980499401A039050
:100900000698049902225143401A05903BE008984A
:1009100001280DD1079801280AD00598049940189C
:1009200003900598049902225143401806902AE04A
:100930000898012827D10798012824D106980599FD
:10094000401A02F0CDFD00228023DB0502F0E2FD1B
:1009500002F056FE04900498642802DA64200490A1
:1009600004E004988D2801DB8C20049006980599FA
:10097000401802F0B5FD00228023DB0502F0CAFD1D
:1009800002F03EFE03900398232802DA232003900E
:1009900007E003988F214900884202DBFF201E30C8
:1009A0000390039802F09CFD009001913800693893
:1009B0000021484302F094FD00222E4B02F049FE34
:1009C00000222D4B02F0A6FD00222C4B02F003FF6B
:1009D000009A019B02F0FFFE02F012FE2049042261
:1009E0007A43885026480078B84202DA3800244911
:1009F00008700598A0214900884203DBFF204030A1
:100A0000059004E00598002801D500200590059880
:100A1000134904227A4389189622D20088500698F6
:100A2000A0214900884203DBFF204030069004E00B
:100A30000698002801D5002006900698084904224F
:100A40007A43891887221201885004980449C919E9
:100A5000F0229200885400200DB0F0BD464C0020DA
:100A6000C4F0FF1F18E4FF1F84EFFF1FC303000043
:100A7000D84B00200000F03F008040C00000104034
:100A8000D4FEFF1FFFB5C64804786846C4494978BC
:100A900081816846C249897841810020694648724F
:100AA000002069460872002069468873EF2006001E
:100AB000A4B22000082102F0B9FCC2490968F6B2CC
:100AC000282272438918085C019007200090A4B284
:100AD0002000082102F0AAFC0098411A0198084160
:100AE000C00737D5A4B22000082102F09FFCB54909
:100AF0000968F6B228227243891808182838007845
:100B0000019007200090A4B22000082102F08EFC82
:100B10000098411A01980841C0071BD5A4B22000D3
:100B2000082102F083FCA7490968F6B22822724323
:100B30008918081850380078019007200090A4B256
:100B40002000082102F072FC0098411A0198084127
:100B5000C00704D4F6B2022E01DB761EA8E7F6B277
:100B6000EF2E02D00120694648728D48C670EF20F2
:100B7000070068468089082102F058FC91490968FD
:100B8000FFB228227A438918085C01900720009060
:100B900068468089082102F049FC0098411A0198B2
:100BA0000841C00737D568468089082102F03EFC1D
:100BB00084490968FFB228227A438918081828381E
:100BC000007801900720009068468089082102F093
:100BD0002DFC0098411A01980841C0071BD56846B2
:100BE0008089082102F022FC76490968FFB2282298
:100BF0007A4389180818503800780190072000902F
:100C000068468089082102F011FC0098411A019879
:100C10000841C00704D4FFB2022F01DB7F1EA8E702
:100C2000FFB2EF2F02D00120694688735C4807713C
:100C3000EF20050068464089082102F0F7FB614972
:100C40000968EDB228226A438918085C01900720E0
:100C5000009068464089082102F0E8FB0098411A9C
:100C600001980841C00737D568464089082102F03D
:100C7000DDFB54490968EDB228226A438918081837
:100C800028380078019007200090684640890821A4
:100C900002F0CCFB0098411A01980841C0071BD50F
:100CA00068464089082102F0C1FB46490968EDB257
:100CB00028226A43891808185038007801900720C4
:100CC000009068464089082102F0B0FB0098411A64
:100CD00001980841C00704D4EDB2022D01DB6D1E5E
:100CE000A8E7EDB2EF2D02D00120694608722C482A
:100CF00045716846407A002803D103205A4908709C
:100D00001EE06846007A002803D102205649087088
:100D100016E0F6B2FFB2BE4207D2FFB2EDB2AF426A
:100D200003D20220504908700AE0FFB2F6B2B7427F
:100D300006D2EDB2FFB2BD4202D203204A4908708A
:100D4000FFBD00B5010049480078012801D100200D
:100D500007E00120454A1070A020401A444A106064
:100D6000002000BD38B5002500200400E4B2052CA9
:100D70000FDA282113480068E4B228226243801861
:100D80003C4A801802F027FE062800DA6D1C641C1D
:100D9000ECE7EDB2042D01DB012000E0002032BDC4
:100DA00018E4FF1F00B5344800683449884204D273
:100DB000334800683149884201D3012000E0002017
:100DC00000BD0000D84B002080B500F00AF800F00C
:100DD00061F800F09DFB00F01BFC01F059FB0020C6
:100DE00002BD10B50024274800214056002811D12B
:100DF00000F0FEFD0400E4B2002C0BD0FFF7D2FFA0
:100E0000012807D11F4804701F480068202188432B
:100E10001D4908601B480021405605280ED1FFF7E8
:100E2000C1FF01281DD1072016490870012017496C
:100E3000087017480088C249088012E01148002154
:100E4000405606280DD1FFF7ADFF012809D1082033
:100E50000C49087001200D4908700D480088B849F8
:100E60000880002010BD00004E4C0020424C0020A5
:100E7000580000206810000058FFFF1F61090000A3
:100E80005CFFFF1F20E4FF1F80F00FF860E4FF1FEE
:100E900064E4FF1FFEB5002069460872A9480021DE
:100EA0004056012806D0A74800214056022801D00C
:100EB000012043E102A800F061F905000020C043D1
:100EC00085422ED1A0480078401C9F4908709D485B
:100ED000C06AFFF736FF9C4800780A2800DA2CE148
:100EE00098480021405601280AD1032095490870EE
:100EF0000120964908709348808F924948871CE1E9
:100F0000904800214056022800D016E104208D4967
:100F1000087001208D4908708A48808F8949488768
:100F20000BE1884800214056012879D18848407853
:100F30001E30A84235DA84480078401C8249087087
:100F40006921A9480068834A8018FFF7EDFB8248B1
:100F50000078401D7E49C97888421ADA7E480078B8
:100F6000401D7B490979884213DA7B480078401D8F
:100F70007749497988420CDA75480179C91C9A4841
:100F80000068734A127928235A4380187830FFF793
:100F9000CBFB724870490978042251434058040041
:100FA00038E0002068490870280002F099FA0090A3
:100FB00001916B4828186946097A6939484302F05B
:100FC0008FFA0022674B02F044FB06000F006846D0
:100FD000007A65490978401A02F082FA02000B0093
:100FE0003000390002F096FA02000B0000980199D7
:100FF00002F054FC00228023DB0502F08BFA002271
:101000005A4B02F0E8FB02F0FBFA0400232C01DA51
:10101000232004004B48C4622000FFF792FE82E0C8
:1010200048480021405602287DD1494840781E3862
:10103000854235DA44480078401C434908706921EC
:1010400069480068434A8018FFF76EFB4248007801
:10105000401D3F49C97888421ADA3F480078401D50
:101060003B490979884213DA3B480078401D3849EA
:10107000497988420CDA36480179C91C5A48006817
:10108000334A127928235A4380187830FFF74CFBF3
:1010900032483149097804225143405804003DE068
:1010A000002029490870280002F01AFA00900191E6
:1010B0006846007A6938684302F012FA0022294B28
:1010C00002F0C7FA06000F006846007A2649097840
:1010D000401A02F005FA02000B003000390002F05D
:1010E00019FA02000B000098019902F0D7FB0022C8
:1010F0001F4B02F070FB00228023DB0502F00AFA8E
:1011000000221C4B02F067FB02F07AFA04008F20E9
:101110004000844202DBFF201E3004000948C46204
:101120002000FFF70EFE14480078012805D11F2289
:101130006921200080B202F047F90020FEBD0000C6
:1011400062E4FF1F20E4FF1F50E4FF1F59E4FF1F6C
:1011500018E4FF1F68100000D4FEFF1FC4F0FF1F3B
:10116000C1FEFFFF0000F03F4BE4FF1F00002440E2
:1011700000F07340000024C077ECFF1FF1B5E6B02B
:101180000A2004909B2040000390002400250020AA
:1011900002900020019000206946487000206946B6
:1011A00008700026002700F0B5FD0590B648002124
:1011B0004056022805D10598C9280DDB0020C04300
:1011C0009EE1B14800214056012805D105987828B4
:1011D00002DA0020C04393E100200600F6B2142E8C
:1011E00000DBA2E0004801E0D84B00200068F6B226
:1011F00003217143C34A12788918282251434018A9
:10120000079000200700FFB2282F19DA0021C9B289
:10121000082913DABC4BFFB208207843C9B2401842
:1012200084460798FFB2C05D0722521A104102009F
:10123000D207D20F60461A54491CE8E77F1CE2E748
:10124000914800214056022832D105980500AE4849
:101250004019C078012809D1AB484019807801288D
:1012600004D1A94840194078012804D00398854248
:1012700001DA6D1CEBE70398854206DA280008A91D
:10128000F6B20222724388524DE0A04840780A30FC
:10129000854206DA039808A9F6B202227243885200
:1012A00041E0039808A9F6B20222724388523AE05C
:1012B000754800214056012835D1944840780400F3
:1012C00091480019C01E007801280BD18E480019E2
:1012D000801E0078012805D18B480019401E007837
:1012E000012804D00498A04201DA641EE8E70498BB
:1012F000A04206DA200012A9F6B2022272438852F6
:1013000011E0824840780A38A04206DA049812A90F
:10131000F6B202227243885205E0049812A9F6B28E
:10132000022272438852761C58E700200600F6B26B
:10133000132E2EDA544800214056022811D108A855
:10134000F6B2022171434018408808A9F6B2022281
:101350007243895A401A40A9F6B204227243885057
:1013600015E0494800214056012810D112A8F6B2D4
:10137000022171434018408812A9F6B2022272433A
:10138000895A401A53A9F6B2042272438850761C37
:10139000CDE700200600F6B2122E00DBA4E03A48AA
:1013A0000021405602284BD140A8F6B204217143D7
:1013B0004018406840A9F6B2042272438958401A86
:1013C0001CA9F6B20422724388501CA8F6B204216C
:1013D00071434058012805DB1CA8F6B20421714373
:1013E000405805E01CA8F6B2042171434158484218
:1013F000032802DA0198401C01901CA8F6B20421CF
:10140000714340581D21C94388426BDAF6B2F01E81
:101410000199884266DA0198022863DB0120694657
:10142000087008A8F6B202217143405A0690F6B23D
:10143000032070433349097840186699087053E0D7
:1014400011480021405601284CD153A8F6B204217E
:1014500071434018406853A9F6B204227243895878
:10146000401A2EA9F6B20422724388502EA8F6B272
:10147000042171434058012808DB2EA8F6B204214C
:101480007143405808E000BF20E4FF1F2EA8F6B2C9
:101490000421714341584842032802DA0298401C53
:1014A00002902EA8F6B20421714340581F2819DB80
:1014B000F6B2F01E0299884214DA0298022811DB73
:1014C00001206946487012A8F6B202217143405AC1
:1014D0000690F6B2032070430A49097840186699CD
:1014E000087001E0761C56E768460078002806D1AF
:1014F00068464078002802D10020C04300E00698EA
:1015000067B0F0BD4AE4FF1F84EFFF1F18E4FF1F20
:1015100080B5364800214056032806D033480021C4
:101520004056042801D001205EE03148017831485E
:1015300000682F4A127828235A438018FFF7F4F8DE
:101540002D480078401D2D49C97888421ADA2A486A
:101550000078401D29490979884213DA2648007825
:10156000401D2649497988420CDA24480179C91C72
:1015700020480068214A127928235A43801878307D
:10158000FFF7D2F81E481C490978042251434058FD
:10159000FFF7D7FB1B480078012824D100F0D4FDC9
:1015A000012805D118480078401C1749087002E04E
:1015B00000201549087014480078022813DB1348EE
:1015C00002F042FA094800214056032803D10520C1
:1015D0000649087007E0054800214056042802D15A
:1015E000062002490870002002BD000020E4FF1F11
:1015F00058E4FF1FD84B0020D4FEFF1F18E4FF1F44
:10160000C4F0FF1F5EE4FF1F5FE4FF1F10E4FF1F35
:10161000F0B585B0D54800214056062806D0D348FD
:1016200000214056052801D00120C3E102A903A8EA
:1016300000F0E2FB0500CD4800214056062800D00E
:10164000DBE0280001F04CFF00900191029869381E
:10165000684301F045FF0022D74B01F0FAFF060076
:101660000F0002980399401A01F03AFF02000B00A4
:101670003000390001F04EFF02000B000098019984
:1016800002F00CF90022CD4B02F0A5F800228023D5
:10169000DB0501F03FFF01F0B3FF0400C8484078CC
:1016A0001E30A0423EDA8F204000844202DBFF2041
:1016B0001E3004002000FFF744FBC24800780A28CF
:1016C00002DB0020BF490870A848406BBE49BD4AF4
:1016D000127802235A43895A401AA44948632000C9
:1016E000B949B84A127802235A4388529F48406B3E
:1016F000B549B44A127802235A43895A40189B4983
:101700004863B0480078401CAE490870AF48007884
:10171000012800D04DE1AE4A6921200080B201F0DD
:1017200053FE46E1A6480079A549C9780A3988429E
:1017300006DBA3484079A24909790A39884241DA8F
:101740006921A4480068A44A8018FEF7EDFFA34869
:101750000078401D9A49C97888421ADA9F48007873
:10176000401D97490979884213DA9C480078401D4A
:101770009349497988420CDA91480179C91C954806
:1017800000688F4A127928235A4380187830FEF770
:10179000CBFF934891490978042251434058AB2824
:1017A00008DB8F488D490978042251434058FFF7E0
:1017B000C8FAFEE06D48406B0A2101F037FEFFF7E2
:1017C000C0FAF6E06948406B0A2101F02FFEFFF7EE
:1017D000B8FA7E480078012800D0EAE0814A692101
:1017E0000E0017006148406B0A2101F01FFE3A000D
:1017F000310080B201F0E8FDDBE05C48002140569A
:10180000052800D0D5E0280001F06AFE0090019183
:101810007548281802996939484301F061FE002291
:10182000654B01F016FF06000F0002980399401A5D
:1018300001F056FE02000B003000390001F06AFE94
:1018400002000B000098019902F028F80022802382
:10185000DB0501F05FFE01F0D3FE0400584840783C
:101860001E3884423ADA232C01DA232004002000B7
:10187000FFF767FA534800780A2802DB0020514935
:1018800008703A48406B50494E4A127802235A4336
:10189000895A401A3549486320004B49494A127811
:1018A00002235A4388523148406B4749454A1278CF
:1018B00002235A43895A40182C494863414800780A
:1018C000401C4049087041480078012871D1404AC5
:1018D0006921200080B201F077FD6AE03848007984
:1018E000374949790A39884206DB3548C078344996
:1018F00009790A39884243DA692136480068364A4C
:101900008018FEF711FF35480078401D2C49C97832
:1019100088421ADA31480078401D294909798842FD
:1019200013DA2E480078401D2549497988420CDA9F
:1019300023480179C91C27480068214A12792823C5
:101940005A4380187830FEF7EFFE2548234909787E
:1019500004225143405896280ADA21481F49097841
:10196000042251434058FFF7ECF922E020E4FF1F26
:101970001E48406B0A2101F059FDFFF7E2F918E01B
:101980001A48406B0A2101F051FDFFF7DAF90F48C0
:10199000007801280DD1134A69210E001700134861
:1019A000406B0A2101F042FD3A00310080B201F0A3
:1019B0000BFD002005B0F0BD0000F03F00F07340CB
:1019C00018E4FF1F474C0020D8FEFF1F77ECFF1FD5
:1019D000FF7F0000D84B002068100000D4FEFF1FDE
:1019E000C4F0FF1F1FF80000C1FEFFFF20E4FF1F2F
:1019F000F0B5A8B00A2004909B204000039000217D
:101A00000022002002900020019000206B46D87038
:101A100000206B46987000206B46587000206B4683
:101A200018700023002400200300DBB20A2B00DB27
:101A30009BE0B4480068DBB203255D43B24E3678C4
:101A4000AD19282675434019059000200400E4B222
:101A5000282C19DA0025EDB2082D13DAAB4FE4B2C9
:101A600008206043EDB2401984460598E4B2005D59
:101A70000726761B30410600F607F60F60463E54F7
:101A80006D1CE8E7641CE2E7A148407802009F482B
:101A90008018C078012809D19C48801880780128D6
:101AA00004D19A4880184078012804D003988242D3
:101AB00001DA521CEBE70398824207DA1000CC4DA2
:101AC000DBB202265E43AD19E88213E0904840780D
:101AD0000A30824207DA0398C54DDBB202265E4324
:101AE000AD19E88206E00398C14DDBB202265E43E1
:101AF000AD19E88286484078010084484018C01E2D
:101B0000007801280BD181484018801E00780128F8
:101B100005D17E484018401E0078012804D0049862
:101B2000884201DA491EE8E70498884207DA08008B
:101B3000AF4DDBB202265E43AD19688013E07448F6
:101B400040780A38884207DA0498A94DDBB20226A9
:101B50005E43AD19688006E00498A54DDBB202260D
:101B60005E43AD1968805B1C5FE700200300DBB2B9
:101B7000092B25DA9E48DBB202255D434019808897
:101B80009B4DDBB202265E43AD196D88401B1FAD35
:101B9000DBB204265E43A8519548DBB202255D43C3
:101BA0004019008B924DDBB202265E43AD19ED8ADF
:101BB000401B16ADDBB204265E43A8515B1CD6E782
:101BC00000200300DBB2082B79DA1FA8DBB2042562
:101BD0005D43401940681FADDBB204265E43AD593A
:101BE000401B0EADDBB204265E43A85116A8DBB243
:101BF00004255D434019406816ADDBB204265E4300
:101C0000AD59401B06ADDBB204265E43A8510EA8B9
:101C1000DBB204255D434059012805DB0EA8DBB289
:101C200004255D43405905E00EA8DBB204255D4361
:101C300045596842032802DA0298401C029006A81F
:101C4000DBB204255D434059012805DB06A8DBB261
:101C500004255D43405905E006A8DBB204255D4339
:101C600045596842032802DA0198401C01900EA8E9
:101C7000DBB204255D4340591D25ED43A8420ADA35
:101C8000DBB2981E029DA84205DA0298022802DB08
:101C900001206D46687006A8DBB204255D434059FB
:101CA0001F280ADBDBB2981E019DA84205DA0198C5
:101CB000022802DB01206D4628705B1C82E7029837
:101CC000072802DB01206D46E8700198072802DB37
:101CD00001206D46A8706846C078002805D0684687
:101CE0000078012801D102200AE0684680780028A7
:101CF00005D068464078012801D1012000E000208D
:101D000028B0F0BDD84B00204AE4FF1F84EFFF1F2E
:101D100018E4FF1FF0B585B000200500EDB2142DCA
:101D20005DDAB4200400EDB20A2068434130082196
:101D300001F07CFB2F490968E4B22822624389182C
:101D40000E5C0727EDB20A2068434130082101F0FC
:101D50006DFB781A0641F00737D5EDB20A206843CB
:101D60004130082101F062FB22490968E4B22822CF
:101D7000624389180818283806780727EDB20A2028
:101D800068434130082101F051FB781A0641F00701
:101D90001BD5EDB20A2068434130082101F046FB13
:101DA00014490968E4B22822624389180818503897
:101DB00006780727EDB20A2068434130082101F078
:101DC00035FB781A0641F00704D4E4B20A2C01DB93
:101DD000641EA8E76846EDB244556D1C9EE71421C9
:101DE000684601F0D3FD0A214843413005B0F0BDFB
:101DF00020E4FF1FD84B0020F3B5B8B00025A02089
:101E00000190CF4800214056062800D0B8E00020BD
:101E10000600F6B2192E5DDAEF200400F6B20420B7
:101E20007043082101F002FBC6490968E4B2282288
:101E300062438918085C00900727F6B204207043BB
:101E4000082101F0F3FA791A00980841C00737D544
:101E5000F6B204207043082101F0E8FAB949096894
:101E6000E4B22822624389180818283800780090C4
:101E70000727F6B204207043082101F0D7FA791A37
:101E800000980841C0071BD5F6B204207043082112
:101E900001F0CCFAAB490968E4B228226243891800
:101EA00008185038007800900727F6B204207043D5
:101EB000082101F0BBFA791A00980841C00704D440
:101EC000E4B20A2C01DB641EA8E702A8F6B284552E
:101ED000761C9EE700200600F6B2182E0EDA02A845
:101EE000F6B28019407802A9F6B2895D401A20A99D
:101EF000F6B2042272438850761CEDE700200600FB
:101F0000F6B2172E37DA20A8F6B204217143401832
:101F1000406820A9F6B2042272438958401A09A9E0
:101F2000F6B204227243885009A8F6B20421714324
:101F30004058012805DB09A8F6B204217143405836
:101F400005E009A8F6B2042171434158484203282C
:101F500000DA6D1C09A8F6B20421714340580E2125
:101F6000C943884205DAF6B2B01EA84201DA022D52
:101F700001DA761CC4E7F6B2042070430190D2E087
:101F80006F4800214056052800D0CCE00020060014
:101F9000F6B2192E6FDAEF200400FF204030F6B2BF
:101FA00004217143401A082101F040FA654909688B
:101FB000E4B2282262438918085C00900727FF20BA
:101FC0004030F6B204217143401A082101F02EFA84
:101FD000791A00980841C00743D5FF204030F6B277
:101FE00004217143401A082101F020FA554909687B
:101FF000E4B2282262438918081828380078009033
:102000000727FF204030F6B204217143401A08210F
:1020100001F00CFA791A00980841C00721D5FF2079
:102020004030F6B204217143401A082101F0FEF954
:1020300044490968E4B228226243891808185038D4
:10204000007800900727FF204030F6B2042171434A
:10205000401A082101F0EAF9791A00980841C007EE
:1020600004D4E4B20A2C01DB641E96E702A8F6B29F
:102070008455761C8CE700200600F6B2182E0EDA86
:1020800002A8F6B28019407802A9F6B2895D401A1A
:1020900020A9F6B2042272438850761CEDE7002096
:1020A0000600F6B2172E37DA20A8F6B204217143E3
:1020B0004018406820A9F6B2042272438958401A99
:1020C00009A9F6B204227243885009A8F6B2042185
:1020D00071434058012805DB09A8F6B20421714379
:1020E000405805E009A8F6B204217143415848421E
:1020F000032800DA6D1C09A8F6B204217143405888
:102100000E21C943884205DAF6B2B01EA84201DAB0
:10211000022D01DA761CC4E7FF204030F6B204211C
:102120007143401A01906846007A3899086002A805
:10213000F6B2805D3999086001983AB0F0BD0000B0
:1021400020E4FF1FD84B0020F0B5C3B000250020CD
:1021500069460871CC4800214056042800D0BEE0F2
:1021600000200600F6B21E2E63DAEF200400F6B25D
:10217000042070431E30082101F058F9C349096852
:10218000E4B2282262438918085C00900727F6B25F
:10219000042070431E30082101F048F9791A009894
:1021A0000841C0073BD5F6B2042070431E30082119
:1021B00001F03CF9B5490968E4B228226243891864
:1021C00008182838007800900727F6B204207043DA
:1021D0001E30082101F02AF9791A00980841C00739
:1021E0001DD5F6B2042070431E30082101F01EF9FF
:1021F000A6490968E4B228226243891808185038B1
:10220000007800900727F6B2042070431E300821A2
:1022100001F00CF9791A00980841C00704D4E4B21F
:102220000A2C01DB641EA2E702A8F6B28455761CD4
:1022300098E700200600F6B21D2E0EDA02A8F6B2CC
:102240008019407802A9F6B2895D401A26A9F6B233
:10225000042272438850761CEDE700200600F6B297
:102260001C2E00DB0BE126A8F6B2042171434018B6
:10227000406826A9F6B2042272438958401A0AA976
:10228000F6B20422724388500AA8F6B204217143C0
:102290004058012805DB0AA8F6B2042171434058D2
:1022A00005E00AA8F6B204217143415848420328C8
:1022B00000DA6D1C0AA8F6B20421714340580E21C1
:1022C000C943884209DAF6B2B01EA84205DA022DE7
:1022D00003DB012069460871D1E0761CBFE76A483C
:1022E00000214056032800D0C9E000200600F6B2C5
:1022F0001E2E6FDAEF200400FF202230F6B20421F8
:102300007143401A082101F091F860490968E4B26C
:10231000282262438918085C00900727FF2022309A
:10232000F6B204217143401A082101F07FF8791AAE
:1023300000980841C00743D5FF202230F6B204219F
:102340007143401A082101F071F850490968E4B25C
:102350002822624389180818283800780090072737
:10236000FF202230F6B204217143401A082101F007
:102370005DF8791A00980841C00721D5FF20223066
:10238000F6B204217143401A082101F04FF83F4989
:102390000968E4B228226243891808185038007886
:1023A00000900727FF202230F6B204217143401A23
:1023B000082101F03BF8791A00980841C00704D4BD
:1023C000E4B20A2C01DB641E96E702A8F6B284553B
:1023D000761C8CE700200600F6B21D2E0EDA02A84D
:1023E000F6B28019407802A9F6B2895D401A26A992
:1023F000F6B2042272438850761CEDE700200600F6
:10240000F6B21C2E3BDA26A8F6B20421714340181E
:10241000406826A9F6B2042272438958401A0AA9D4
:10242000F6B20422724388500AA8F6B2042171431E
:102430004058012805DB0AA8F6B204217143405830
:1024400005E00AA8F6B20421714341584842032826
:1024500000DA6D1C0AA8F6B20421714340580E211F
:10246000C943884209DAF6B2B01EA84205DA022D45
:1024700003DB01206946087101E0761CC0E768466D
:10248000007943B0F0BD000020E4FF1FD84B0020CE
:1024900010B582B0964800214056072806D09448CF
:1024A00000214056082801D001204DE0684600F088
:1024B00053F804000020C043844231D169218D4883
:1024C0000068224A8018FEF72FF921480078401D45
:1024D0008949C97888421ADA1D480078401D864922
:1024E0000979884213DA1A480078401D82494979EF
:1024F00088420CDA80480179C91C7E4800687E4A0F
:10250000127928235A4380187830FEF70DF91148C4
:102510000F490978042251434058FEF712FC12E09B
:1025200068460178734800686A46127828235A433F
:102530008018FEF7F9F80748054909780422514345
:102540004058FEF7FEFB002016BD0000681000009A
:10255000D4FEFF1FC4F0FF1FF1B5E6B00A200490BF
:102560009B204000039000240025002002900020C2
:1025700001900020694648700020694608700026D6
:102580000027FFF7C7FB0590594800214056022855
:1025900005D10598C9280DDB0020C0439EE15448B1
:1025A00000214056012805D10598782802DA00203C
:1025B000C04393E100200600F6B2142E00DBA5E034
:1025C0004C480068F6B203217143C54A1278891855
:1025D000282251434018079000200700FFB2282FFF
:1025E00019DA0021C9B2082913DABE4BFFB208205C
:1025F0007843C9B2401884460798FFB2C05D0722ED
:10260000521A10410200D207D20F60461A54491CD8
:10261000E8E77F1CE2E7364800214056082832D11F
:1026200005980500AF484019C078012809D1AD4888
:1026300040198078012804D1AA484019407801281F
:1026400004D00398854201DA6D1CEBE703988542BC
:1026500006DA280008A9F6B202227243885253E033
:10266000254840780A30854206DA039808A9F6B270
:1026700002227243885247E0039808A9F6B2022268
:102680007243885240E01A480021405607283BD147
:1026900019484078040093480019C01E00780128AA
:1026A0000BD190480019801E0078012805D18D4873
:1026B0000019401E0078012804D00498A04201DAD5
:1026C000641EE8E70498A04206DA200012A9F6B2D8
:1026D00002227243885217E0074840780A38A04225
:1026E0000CDA049812A9F6B20222724388520BE067
:1026F00020E4FF1FD84B002018E4FF1F049812A904
:10270000F6B2022272438852761C55E7002006007A
:10271000F6B2132E2EDA744800214056082811D143
:1027200008A8F6B2022171434018408808A9F6B201
:1027300002227243895A401A40A9F6B20422724317
:10274000885015E0684800214056072810D112A88B
:10275000F6B2022171434018408812A9F6B2022253
:102760007243895A401A53A9F6B204227243885020
:10277000761CCDE700200600F6B2122E00DBA1E0A9
:1027800059480021405608284BD140A8F6B20421F0
:1027900071434018406840A9F6B204227243895838
:1027A000401A1CA9F6B20422724388501CA8F6B243
:1027B000042171434058012805DB1CA8F6B204210E
:1027C0007143405805E01CA8F6B2042171434158FA
:1027D0004842032802DA0198401C01901CA8F6B276
:1027E0000421714340581D21C943884268DAF6B27A
:1027F000F01E0199884263DA0198022860DB01200B
:102800006946087008A8F6B202217143405A069042
:10281000F6B203207043324909784018669908706F
:1028200050E0314800214056072849D153A8F6B25C
:10283000042171434018406853A9F6B20422724340
:102840008958401A2EA9F6B20422724388502EA845
:10285000F6B2042171434058012805DB2EA8F6B2D8
:1028600004217143405805E02EA8F6B204217143BB
:1028700041584842032802DA0298401C02902EA8D0
:10288000F6B20421714340581F2819DBF6B2F01E3E
:102890000299884214DA0298022811DB0120694665
:1028A000487012A8F6B202217143405A0690F6B25F
:1028B000032070430A49097840186699087001E0BE
:1028C000761C59E768460078002806D168464078AB
:1028D000002802D10020C04300E0069867B0F0BD98
:1028E0004AE4FF1F84EFFF1F20E4FF1F80B5012291
:1028F0000121862001F0CEF801220121852001F07E
:10290000C9F801220121842001F0C4F8012201212B
:10291000832001F0BFF801BD10B50400FFF7E6FF0A
:102920008F480068202188438D4908608D480068E1
:102930001421484301F018F9894800682021014317
:1029400087480160874800681421484301F00CF96A
:10295000CB2000F009F9392000F0D8F92C2000F044
:10296000D5F9002000F0D2F9342000F0CFF9022090
:1029700000F0CCF9CF2000F0F7F8002000F0C6F905
:10298000C12000F0C3F9302000F0C0F9E82000F0C9
:10299000EBF8852000F0BAF9002000F0B7F97820B4
:1029A00000F0B4F9EA2000F0DFF8002000F0AEF902
:1029B000002000F0ABF9ED2000F0D6F8642000F024
:1029C000A5F9032000F0A2F9122000F09FF9812060
:1029D00000F09CF9F72000F0C7F8202000F096F9ED
:1029E000C02000F0C1F8232000F090F9C12000F0D1
:1029F000BBF8102000F08AF9C52000F0B5F83E20A1
:102A000000F084F9282000F081F9C72000F0ACF82C
:102A1000862000F07BF9362000F0A6F8E4B2002C06
:102A200003D0E82000F072F902E0282000F06EF9EF
:102A30003A2000F099F8552000F068F9B12000F034
:102A400093F8002000F062F9182000F05FF9B6203A
:102A500000F08AF8082000F059F9822000F056F9B9
:102A6000272000F053F9F22000F07EF8002000F05B
:102A70004DF9262000F078F8012000F047F9E02019
:102A800000F072F80F2000F041F9312000F03EF91B
:102A90002B2000F03BF90C2000F038F90E2000F05C
:102AA00035F9082000F032F94E2000F02FF9F1201E
:102AB00000F02CF9372000F029F9072000F026F962
:102AC000102000F023F9032000F020F90E2000F080
:102AD0001DF9092000F01AF9002000F017F9E12093
:102AE00000F042F8002000F011F90E2000F00EF97D
:102AF000142000F00BF9032000F008F9112000F079
:102B000005F9072000F002F9312000F0FFF8C1209C
:102B100000F0FCF8482000F0F9F8082000F0F6F882
:102B20000F2000F0F3F80C2000F0F0F8312000F056
:102B3000EDF8362000F0EAF80F2000F0E7F8112059
:102B400000F012F8074800681421484301F00CF81F
:102B5000292000F009F82C2000F006F810BD000034
:102B600000F10FF8E04B0020D14909684022914361
:102B7000CF4A1160CE490968102291430200D2B2B7
:102B8000D209D2B212010A43C9490A60C849096888
:102B900008229143C64A1160C549096808220A43C0
:102BA000C3490A60C2490968102291430200D2B2A7
:102BB0009209D2B2120110231A400A43BC490A609A
:102BC000BB49096808229143B94A1160B8490968AC
:102BD00008220A43B6490A60B549096810229143A0
:102BE0000200D2B25209D2B2120110231A400A4393
:102BF000AF490A60AE49096808229143AC4A1160A6
:102C0000AB49096808220A43A9490A60A84909682A
:102C1000102291430200D2B21209D2B21201102343
:102C20001A400A43A2490A60A1490968082291434F
:102C30009F4A11609E49096808220A439C490A601C
:102C40009B490968102291430200D2B2D208D2B245
:102C5000120110231A400A4395490A6094490968F1
:102C600008229143924A11609149096808220A4357
:102C70008F490A608E490968102291430200D2B23E
:102C80009208D2B2120110231A400A4388490A60FE
:102C90008749096808229143854A11608449096877
:102CA00008220A4382490A60814909681022914337
:102CB0000200D2B25208D2B2120110231A400A43C3
:102CC0007B490A607A49096808229143784A116071
:102CD0007749096808220A4375490A6074490968F6
:102CE00010229143C0B2020110231A400A437049D6
:102CF0000A606F490968082291436D4A11606C4966
:102D0000096808220A436A490A60704768490968E5
:102D100040220A4366490A606549096810229143C6
:102D20000200D2B2D209D2B212010A4360490A604B
:102D30005F490968082291435D4A11605C4909684E
:102D400008220A435A490A605949096810229143E6
:102D50000200D2B29209D2B2120110231A400A43E1
:102D600053490A605249096808229143504A116048
:102D70004F49096808220A434D490A604C490968CD
:102D8000102291430200D2B25209D2B21201102392
:102D90001A400A4346490A60454909680822914396
:102DA000434A11604249096808220A4340490A60BF
:102DB0003F490968102291430200D2B21209D2B2EF
:102DC000120110231A400A4339490A603849096838
:102DD00008229143364A11603549096808220A439E
:102DE00033490A6032490968102291430200D2B285
:102DF000D208D2B2120110231A400A432C490A60A9
:102E00002B49096808229143294A11602849096819
:102E100008220A4326490A6025490968102291437D
:102E20000200D2B29208D2B2120110231A400A4311
:102E30001F490A601E490968082291431C4A116013
:102E40001B49096808220A4319490A601849096898
:102E5000102291430200D2B25208D2B212011023C2
:102E60001A400A4312490A6011490968082291432D
:102E70000F4A11600E49096808220A430C490A608A
:102E80000B49096810229143C0B2020110231A4075
:102E90000A4307490A600649096808229143044A1F
:102EA00011600349096808220A4301490A60704712
:102EB00000F10FF810B504002000000AC0B2FFF7BF
:102EC00025FF2000C0B2FFF721FF10BDF8B50400B8
:102ED0000F0015001E002A20FFF746FE2000000A02
:102EE000C0B2FFF713FF2000C0B2FFF70FFF38009A
:102EF000000AC0B2FFF70AFF3800C0B2FFF706FFB2
:102F00002B20FFF731FE2800000AC0B2FFF7FEFEBB
:102F10002800C0B2FFF7FAFE3000000AC0B2FFF787
:102F2000F5FE3000C0B2FFF7F1FE2C20FFF71CFECB
:102F3000F1BDF2B582B0050017001E00089C009498
:102F400033003A00D2B20299280000F01DF8F7BD14
:102F5000FBB507001400089E00252078002812D039
:102F6000207880280CDA0096029B22780199EDB235
:102F7000082068433818FFF7DCFF641C6D1CECE781
:102F8000A41CAD1CE9E7F7BDFFB581B00A9F029B09
:102F90000F33029A0199C91D0198FFF797FF00208E
:102FA0000500102D19D20E486946097B10225143A5
:102FB0004919465C00200400082C0CD2F6B23006F9
:102FC00003D50498FFF776FF02E03800FFF772FFA1
:102FD0007600641CF0E76D1CE3E705B0F0BD00006F
:102FE0006CE4FF1F70B50600EF230022FF21403183
:102FF0000020FFF76BFF00200500F02D0CD2002011
:103000000400A0204000844204D23000FFF752FFA9
:10301000641CF6E76D1CF0E770BDF7B58AB01E00C2
:1030200000250024002004000C98E4B2005D002874
:1030300007D00C98E4B2005D01A9E4B20855641C05
:10304000F2E7202001A9E4B20855641C002E07D540
:103050002D2001A9E4B20855641C0020C04346435A
:103060000A2E0ADA3000303001A9E4B208550020F7
:1030700001A9E4B209194870B2E00A2E18DB642EE7
:1030800016DA30000A2100F0D1F9303001A9E4B29B
:10309000085530000A2100F0C9F9303101A8E4B226
:1030A00000194170002001A9E4B20919887097E065
:1030B000FA208000864222DA3000642100F0B6F95E
:1030C000303001A9E4B2085530000A2100F0AEF911
:1030D0000A2100F0ABF9303101A8E4B200194170C7
:1030E00030000A2100F0A2F9303101A8E4B2001941
:1030F0008170002001A9E4B20919C87070E05A4833
:1031000086422FDA3000FA21890000F08FF9303042
:1031100001A9E4B208553000642100F087F90A21C2
:1031200000F084F9303101A8E4B200194170300098
:103130000A2100F07BF90A2100F078F9303101A86A
:10314000E4B20019817030000A2100F06FF93031CB
:1031500001A8E4B20019C170002001A9E4B2091964
:1031600008713DE0414886423ADA30003E4900F0BD
:103170005DF9303001A9E4B208553000FA21890028
:1031800000F054F90A2100F051F9303101A8E4B2FD
:10319000001941703000642100F048F90A2100F064
:1031A00045F9303101A8E4B20019817030000A21DC
:1031B00000F03CF90A2100F039F9303101A8E4B2FD
:1031C0000019C17030000A2100F030F9303101A837
:1031D000E4B200190171002001A9E4B20919487193
:1031E00000277FB2072F0FDA13980090139B20223D
:1031F0000B998C460A997FB20820784308186146DB
:10320000FFF797FE7F1CECE70020040001A8E4B262
:10321000005D002824D001A8E4B2005D802810DA07
:1032200013980090129B01A8E4B2025D0B990A98D2
:10323000EDB208276F43C019FFF77BFE641C6D1CBD
:1032400001E0A41CAD1C13980090139B20220B9945
:103250000A98EDB208276F43C019FFF76AFED5E759
:103260000DB0F0BD0000000010270000A086010096
:10327000F8B50700EF230022FF2140310020FFF7BF
:1032800025FE00200600F02E1CDA00200500282D67
:1032900016DA00200400082C10DA282070433818B1
:1032A000405D80212141084203D00020FFF702FE4B
:1032B00002E00548FFF7FEFD641CECE76D1CE6E745
:1032C000761CE0E7F1BD0000FFFF0000FFB587B00E
:1032D000002400256846808C6946898B401A01903D
:1032E0006846008D6946098C401A00906846808BBC
:1032F00007006846008C06000198012802DB0120C7
:1033000004900BE00198002802D10020049005E011
:103310000020C04304900198414201910098012887
:1033200002DB012003900BE00098002802D100206E
:10333000039005E00020C0430390009841420091B3
:1033400000980199884202DA0198029001E0009801
:1033500002900020694688820298401C6946898A4A
:1033600088421DDB310089B2380080B200F01AF8C3
:103370000198241800982D180298A04203DA0298A8
:10338000241A04983F180298A84203DA02982D1ACA
:103390000398361868466946898A491C8182DBE7AA
:1033A0000BB0F0BD38B504000D00ADB22B00ADB2CE
:1033B0002A00A4B22100A4B22000FFF787FDF82064
:1033C0000002FFF777FD31BDF8B506000D001700CC
:1033D000ADB22B005B1CADB26A1EB6B23100491C07
:1033E000B6B2701EFFF772FD00200400E4B2092C93
:1033F00005DABFB23800FFF75DFD641CF6E7F1BDEA
:10340000F446002804D4494200F013F840426047D3
:103410004042002905D45FD000F00BF840424942F9
:103420006047494200F005F84942604703460B43B4
:10343000E6D40022030A8B420BD203098B4219D235
:1034400043088B422ED2411A00D201465241104607
:103450007047FF2209023FD012068B4205D3121299
:1034600009028B4201D31212090203098B4219D3BC
:1034700000E0090AC3098B4201D3CB01C01A5241B3
:1034800083098B4201D38B01C01A524143098B42FD
:1034900001D34B01C01A524103098B4201D30B01E6
:1034A000C01A5241C3088B4201D3CB00C01A52410B
:1034B00083088B4201D38B00C01A524143088B42D0
:1034C00001D34B00C01A5241884200D3401A5241E6
:1034D000CFD201461046704708B500F077FB08BD13
:1034E000010009D5F446404200F006F80122D20757
:1034F00011436047010000BF42221201D21E004268
:1035000007D002D4521E0018FCD5C10A400512058E
:1035100089187047F0B40E005E400125ED072E407B
:10352000B446AE0ADF184C18F4423BD2F74241D2FF
:10353000640D43D07F0D38D0E41BC902DB02294360
:103540002B43CF0ADB0A0600B61A9F4104D2641E41
:10355000B6197F41B6185F416812800D2418001813
:10356000844222DAE80C0021B6197F41B61A9F4145
:1035700002D2B6185F413F1C40414941F4D3241C9C
:1035800021DD2405B6197F41B61A9F4105D3374383
:10359000C60737430026012F70416141664631431B
:1035A000F0BC7047FCD1F74205D20020C143490569
:1035B0004908F3E704D00020C143F1E77F0DFAD0BA
:1035C00000206146ECE72442FAD1401C61410F0320
:1035D000F6D30020E2E730B4012100220368001D89
:1035E000002B0BD00468001D0C4202D04D466D1E0E
:1035F00064192260241D1B1FF0D0FAE730BC70470D
:10360000F4464A1805D200F00FF801D5801740089B
:10361000604700F009F80121C907884200D9080075
:10362000404260474A1812D2400DC90208430121A6
:10363000C9070843520D40210901521A521C06D4F1
:1036400052421F3201D4D0407047C017704700204B
:103650007047F0B50E005E400125ED072E40B446E0
:10366000AE0ADF184C18F44208D2F7420ED2640DAD
:1036700001D07F0D12D100206146F0BD05D1F74287
:1036800001D87F0D05D10020C143F0BDFBD1640DF1
:10369000F9D00020C143490549088FE0E419C90267
:1036A000DB0229432B43DB0A460DC00231438E4621
:1036B00030B487B295B27D432E0CADB2140C7C436E
:1036C000A419260C240425439CB27C43A419190C8C
:1036D0007943270CC919A4B20F043C43090C000C10
:1036E00097B247432E0CBE193543ADB2170C474372
:1036F000360CBF19A6B2BF193E043543240C3E0C4C
:1037000036199FB24743BF19BCB23E0C89191F0C32
:1037100047437F183E043443390C704680B297B259
:1037200047432E0CBE193543ADB2170C4743360C38
:10373000BF19A6B2BF193E043543240C3E0C3619FE
:103740009FB24743BF19BCB23E0C89191F0C4743B7
:103750007F183E043443390C77463F0C90B27843CF
:103760002E0C80190604ADB22E43050CA0B22D1804
:10377000120C7A435019020C80B2240CA4189AB28D
:103780007A43121914042043120C89181B0C7B4332
:10379000C91830BCEF0A394203D1B619404149413A
:1037A000641E6F12BF0DE41B0BDBFF19BC4211DA64
:1037B000240500274208AE41784161416646314305
:1037C000F0BD641C05D1401C6141CF0201D3490802
:1037D000F4E750E75DE7F0B40125ED070F005F4027
:1037E0004FD48B4200D1824205D9844610006246F4
:1037F0008C4619006346DF184C18640D7F0D3AD0D3
:10380000661C760537D0E61B352E34DCDB022B43F5
:10381000DB0A0C0DC9022943C912202E0DDB17004B
:10382000203E06D01F00F741F3405F400026012AEA
:103830007741C01871410DD217E01700F741F240EF
:103840005740F3415A40B340F3405A400026801895
:1038500059410AD3A21C52050FD0C207012F724151
:1038600017004008CB0718434908641C2405420888
:10387000AF4170416141F0BC7047641C21050020DC
:10388000F9E76B4010E06B40ABE7F742F3D1E94357
:10389000F1E72442EFD100200021ECE7F0B401254C
:1038A000ED070F005F40EED40C00871A9C4105D253
:1038B000C01BA141D219634169406B40AE0ADF18B9
:1038C0004C18F442E1D2640D7F0DE2D0E61B362E97
:1038D000D1DCDB022B43DB0AA4460C0DC9022943D1
:1038E000C90A012E28DC04D1D6075208DF073A4363
:1038F0005B08EF0A76429041994114D039423BD19E
:10390000B61940414941761C394204D1761C001851
:1039100049413942FAD0B9436746B74208D9A41B96
:1039200024052143A7E70042EAD13642E8D1A2E7C5
:10393000E40AE10700209EE7202E0BDD203E1F0059
:10394000F340F7415F40012A002257417E429841EF
:1039500091410BE01700F741F2405740F3415A40C4
:10396000B340F3405A407E42904199410A0303D24A
:10397000641EB619404149410027641E24054208CF
:10398000AE4178416141F0BC7047000030B50200A3
:10399000FF23002000252C00A4B289B28C420BD258
:1039A000A4B2155DDBB29D4204D2A4B2155D2B001A
:1039B00025002800641CEFE7C0B230BD10B502003E
:1039C000012000242300DBB2C9B28B4202D2504353
:1039D0005B1CF8E710BD70B50200002000252B002D
:1039E000DBB2C9B28B420FD200252C00E4B2082C06
:1039F00008DADBB2D55C25412E00F607F60F8019F8
:103A0000641CF3E75B1CEBE770BD000080B500228F
:103A10000121952000F03EF800F001F801BD80B5CD
:103A2000194800688021890301431748016017483D
:103A300000686421484300F097F81348006814496F
:103A400001401148016001BD0F49096880229203BD
:103A50000A430D490A600121017081784170704765
:103A600000B5017801290DD14178002907D1064917
:103A70000968074A0A4004490A6000210170417838
:103A8000491E417000BD000000F10FF8E04B00201E
:103A9000FFFFDFFF70B504000D0016006DB2002DB2
:103AA00015D13048E4B22100491104225143405855
:103AB0002C49E4B22200521104235A43895849691F
:103AC0000122E306DB0E9A409143416142E0254822
:103AD000E4B2210049110422514340582149E4B283
:103AE0002200521104235A43895849690122E306EE
:103AF000DB0E9A400A434261F6B2002E15D11948F6
:103B0000E4B22100491104225143405800680121C8
:103B1000E206D20E914088431249E4B222005211CB
:103B200004235A438958086014E00E48E4B2210087
:103B3000491104225143405801680120E206D20E87
:103B4000904008430749E4B22200521104235A432B
:103B500089580860802149002000C0B200F038F880
:103B600070BD000060EEFF1F10B50400002C16D0E1
:103B700080204004844203D329210F4800F094F8A8
:103B800000200E4908600E48046000200D490860BE
:103B900005200A49086009480068C003FBD510BD2C
:103BA00010B504002000441E002804D00648006818
:103BB000FFF7DAFFF6E710BD3C91000010E000E0EF
:103BC00014E000E018E000E0E04B00207047000047
:103BD00010B4324A126880239B000400E4B26409E6
:103BE000A34013432D4A13602D4AC0B203005B115A
:103BF00004246343D258A0320123C406E40EA34038
:103C00001360274AC0B203005B1104246343D258F7
:103C1000C0B2C306DB0E04246343D15010BC70470E
:103C200010B41E4A126880239B000400E4B26409A9
:103C3000A3401343194A1360194AC0B203005B1131
:103C400004246343D258A0320123C406E40EA340E7
:103C500013600A00134911400A001149C0B2030061
:103C60005B1104246343C958C0B2C306DB0E0424AD
:103C70006343CB58E021C90019401143084AC0B240
:103C800003005B1104246343D258C0B2C306DB0EA9
:103C900004246343D15010BC7047000038800440B6
:103CA000ACEEFF1FFFF8FFFF38B504000D002A003F
:103CB00021000E4800F022F8FEE738B504000D00A0
:103CC000210049B2012000F0EFF9200032BD704719
:103CD00010B5074804680748E4B209216143421857
:103CE000E4B22100044800F009F810BD8092000001
:103CF00004ED00E0A4ECFF1F009100000EB400B53D
:103D000082B003A900916B46020001210348784468
:103D10000A3000F07FFA029906B008477556000095
:103D20000121C206D20E9140B14A11607047F1B52F
:103D300084B00F00AF486946888169461020085654
:103D4000002803D0022825D012D335E0AA48006805
:103D50008021C9000143A8480160C02189000F20CB
:103D6000FFF736FFC02189000E20FFF731FF23E067
:103D7000A14800688021090101439F480160C021DA
:103D800089008120FFF724FFC02189008020FFF7F0
:103D90001FFF11E0984800688021490101439648BF
:103DA0000160C02189006220FFF712FFC021890055
:103DB0006320FFF70DFFFFE7694610200856002833
:103DC00000D0ABE09E4800689E4901409C480160DD
:103DD0009B4800689C49014399480160AE480078BF
:103DE000F3210140AC4801700020AC490870AC4898
:103DF0000068AC4948430221FFF718FB02900420F9
:103E00000400E4B2212C64DA0298E4B22100491CD7
:103E10007943FFF70EFB0500ADB28020800185429B
:103E200055DA0298ADB2E4B22100491C6943FFF7AC
:103E300000FB01900198C01B012803DB01983900A9
:103E4000461A02E00198C01B4642B6B2002E05D1C8
:103E500068460580E4B2684644803AE06846808956
:103E6000B6B2864206D26846868168460580E4B2CC
:103E7000684644806D1CADB280208001854226DA00
:103E80000298ADB2E4B22100491C6943FFF7D1FAB0
:103E900001900198C01B012803DB01983900461AE4
:103EA00002E00198C01B4642B6B2002E05D168461A
:103EB0000580E4B2684644800BE068468089B6B26B
:103EC000864204D268460580E4B268464480641C99
:103ED00097E782480078E02101400C00684600889E
:103EE00080B2000AC006C00E20437C4908706846B4
:103EF00000887B4908707B480078E02101400C0075
:103F000068464088C006C00E204376490870624863
:103F100000780C2101436048017066E07D486A46E4
:103F200010215156042251434058C178F3200840D3
:103F300078496B4610229A5604235A438958C87010
:103F4000002174486B4610229A5604235A43805825
:103F5000817071480068FA218900484302900298F4
:103F600010217943FFF765FA6946088068460088A2
:103F700080218901884202DB6848694608806548DB
:103F80006A46102151560422514340580078E021DE
:103F900001400C006846008880B2000AC106C90EC4
:103FA00021435C486B4610229A5604235A4380589A
:103FB00001706846018857486B4610229A560423C0
:103FC0005A438058417053486A4610215156042282
:103FD00051434058C1780C2008434E496B4610228B
:103FE0009A5604235A438958C87005B0F0BD0000A2
:103FF00000E100E0FFFF00003480044000B5020053
:1040000052B2002A08D146480078800615D54548A6
:1040100000780870012011E03E4852B20423534357
:10402000C0580079800608D53A4852B20423534359
:10403000C058C0790870012000E0002000BD0000D9
:1040400004800440FFFFFFF300000104F4B5070003
:104050000E000025002004003348844217D2711955
:10406000380040B2FFF7CAFF00280ED0002004003D
:104070007057002801D128000CE06D1C0098854283
:10408000EDD300207055280004E0641CE4E7002014
:1040900070552800F2BD000003A0064002A00640B3
:1040A000DC4B002040420F0000B540B2002806D192
:1040B0001B4A12781206FBD51A4A11700DE0154AF8
:1040C00040B204234343D25812791206F7D5114A5D
:1040D00040B204234343D258D17100BD00A0064032
:1040E00001A006400AA0064010B50400094864B2C9
:1040F000042161434058C07820210143054864B23F
:10410000042262438058C17020000C3040B2FFF797
:1041100007FE10BDCCEEFF1FE84B0020FF1F000084
:1041200004A0064007A0064010270000F1B582B0A9
:10413000002400273448006800F0E2FF334908807B
:104140000020324948803248006800F0D9FF2F49EA
:10415000088100202D49088253216A460820105604
:10416000FFF7A2FF54216A4608201056FFF79CFF74
:104170000026032E38DA0025042D33DA23480821DF
:104180007143401802216943405A694608701F482C
:1041900008217143401802216943405A80B2000A45
:1041A000694648706846017849B26A460820105648
:1041B000FFF77AFF6846417849B26A4608201056F0
:1041C000FFF772FF68460078241868464078241884
:1041D0003900684607784F403900684647784F40B5
:1041E0006D1CC9E7761CC4E7210049B26A46082065
:1041F0001056FFF759FF390049B26A460820105699
:10420000FFF752FFF7BD00006CECFF1F6C000020B1
:1042100070ECFF1FF1B5A2B014001F000491002044
:104220000D900AE00498229A90470490002800D14B
:10423000CBE20D98401C0D90641C2178002901D11F
:104240000D98C4E22529EDD100200790089009902F
:104250000A900B900C9002E0010001200843641CBE
:1042600021782029F8D023290ED02B2904D02D29FC
:1042700007D030290BD00DE001000220084380B2A6
:10428000EDE701000420F9E701000820F6E701004E
:104290001020F3E72A290FD1396839600A68091D0F
:1042A00039600F92002A05D551420F910100042078
:1042B000084380B2641C12E000210F910AE00F9ABB
:1042C000754B9A4205D093009A1852005118303914
:1042D0000F91641C21780A00303A0A2AEFD3217822
:1042E0002E2903D00021C9430E911EE0641C2178C1
:1042F0002A2907D1396839600A68091D39600E9288
:10430000641C12E000210E910AE00E9A624B9A4260
:1043100005D093009A185200511830390E91641C40
:1043200021780A00303A0A2AEFD302A908872578B3
:10433000290058487844FF305D3000F0FEFE002828
:1043400001D0641C00E0002502A83A30057002A8E4
:104350003A300078682804D12178682901D1622098
:1043600005E06C2807D120786C2804D1712002A9BF
:104370003A310870641C12A806902578641C280045
:1043800025382AD01C3800D1CFE0001F022800D8E1
:10439000CBE0133800D1EFE0093800D1C5E0801E32
:1043A00000D157E1401E00D12BE1401E022800D869
:1043B000BBE0001F00D124E1401F00D186E0401E79
:1043C00000D1D9E0401E26D0C01E0BD0801E00D1E7
:1043D000D2E0C01E00D1CFE046E1012007902520A9
:1043E00012A998E0386838600568001D38600595A6
:1043F0000E9E002E03D5280000F0A9FE09E0320031
:104400000021280000F0ABFE002801D0401B00E096
:104410003000089034E1386838600268001D386068
:104420000020C0430021104002AA03C212A8059038
:10443000069B3C2502A803C8002904D1002802D10C
:104440000E9A002A14D06D1E01950207120F303209
:10445000D2B23A2A00DB27325A5500090A07104324
:10446000090901D1002803D0059A5E19B242EAD3A6
:104470003C20401B0890591905910E9988420FDA8B
:10448000081A0A9002A8008F0449014002A8018777
:10449000F6E000BFE44E0000FFFFFF7FEFFF0000EB
:1044A000002900D4ECE002A93831097814220A402E
:1044B000102A00D0E4E00F99079A891A0A9A891AFB
:1044C0000D1A012D00DADBE00A95D9E002A83A3096
:1044D0000078622819D0682806D06A280CD06C2889
:1044E0001BD0712808D018E0386838600168001DBA
:1044F00038600D980880C3E0386838600268001D95
:1045000038600D98C11703C2BAE038683860016896
:10451000001D38600D980870B2E038683860016896
:10452000001D38600D980860AAE03A68D21D072087
:1045300082433A6003CA3A6002AA03C2002903D543
:10454000012007902D200CE002A8008F810703D5E1
:10455000012007902B2004E0C00704D5012007901C
:10456000202012A9087012A8079940180590290068
:1045700002A800F0FBF983E002A83A3002786C2A26
:104580000BD0712A01D06A2A07D13B68DB1D0720B6
:1045900083433B6003CB3B6005E0396839600868C2
:1045A000091D3960002102AB03C3682A03D102A8A8
:1045B00003C880B20BE0622A03D102A803C8C0B2CC
:1045C00005E0742A01D07A2A04D102A803C8002188
:1045D00002AA03C202A838300078000731D502A829
:1045E00003C8002901D100282BD020202843782897
:1045F00027D1302012A908700220079012A8457018
:104600001FE0390002A83A30007800F0E2F802AA70
:1046100003C202A8002904DA0798411C07912D2142
:104620000DE0008F810704D50798411C07912B21CD
:1046300005E0C00705D50798411C0791202112AA63
:10464000115412A8079940180590290002A800F0FB
:10465000F4F815E001200790386838600168001D03
:10466000386012A801700BE001200790252012A9E4
:104670000870002D04D00798411C079112A90D5411
:104680000F980799401A0A99401A0899401A0B99ED
:10469000401A0999401A0C99401A019002A8383022
:1046A0000078400711D4202069460870002509E0F1
:1046B00001236A4602A9229800F009FD002800D0D3
:1046C00083E06D1C01988542F2DB079E12AD0BE082
:1046D00029780498229A90470490002875D00D9864
:1046E000401C0D906D1C761E002EF1D130206946C5
:1046F00008700A9E002508E001236A4602A9229854
:1047000000F0E5FC002860D16D1CB542F4DB089E8A
:10471000059D0BE029780498229A90470490002880
:1047200053D00D98401C0D906D1C761E002EF1D1BB
:104730003020694608700B9E002508E001236A4678
:1047400002A9229800F0C3FC00283ED16D1CB5429E
:10475000F4DB099E0598089945180BE02978049820
:10476000229A9047049000282FD00D98401C0D905D
:104770006D1C761E002EF1D13020694608700C9E0B
:10478000002508E001236A4602A9229800F09FFC58
:1047900000281AD16D1CB542F4DB02A8383000782D
:1047A000400700D449E5202069460870002500E054
:1047B0006D1C0198854200DB3FE501236A4602A992
:1047C000229800F084FC0028F2D00020C04323B0DF
:1047D000F0BD0A00622822D0682819D06A2808D0C3
:1047E0006C2823D0712804D074281FD07A2808D0D0
:1047F0001CE01368DB1D07208343136003CB1360A9
:104800007047116811600868091D11600021704728
:10481000116811600868091D116000B20BE0116891
:1048200011600868091D116040B204E01168116050
:104830000868091D1160C1177047F3B583B000699E
:1048400000906846027C6F2A01D1082406E02021EE
:104850001143782901D00A2400E010243C25039854
:1048600003C806000F00642A01D0692A07D1002975
:1048700005DA00200021801BB94106000F00002F3F
:1048800012D1002E10D10398006B00280CD1082CF7
:104890003CD1039838300078000737D53B253020CD
:1048A00000993B31087031E06D1E019530003900F0
:1048B0002200E31700F05FFC3032D2B23A2A03DB69
:1048C0006846007C51381218009842553000390073
:1048D0002200E31700F04FFC06000F0001D1002E6C
:1048E00005D00398C068009949198842DCD3082C88
:1048F0000CD1039838300078000707D50098405D48
:10490000302803D06D1E3020009948553C20401BB4
:104910000399886100994919039AD1600399096B39
:10492000884209DA081A039908620398008F0E4931
:1049300001400398018715E0002913D50399383108
:10494000097814220A40102A0CD10399496B039A62
:104950005269891A039A126A891A0D1A012D01DB0C
:104960000398056205B0F0BDEFFF0000F3B591B00C
:1049700006AD03C802AA03C212A800782021014391
:10498000009161290BD01198006B002801D50620F9
:1049900003E004D1672902D101201199086311981D
:1049A00041684800400DAA4A904225D1080310D121
:1049B0001198006800280CD103201199886112A871
:1049C000007861381A2842D3234878448A3000900E
:1049D0000BE003201199886112A8007861381A2829
:1049E00031D31E4878447430009003220099119806
:1049F000C06800F0F5FBF1E1012817DA119800F02A
:104A00001DFC012812DB002700260098612832D106
:104A10001198C06830210170401C411C119AD1606E
:104A200012A9097861291FD178211EE011994968DE
:104A3000884A0A4088491143119A51608749461AA9
:104A40000027FF43E1E7064878441430CCE70548E7
:104A500078441030BBE700BF34490000284900000B
:104A60002049000024490000582101701198406934
:104A7000801C11994861002F03D10024684687806B
:104A8000A2E10098612800D09FE01198046B002CEF
:104A900001D5212400E0641C24B2601C0090119810
:104AA00003C804AA03C202A803C80022002300F01E
:104AB000E7FB04A803C802D280221206514002AAD2
:104AC00003C2301F6946888000270F7606AE761C29
:104AD00000E0F61D0098012830DB02A803C8002280
:104AE000002300F0E6FB29D21C2102A800F0FAFB0B
:104AF00002A803C8FEF784FD05000098C01F0090BF
:104B000001280ADB2800FEF7EBFC02000B0002A8DC
:104B100003C8FEF7C3FE02AA03C2F61D072004E085
:104B2000761E2907090F31702D11012D01DB401E62
:104B3000F6D5401ECDD4761E3770FAE706A8401C85
:104B4000311A06AD6D1CA14200DA0C0024B220001F
:104B500032D4884205DA06A909184978082900DB09
:104B60000F2706A9091801E0641E491E401E0A7895
:104B7000BA42F9D00F2F04D106A909184A78521C5D
:104B80004A70002806D506AD641C019800B2001DCD
:104B90006946888024B2601E0ED429180A78303203
:104BA000D2B23A2A03DB12AB1B783A3BD2180A7016
:104BB000401E491E0028F1D51198006B002800D432
:104BC00002E1601E11990863FEE002A803C80022FA
:104BD000002300F055FB06D202A803C8802212066B
:104BE000514002AA03C236B27D4870437D49FEF7A8
:104BF0001DFC694688800720019909B2421A0020ED
:104C00007949012A20DB049202AA30CA00260F004B
:104C10000498C00707D532003B0020002900FEF7AA
:104C200018FD04000D000498401004903000390075
:104C300032003B00FEF70DFD06000F00049800282F
:104C4000E6D102A830C028E054420026674F18E0A1
:104C5000FF070000FFFF0F800000E03FFE030000A1
:104C6000E00707D504A803C832003B00FEF7F1FCBB
:104C700006000F00641004A803C804AA0CCAFEF7BB
:104C8000E8FC04AA03C2002CEAD102A803C832003F
:104C90003B00FEF73FFC02AA03C20098662803D13E
:104CA000019800B20A3000E006201199096B08183B
:104CB0000490142801DB1320049030206946087604
:104CC00006AC641C049801283ADB02A803C8FEF76E
:104CD000A9FC05000834042628000A21FEF7A9FBD8
:104CE0000F0028000A21FEF7A4FB0500641E3037E0
:104CF00027700A21FEF79DFB0F0028000A21FEF70E
:104D000098FB0500641E30372770761EE4D1083406
:104D10000498083804900128D4DB02A803C8FEF7E1
:104D200081FCFEF7E7FB02000B0002A803C8FEF7B8
:104D3000B5FD00222E4BFEF78CFC02AA03C2C4E78D
:104D400006A8401C201A06AD6D1C6A4605E0401EF0
:104D5000019909B2491E91806D1C29783029F6D03D
:104D60000099662903D1019909B2491C04E065291B
:104D700001D1012100E00021119A126B541824B2D4
:104D8000A04200DA040024B221001DD4814204DADA
:104D9000685C352801DB392000E030206A1800E02B
:104DA000641E521E491E13788342F9D0392802D15D
:104DB000685C401C6854002906D56D1E641C01986F
:104DC00000B2401C69468880019800B2009023B26E
:104DD0002A0012A80178119800F00CF813B0F0BD69
:104DE00097750000A0860100000024400000F03FFD
:104DF00084D79741F3B589B015001C0000F019FB6A
:104E00000190406A0078694608720998076B012C86
:104E100001DA0124ADA50AA8017820200843109EDC
:104E2000662801D1761C18E0672800D09FE036B2D2
:104E30000321C9438E4200DA9DE0BE4200DB9AE0C6
:104E4000761C099838300078000702D4BC4200DA9A
:104E5000270036B2BF1B00D500270998C068009014
:104E60000998806900990918019136B2012E2CDA4F
:104E7000401C3021019A1170012F04DA0999383150
:104E80000978090704D56946097A009A1154401C2B
:104E9000099988617042874200DA7E4236B27042D8
:104EA00009994862BF19A74200DA3C0024B2099868
:104EB000C461220029000098099B9B69C01800F07A
:104EC0008FF9381B09998862E1E0B44220DA2200A8
:104ED0002900019800F084F9099989690919099A4A
:104EE0009161301B099A5062012F04DA0998383019
:104EF0000078000709D56846007A099AD2685054AC
:104F00000998C069401C0999C86109988762BEE088
:104F100032002900019800F063F90998806980192E
:104F2000A41B012F04DA099938310978090705D53E
:104F30006946097A099AD2681154401C0999886116
:104F400024B2A74200DA3C0024B22200A919099831
:104F5000C068099B9B69C01800F042F909988069F4
:104F6000001909998861381B099948628FE0612905
:104F700014D1702015E0BC4205DA0999383109785E
:104F8000090700D427007F1E00D500270AA8007853
:104F9000672801D1652004E0452002E0412902D1C3
:104FA00050200AA9087009988169481C099AD2689A
:104FB00000922A78009B5A54691C012F07DA099A3B
:104FC00038321278120702D4099988611BE06A46C8
:104FD000127A009B1A54401C099A9061012F12DB2F
:104FE000641E24B2A74200DA3C0024B22200009BD7
:104FF000181800F0F5F80998806900190999886176
:10500000381B099948620998C06809998969451847
:105010000AA8007828706D1C36B2300003D42B200B
:1050200028706D1C03E02D2129706D1C4642002460
:1050300005AF08E00A2203A800F016FA04983870B9
:10504000039E641C7F1C31B20129F3DA022C08DABA
:105050000AA8007820210143652902D13020287058
:105060006D1C002C09D1302028706D1C07E0641ED7
:1050700005A8005D303028706D1C012CF7DA099806
:10508000C068099989694018281A0999C86109985E
:105090003830007814210140102914D10998406952
:1050A0000999896940180999496A40180999C96993
:1050B00040180999896A40180999496B884202DAAF
:1050C000081A099908620BB0F0BD0000300079B5EC
:1050D0000E0014001D00002005E0F06A401CF06284
:1050E0000020641C6D1E002D08D02178B068009A45
:1050F0009047B0600028F0D10020C04376BD00008A
:105100000122D2070118090E7F3910D449421F31FC
:105110000FD4001805D2C0011043C84000D5D043B9
:105120007047C0011043C84005D44042704700207A
:1051300070470042F3D510007047C9B200E0401C30
:1051400002788A4202D0002AF9D10020704701007B
:1051500000E0491C0A78002AFBD1081A7047C9B23E
:1051600001E0401C521E002A03D003788B42F8D184
:10517000704700207047124224D0994228D970B558
:1051800000251B4202D00C00002109E0002401266A
:1051900049186441944200D3A41A7641F8D33100EF
:1051A000012601E0764109D2001864416D41A41A3C
:1051B0009D41F7D2A4185D41B619F5D33000220005
:1051C0002B0070BD1B42D8D108B500F05DF908BDB9
:1051D00001D19042D3D202000B0000210020704781
:1051E000124207D08B0706D00B78491C0370401C75
:1051F000521EF7D87047830706D00B78491C0370FE
:10520000401C521EF9D1704770B4103A03D378C9CC
:10521000103A78C0FBD2530701D318C918C001D582
:1052200008C908C0D20704D30B880380891C801CDE
:10523000002A01D50B78037070BC704730B40100B0
:105240004B68802212061A4001201B031B0B4B6087
:105250000BD10B68002B08D10DE00B686400DD0F4B
:1052600025434D605B000B60401E4C68E302F4D5A3
:1052700023031B0B4B604B681A434A6030BC7047DA
:1052800030B4012464054D00EC420BD85D00EC42C3
:1052900008D80C001C4364000443144304D2994210
:1052A00000D1904230BC7047FCD08B42FAD1824290
:1052B000F8E730B4012464054D00EC420BD85D00E2
:1052C000EC4208D80C001C4364000443144304D28D
:1052D0008B4200D1824230BC7047FCD09942FAD157
:1052E0009042F8E770B504000D0060684000400D82
:1052F0003F4EB04207D16068000302D12068002809
:1053000016D0022070BD002804D12000FFF796FFC0
:1053100001286BDA012D0DDB311A8D420AD360684A
:10532000002802D50020334901E00020310503C4E4
:10533000012070BD4142A942616806DA2E4A0A4046
:10534000281800051043606047E0802212061140D3
:1053500062681203120B80235B0313436360401ED9
:105360002D1800202A003532352A02D361602060D2
:1053700070BD00221E23DB439D4204DA20352268E3
:10538000636823606060684211D0521E9241D2432C
:10539000D20F20231B1A25689D402A432568C5404B
:1053A00066689E402E4326606368C3406360606801
:1053B000084360601148824206D280200006824283
:1053C0000ED12078C0070BD52068401C20602068D3
:1053D000002805D16068401C60600020C04370BD9B
:1053E00060688842F9D120680028F6D1002070BD9D
:1053F000FF0700000000F0FFFFFF0F8001000080AA
:1054000080B5124800F041F811A10160416081604F
:10541000C1600161416181610EA242628162C1622B
:10542000016341630CA282630DA2C2630164416403
:1054300001BD10B5054800F028F8040020680028D8
:1054400001D1FFF7DDFF200010BD0000584C002007
:10545000000000002E00000066616C736500000013
:1054600074727565000000007CB504000E00150024
:1054700030002900FDF7DAFF00904543701B0190D2
:10548000684603C803C476BD704770470000140027
:10549000FFFF00004E9EEE00000000000000000034
:1054A00000000000000000000000000000000000FC
:1054B00000000000000000000000000000000000EC
:1054C00000000000000053960000000000000000F3
:1054D000000000007F00000020030000000000002A
:1054E000D0070000010000000000000000000000E4
:1054F00000000000000000000000000000000000AC
:10550000000000000000000000000000000000009B
:10551000000000000000000000000000000000008B
:10552000000000000000000000000000000000007B
:10553000000000000000000000000000000000006B
:10554000000000000000000000000000000000005B
:10555000000000000000000000000000000000004B
:10556000000000000000000000000000000000003B
:10557000000000000000000000000000000000002B
:10558000000000000000000000000000000000001B
:10559000000000000000000000000000000000000B
:1055A00000000000000000000000000000000000FB
:1055B00000000000000000000000000000000000EB
:1055C00000000000000000000000000000000000DB
:1055D00000000000000000000000000000000000CB
:1055E00000000000000000000000000000000000BB
:1055F00000000000000000000000000000000000AB
:10560000000000000000000000000000000000009A
:10561000000000000000000000000000000000008A
:10562000000000000000000000000000000000007A
:10563000000000000000000000000000000000006A
:10564000000000000000000000000000000000005A
:10565000000000000000000000000000000000004A
:10566000000000000000000000000000000000003A
:10567000000000000000000000000000000000002A
:10568000000000000000000000000000000000001A
:10569000000000000000000000000000000000000A
:1056A00000000000000000000000000000000000FA
:1056B00000000000000000000000000000000000EA
:1056C00000000000000000000000000000000000DA
:1056D00000000000000000000000000000000000CA
:1056E00000000000000000000000000000000000BA
:1056F000000000000000000000000010101010105A
:1057000010001010000000000000002424240000FD
:10571000000000000000000000000024247E24247B
:10572000247E242400000000000000107C90907C67
:1057300012127C10000000000000000062640810DB
:10574000204C8C00000000000000000018242050B5
:105750008A844A3000000000000000101020000081
:1057600000000000000000000000081020202020A1
:105770002020201008000000000020100808080861
:105780000808081020000000000000000010543835
:105790003854100000000000000000000010107CD1
:1057A00010100000000000000000000000000000D9
:1057B0000000101020000000000000000000007C2D
:1057C00000000000000000000000000000000000D9
:1057D00000000010000000000000000000020408AB
:1057E00010204000000000000000003844444C54E9
:1057F0006444443800000000000000103010101015
:1058000010101038000000000000003844040408A4
:105810001020407C000000000000007C04081038CC
:10582000040404780000000000000008182848481C
:105830007C080808000000000000007C4040407820
:1058400004040478000000000000003C4040407860
:1058500044444438000000000000007C04040810A8
:10586000202020200000000000000038444444387C
:105870004444443800000000000000384444443CE4
:1058800004040438000000000000000000000010C4
:1058900000001000000000000000000000000000F8
:1058A000100010102000000000000000000408108C
:1058B0002010080400000000000000000000007C30
:1058C000007C000000000000000000000020100824
:1058D00004081020000000000000384444040810B0
:1058E0001000101000000000000000000038445CB0
:1058F000545C403C00000000000018244242427EFC
:10590000424242420000000000007C4242427C428F
:105910004242427C0000000000003C4240404040C7
:105920004040423C0000000000007C4242424242B3
:105930004242427C0000000000007E40404078402F
:105940004040407E0000000000007E404040784023
:10595000404040400000000000003C4240405E42A9
:105960004242423C000000000000424242427E426D
:105970004242424200000000000038101010101097
:10598000101010380000000000001C08080808086B
:1059900008084830000000000000424448506060A1
:1059A0005048444200000000000040404040404059
:1059B0004040407E0000000000008282C6C6AAAAC5
:1059C0009292828200000000000042626252524ABB
:1059D0004A4646420000000000003C424242424229
:1059E0004242423C0000000000007C424242427CB5
:1059F000404040400000000000003C424242424221
:105A000042424A3C0E00000000007C424242427C7E
:105A1000504844420000000000003C4240403C022C
:105A20000202423C0000000000007C101010101028
:105A3000101010100000000000004242424242429A
:105A40004242423C000000000000444444442828F4
:105A5000281010100000000000008282828254543E
:105A6000542828280000000000004242241818187A
:105A700024244242000000000000444444442828FA
:105A8000101010100000000000007E020204081038
:105A90002040407E00000000000038202020202010
:105AA00020202038000000000000000000004020FE
:105AB000100804020000000000001C040404040498
:105AC0000404041C00000000000000001028440032
:105AD00000000000000000000000000000000000C6
:105AE00000000000FF00000000000010100800008F
:105AF0000000000000000000000000000078043CEE
:105B00004444443A0000000000004040405C6242CF
:105B10004242625C0000000000000000003C424085
:105B20004040423C0000000000000202023A4642AF
:105B30004242463A0000000000000000003C4242A1
:105B40007E40423C0000000000000E1010103C108F
:105B5000101010100000000000000000003E424243
:105B600042423E02023C000000004040405C624273
:105B700042424242000000000000000800080808FD
:105B800008080808000000000000000400040404E5
:105B900004040404443800000000404040424448EB
:105BA0005068444200000000000010101010101057
:105BB00010101010000000000000000000EC929295
:105BC000929292920000000000000000007C42428D
:105BD000424242420000000000000000003C4242FD
:105BE0004242423C0000000000000000005C6242B3
:105BF0004242625C4040000000000000003A464221
:105C00004242463A0202000000000000005C62408E
:105C1000404040400000000000000000003C4240C6
:105C20003C02423C000000000000002020782020C0
:105C30002020221C00000000000000000042424220
:105C40004242423E0000000000000000004242428A
:105C500042422418000000000000000000828282FE
:105C60009292AA440000000000000000004242247A
:105C7000182442420000000000000000004242429E
:105C800042423E02023C000000000000007E02048E
:105C90001820407E00000000000008101010204076
:105CA000201010100800000000101010101010102C
:105CB0001010101010101000000020101010080418
:105CC0000810101020000000000000000000225406
:105CD000880000000000000000000000000000003C
:105CE00000000000000000000000A0420000A042F0
:105CF0001900FF01010100005000000050000000E9
:105D000001000000983A000068C5FFFF204E000027
:105D1000E0B1FFFFFFFFFFFFFFFF000000B0034007
:105D2000524553000000000000524553000000009F
:105D300000004E4D490000000000004861726446BA
:105D400061756C74524553000000000000524553C9
:105D50000000000000005245530000000000005207
:105D600045530000000000005245530000000000B1
:105D7000005245530000000000005245530000004F
:105D8000000000535643616C6C0000005245530004
:105D90000000000000524553000000000000506564
:105DA0006E6453560000005379735469636B0000AE
:105DB000444D41300000000000444D4131000000DE
:105DC0000000444D41320000000000444D413300CA
:105DD00000000000444D41340000000000524553D3
:105DE0000000000000004654464100000000004C46
:105DF00056445F4C565700004C4C570000000000C2
:105E000000493243300000000000493243310000B5
:105E10000000005350493000000000005350493149
:105E20000000000000554152543000000000554170
:105E3000525431000000005541525432000000001D
:105E4000414443300000000000434D50300000004A
:105E5000000054504D30000000000054504D3100FF
:105E60000000000054504D32000000000052544326
:105E70000000000000005254435F5365630000506F
:105E80004954000000000000493253300000000077
