:10000000F85F002011040000AD350000AD350000A0
:10001000AD350000AD350000AD350000AD35000058
:10002000AD350000AD350000AD350000AD35000048
:10003000AD350000AD350000AD350000AD35000038
:10004000AD350000AD350000AD350000AD35000028
:10040000FFFFFFFFFFFFFFFFFFFFFFFFFEFFFFFFFD
:1004100062B608F055FAFEE700B583B00020A349A4
:1004200008700020A249087000F024FBA148007960
:10043000412803DA0120A049087002E000209E490B
:10044000087000F087FC012802D104209B49087045
:1004500000F0B2FC00209A4908709A4800214056EA
:10046000002804D0974800214056072848D19348D7
:100470000078042810D1482193480068B422120162
:10048000801800F049F991488949097804225143BC
:10049000405800F04EFC33E0012089490870692182
:1004A000894800688A4A801800F036F98048007848
:1004B000401D8049C97888421ADA7D480078401D7D
:1004C0007C490979884213DA79480078401D7949D6
:1004D000497988420CDA77480179C91C7A48006862
:1004E000744A127928235A438018783000F014F99E
:1004F00076486F49097804225143405800F019FCAE
:1005000074480078012800D0C8E073480190F820B2
:10051000000200906D48664909780422514343580F
:100520006E4A6421FA2002F02AFA6B480190F82002
:100530000002009065485E4909784018F021890062
:10054000435C674A7821FA2002F019FA6248019068
:10055000F820000200905D48554909784018C321F1
:100560000901435C5FA28C21FA2002F008FA5A4884
:100570000190F8200002009054484D490978042267
:10058000514340189621C900435857A2A021FA2090
:1005900002F0F5F950480190F820000200904B4815
:1005A000434909784018D2210901435C4FA2B42184
:1005B000FA2002F0E4F948480190F8200002009087
:1005C00042483B49097804225143401887210901D8
:1005D000435847A2C821FA2002F0D1F93948002136
:1005E000405600280BD002281DD012D304282ED04C
:1005F00023D306283FD034D3072846D04EE03648D0
:100600000090F8231B023BA2DC21FA2002F052F9F1
:1006100044E031480090F8231B0237A2DC21FA2085
:1006200002F048F93AE02C480090F8231B0233A26C
:10063000DC21FA2002F03EF930E027480090F82350
:100640001B022FA2DC21FA2002F034F926E0224816
:100650000090F8231B022BA2DC21FA2002F02AF9D9
:100660001CE01D480090F8231B0227A2DC21FA2081
:1006700002F020F912E018480090F8231B0223A290
:10068000DC21FA2002F016F908E013480090F82364
:100690001B021FA2DC21FA2002F00CF900201D49E8
:1006A000087001200549087007BD0000424C002079
:1006B000D4FEFF1F18E4FF1F454C00204E4C0020C5
:1006C000514C002020E4FF1FD84B0020C4F0FF1F36
:1006D0006810000077ECFF1FFFFF00004C8D00004A
:1006E000548D00004C0000004C5F5600520000008A
:1006F000525F56004E0000004C7000005270000027
:100700004C690000526900004C6F0000526F0000FD
:1007100057000000544C0020F1B58CB00F00A02011
:1007200003900A200A909B20400009900025002495
:100730000020089000200790642004900020694663
:1007400008720026C1480078002805D1BF4800780B
:10075000401CBE49087010E0BD4804217943405850
:10076000BC4949784018022102F012FB0390B848B6
:10077000C019F0218900405C049000200600282E5A
:1007800014DA002008280FDA0C99895D072203008B
:10079000D21A11410B00DB07DB0FAF4A082171436E
:1007A00009185354401CEDE7761CE8E70398040051
:1007B000A9480019C078012809D1A74800198078F4
:1007C000012804D1A44800194078012804D00998D0
:1007D000844201DA641CEBE70998844209DA069442
:1007E00001209B49C919D222120188540120079087
:1007F00007E00020079000209549C919D222120174
:1008000088540398050094484019C01E00780128B8
:100810000BD191484019801E0078012805D18E48DF
:100820004019401E0078012804D00A98A84201DA35
:100830006D1EE8E70A98A84209DA05950120844967
:10084000C919C322120188540120089007E0002032
:10085000089000207E49C919C322120188540398C8
:10086000854202D00398844213D1002007900020D3
:100870007749C919D222120188540020089000201B
:100880007349C919C32212018854012069460872AC
:1008900002E00020694608726846007A012818D1F3
:1008A000D22F16DA03986A4904227A438918C8605D
:1008B000049808306649C919684A88543900C91C27
:1008C0006748006828227A4380187830FFF724FFB1
:1008D00051E008980799014300294CD00898012855
:1008E0000DD0079801280AD106980499401A039060
:1008F0000698049902225143401A05903BE008985B
:1009000001280DD1079801280AD0059804994018AC
:1009100003900598049902225143401806902AE05A
:100920000898012827D10798012824D1069805990D
:10093000401A02F087FA00228023DB0502F09CFABD
:1009400002F010FB04900498642802DA64200490FA
:1009500004E004988D2801DB8C200490069805990A
:10096000401802F06FFA00228023DB0502F084FABF
:1009700002F0F8FA03900398232802DA2320039068
:1009800007E003988F214900884202DBFF201E30D8
:100990000390039802F056FA0090019138006938EC
:1009A0000021484302F04EFA00222E4B02F003FBD6
:1009B00000222D4B02F060FA00222C4B02F0BDFB0E
:1009C000009A019B02F0B9FB02F0CCFA2049042204
:1009D0007A43885026480078B84202DA3800244921
:1009E00008700598A0214900884203DBFF204030B1
:1009F000059004E00598002801D500200590059891
:100A0000134904227A4389189622D2008850069806
:100A1000A0214900884203DBFF204030069004E01B
:100A20000698002801D5002006900698084904225F
:100A30007A43891887221201885004980449C919F9
:100A4000F0229200885400200DB0F0BD464C0020EA
:100A5000C4F0FF1F18E4FF1F84EFFF1FC303000053
:100A6000D84B00200000F03F008040C00000104044
:100A7000D4FEFF1FFFB5C64804786846C4494978CC
:100A800081816846C249897841810020694648725F
:100A9000002069460872002069468873EF2006002E
:100AA000A4B22000082102F073F9C2490968F6B225
:100AB000282272438918085C019007200090A4B294
:100AC0002000082102F064F90098411A01980841B9
:100AD000C00737D5A4B22000082102F059F9B54962
:100AE0000968F6B228227243891808182838007855
:100AF000019007200090A4B22000082102F048F9DC
:100B00000098411A01980841C0071BD5A4B22000E3
:100B1000082102F03DF9A7490968F6B2282272437C
:100B20008918081850380078019007200090A4B266
:100B30002000082102F02CF90098411A0198084180
:100B4000C00704D4F6B2022E01DB761EA8E7F6B287
:100B5000EF2E02D00120694648728D48C670EF2002
:100B6000070068468089082102F012F99149096856
:100B7000FFB228227A438918085C01900720009070
:100B800068468089082102F003F90098411A01980B
:100B90000841C00737D568468089082102F0F8F877
:100BA00084490968FFB228227A438918081828382E
:100BB000007801900720009068468089082102F0A3
:100BC000E7F80098411A01980841C0071BD568460C
:100BD0008089082102F0DCF876490968FFB22822F2
:100BE0007A4389180818503800780190072000903F
:100BF00068468089082102F0CBF80098411A0198D4
:100C00000841C00704D4FFB2022F01DB7F1EA8E712
:100C1000FFB2EF2F02D00120694688735C4807714C
:100C2000EF20050068464089082102F0B1F86149CB
:100C30000968EDB228226A438918085C01900720F0
:100C4000009068464089082102F0A2F80098411AF5
:100C500001980841C00737D568464089082102F04D
:100C600097F854490968EDB228226A438918081890
:100C700028380078019007200090684640890821B4
:100C800002F086F80098411A01980841C0071BD568
:100C900068464089082102F07BF846490968EDB2B0
:100CA00028226A43891808185038007801900720D4
:100CB000009068464089082102F06AF80098411ABD
:100CC00001980841C00704D4EDB2022D01DB6D1E6E
:100CD000A8E7EDB2EF2D02D00120694608722C483A
:100CE00045716846407A002803D1032051490870B5
:100CF0001EE06846007A002803D102204D490870A2
:100D000016E0F6B2FFB2BE4207D2FFB2EDB2AF427A
:100D100003D20220474908700AE0FFB2F6B2B74298
:100D200006D2EDB2FFB2BD4202D2032041490870A3
:100D3000FFBD00B5010040480078012801D1002026
:100D400007E001203C4A1070A020401A3B4A106086
:100D5000002000BD38B5002500200400E4B2052CB9
:100D60000FDA282113480068E4B228226243801871
:100D7000334A801802F0E1FA062800DA6D1C641C80
:100D8000ECE7EDB2042D01DB012000E0002032BDD4
:100D900018E4FF1F00B52B4800682B49884204D295
:100DA0002A4800682849884201D3012000E0002039
:100DB00000BD0000D84B002080B500F008F800F01E
:100DC0004BF800F07FFB00F0E3FB002002BD10B504
:100DD00000241F4800214056002811D100F0E8FCF3
:100DE0000400E4B2002C0BD0FFF7D4FF012807D198
:100DF0001748047017480068202188431549086087
:100E0000134800214056052804D0114800214056BF
:100E100006280DD1FFF7BEFF012809D107200C4994
:100E200008700120B1490870B1480088B1490880B4
:100E3000002010BD4E4C0020424C002058000020E5
:100E40006810000058FFFF1FB90B00005CFFFF1F78
:100E500020E4FF1F80F00FF8FEB5002069460872FD
:100E6000C94800214056012806D0C74800214056F5
:100E7000022801D0012038E102A800F057F905004E
:100E80000020C04385422ED19B480078401C9A49DF
:100E90000870BD48C06AFFF74CFF974800780A28E1
:100EA00000DA21E1B8480021405601280AD1032088
:100EB000B5490870012091490870B348808FB24944
:100EC000488711E1B04800214056022800D00BE1CC
:100ED0000420AD490870012088490870AA48808F15
:100EE000A949488700E1A84800214056012875D14A
:100EF000834840781E30A84235DA7F480078401C8D
:100F00007D4908706921A54800687E4A8018FFF76E
:100F100003FC7D480078401D7949C97888421ADA77
:100F200079480078401D76490979884213DA764875
:100F30000078401D7249497988420CDA704801797D
:100F4000C91C964800686E4A127928235A438018B3
:100F50007830FFF7E1FB6D486B4909780422514373
:100F60004058040034E0002063490870280001F074
:100F700069FF00900191664828186946097A693925
:100F8000484301F05FFF0022624B02F014F80600B4
:100F90000F006846007A60490978401A01F052FF54
:100FA00002000B003000390001F066FF02000B0068
:100FB0000098019902F024F900228023DB0501F05A
:100FC0005BFF0022554B02F0B8F801F0CBFF0400A4
:100FD0006D48C4622000FFF7ACFE7BE06A48002148
:100FE0004056022876D1464840781E38854235DA88
:100FF00041480078401C40490870692167480068F2
:10100000404A8018FFF788FB3F480078401D3C4964
:10101000C97888421ADA3C480078401D3849097975
:10102000884213DA38480078401D354949798842AA
:101030000CDA33480179C91C58480068304A1279E3
:1010400028235A4380187830FFF766FB2F482E4933
:101050000978042251434058040036E00020264914
:101060000870280001F0EEFE009001916846007AB9
:101070006938684301F0E6FE0022264B01F09BFF31
:1010800006000F006846007A23490978401A01F0EB
:10109000D9FE02000B003000390001F0EDFE020025
:1010A0000B000098019902F0ABF800221C4B02F0F3
:1010B00044F800228023DB0501F0DEFE0022194BFC
:1010C00002F03BF801F04EFF04002F48C4622000FC
:1010D000FFF72FFE14480078012805D11F2269214F
:1010E000200080B201F022FE0020FEBD60E4FF1F60
:1010F00064E4FF1F62E4FF1F50E4FF1F58E4FF1F7A
:1011000018E4FF1F68100000D4FEFF1FC4F0FF1F8B
:10111000C1FEFFFF0000F03F4BE4FF1F0000244032
:1011200000F07340000024C077ECFF1FF1B5E6B07B
:101130000A2004909B2040000390002400250020FA
:101140000290002001900020694648700020694606
:1011500008700026002700F0BDFC05900A48002119
:101160004056022805D10598C9280FDB0020C0434E
:101170009DE1054800214056012807D105987828AF
:1011800004DA0020C04392E120E4FF1F00200600A3
:10119000F6B2142E00DBA2E0004801E0D84B00209C
:1011A0000068F6B203217143C24A127889182822D6
:1011B00051434018079000200700FFB2282F19DA8A
:1011C0000021C9B2082913DABB4BFFB208207843CB
:1011D000C9B2401884460798FFB2C05D0722521A70
:1011E00010410200D207D20F60461A54491CE8E7AA
:1011F0007F1CE2E7B14800214056022832D1059811
:101200000500AD484019C078012809D1AA48401905
:101210008078012804D1A84840194078012804D0DA
:101220000398854201DA6D1CEBE70398854206DAE4
:10123000280008A9F6B20222724388524DE0A04865
:1012400040780A30854206DA039808A9F6B20222ED
:101250007243885241E0039808A9F6B20222724311
:1012600088523AE0954800214056012835D19448EB
:101270004078040090480019C01E007801280BD166
:101280008D480019801E0078012805D18A48001970
:10129000401E0078012804D00498A04201DA641EA0
:1012A000E8E70498A04206DA200012A9F6B202226A
:1012B0007243885211E0824840780A38A04206DA28
:1012C000049812A9F6B202227243885205E00498EB
:1012D00012A9F6B2022272438852761C58E7002007
:1012E0000600F6B2132E2EDA74480021405602286A
:1012F00011D108A8F6B2022171434018408808A90C
:10130000F6B202227243895A401A40A9F6B2042268
:101310007243885015E0694800214056012810D1D9
:1013200012A8F6B2022171434018408812A9F6B201
:1013300002227243895A401A53A9F6B20422724318
:101340008850761CCDE700200600F6B2122E00DB96
:10135000A1E05A480021405602284BD140A8F6B2DD
:10136000042171434018406840A9F6B20422724338
:101370008958401A1CA9F6B20422724388501CA84E
:10138000F6B2042171434058012805DB1CA8F6B2CF
:1013900004217143405805E01CA8F6B204217143B2
:1013A00041584842032802DA0198401C01901CA8C9
:1013B000F6B20421714340581D21C943884268DABE
:1013C000F6B2F01E0199884263DA0198022860DBC8
:1013D00001206946087008A8F6B202217143405AFC
:1013E0000690F6B203207043324909784018669996
:1013F000087050E0314800214056012849D153A8D7
:10140000F6B2042171434018406853A9F6B2042291
:1014100072438958401A2EA9F6B2042272438850AA
:101420002EA8F6B2042171434058012805DB2EA8EE
:10143000F6B204217143405805E02EA8F6B204210B
:10144000714341584842032802DA0298401C029036
:101450002EA8F6B20421714340581F2819DBF6B2BA
:10146000F01E0299884214DA0298022811DB01204A
:101470006946487012A8F6B202217143405A06909C
:10148000F6B2032070430B4909784018669908703A
:1014900001E0761C59E768460078002806D16846C6
:1014A0004078002802D10020C04300E0069867B0D1
:1014B000F0BD00004AE4FF1F84EFFF1F20E4FF1F80
:1014C00018E4FF1F80B5AD4800214056032806D020
:1014D000AA4800214056042801D0012057E0692184
:1014E000A7480068A74A8018FFF716F9A6480078B1
:1014F000401DA649C97888421ADAA3480078401DE1
:10150000A2490979884213DA9F480078401D9F4913
:10151000497988420CDA9D480179C91C98480068CD
:101520009A4A127928235A4380187830FFF7F4F842
:10153000974895490978042251434058FFF7F9FB31
:1015400094480078012821D100F0DEFC012805D163
:1015500091480078401C9049087002E000208E49B4
:1015600008708D480078032810DB8448002140561D
:10157000032803D105208149087007E07F48002136
:101580004056042802D106207C490870002002BD84
:10159000F0B585B0794800214056062806D0774836
:1015A00000214056052801D00120E4E002A903A84B
:1015B00000F002FB050071480021405606286BD15F
:1015C000280001F03FFC0090019102980399401A15
:1015D000684301F037FC0022704B01F0ECFC060080
:1015E0000F000298693801F02DFC02000B0030005A
:1015F000390001F041FC02000B000098019901F054
:10160000FFFD0022664B01F098FD00228023DB05E0
:1016100001F032FC01F0A6FC04005C4840781E306A
:10162000A04231DA2000FFF784FB5E4800780A28E8
:1016300002DB00205B4908705048406B5A49594A08
:10164000127802235A43895A401A4C494863504839
:101650004D4909780422514340585349514A127860
:1016600002235A4388524548406B4F494D4A1278ED
:1016700002235A43895A4018404948634948007830
:10168000401C4849087075E03C48406B0A2101F055
:101690007FFBFFF74EFB6DE03848002140560528E0
:1016A00068D1280001F0CEFB009001913F48281836
:1016B0000299039A891A484301F0C4FB0022374B70
:1016C00001F079FC06000F000298693801F0BAFBBE
:1016D00002000B003000390001F0CEFB02000B00CD
:1016E0000098019901F08CFD00228023DB0501F0B8
:1016F000C3FB01F037FC0400244840781E388442C4
:1017000031DA2000FFF715FB264800780A2802DBB3
:101710000020244908701948406B2349214A127857
:1017200002235A43895A401A1449486318481649F3
:1017300009780422514340581B491A4A127802235F
:101740005A4388520D48406B1749164A12780223B3
:101750005A43895A40180949486312480078401C86
:101760001049087006E00548406B0A2101F010FBA3
:10177000FFF7DFFA002005B0F0BD000020E4FF1FF6
:10178000D84B002068100000D4FEFF1F18E4FF1F94
:10179000C4F0FF1F5EE4FF1F5FE4FF1F0000F03F87
:1017A00000F07340474C0020D8FEFF1FC1FEFFFF32
:1017B000F0B5A8B00A2004909B20400003900021BF
:1017C0000022002002900020019000206B46D8707B
:1017D00000206B46987000206B46587000206B46C6
:1017E00018700023002400200300DBB20A2B00DB6A
:1017F0009BE0B4480068DBB203255D43B24E367807
:10180000AD19282675434019059000200400E4B264
:10181000282C19DA0025EDB2082D13DAAB4FE4B20B
:1018200008206043EDB2401984460598E4B2005D9B
:101830000726761B30410600F607F60F60463E5439
:101840006D1CE8E7641CE2E7A148407802009F486D
:101850008018C078012809D19C4880188078012818
:1018600004D19A4880184078012804D00398824215
:1018700001DA521CEBE70398824207DA1000CC4DE4
:10188000DBB202265E43AD19E88213E0904840784F
:101890000A30824207DA0398C54DDBB202265E4366
:1018A000AD19E88206E00398C14DDBB202265E4323
:1018B000AD19E88286484078010084484018C01E6F
:1018C000007801280BD181484018801E007801283B
:1018D00005D17E484018401E0078012804D00498A5
:1018E000884201DA491EE8E70498884207DA0800CE
:1018F000AF4DDBB202265E43AD19688013E0744839
:1019000040780A38884207DA0498A94DDBB20226EB
:101910005E43AD19688006E00498A54DDBB202264F
:101920005E43AD1968805B1C5FE700200300DBB2FB
:10193000092B25DA9E48DBB202255D4340198088D9
:101940009B4DDBB202265E43AD196D88401B1FAD77
:10195000DBB204265E43A8519548DBB202255D4305
:101960004019008B924DDBB202265E43AD19ED8A21
:10197000401B16ADDBB204265E43A8515B1CD6E7C4
:1019800000200300DBB2082B79DA1FA8DBB20425A4
:101990005D43401940681FADDBB204265E43AD597C
:1019A000401B0EADDBB204265E43A85116A8DBB285
:1019B00004255D434019406816ADDBB204265E4342
:1019C000AD59401B06ADDBB204265E43A8510EA8FC
:1019D000DBB204255D434059012805DB0EA8DBB2CC
:1019E00004255D43405905E00EA8DBB204255D43A4
:1019F00045596842032802DA0298401C029006A862
:101A0000DBB204255D434059012805DB06A8DBB2A3
:101A100004255D43405905E006A8DBB204255D437B
:101A200045596842032802DA0198401C01900EA82B
:101A3000DBB204255D4340591D25ED43A8420ADA77
:101A4000DBB2981E029DA84205DA0298022802DB4A
:101A500001206D46687006A8DBB204255D4340593D
:101A60001F280ADBDBB2981E019DA84205DA019807
:101A7000022802DB01206D4628705B1C82E7029879
:101A8000072802DB01206D46E8700198072802DB79
:101A900001206D46A8706846C078002805D06846C9
:101AA0000078012801D102200AE0684680780028E9
:101AB00005D068464078012801D1012000E00020CF
:101AC00028B0F0BDD84B00204AE4FF1F84EFFF1F71
:101AD00018E4FF1FF0B585B000200500EDB2142D0D
:101AE0005DDAB4200400EDB20A20684341300821D9
:101AF00001F04EF92F490968E4B22822624389189F
:101B00000E5C0727EDB20A2068434130082101F03E
:101B10003FF9781A0641F00737D5EDB20A2068433D
:101B20004130082101F034F922490968E4B2282241
:101B3000624389180818283806780727EDB20A206A
:101B400068434130082101F023F9781A0641F00773
:101B50001BD5EDB20A2068434130082101F018F985
:101B600014490968E4B228226243891808185038D9
:101B700006780727EDB20A2068434130082101F0BA
:101B800007F9781A0641F00704D4E4B20A2C01DB05
:101B9000641EA8E76846EDB244556D1C9EE714210B
:101BA000684601F0A5FB0A214843413005B0F0BD6D
:101BB00020E4FF1FD84B0020F3B5B8B00025A020CB
:101BC0000190CF4800214056062800D0B8E0002000
:101BD0000600F6B2192E5DDADC200400F6B204200D
:101BE0007043082101F0D4F8C6490968E4B22822FC
:101BF00062438918085C00900727F6B204207043FE
:101C0000082101F0C5F8791A00980841C00737D5B6
:101C1000F6B204207043082101F0BAF8B949096806
:101C2000E4B2282262438918081828380078009006
:101C30000727F6B204207043082101F0A9F8791AA9
:101C400000980841C0071BD5F6B204207043082154
:101C500001F09EF8AB490968E4B228226243891872
:101C600008185038007800900727F6B20420704317
:101C7000082101F08DF8791A00980841C00704D4B2
:101C8000E4B20A2C01DB641EA8E702A8F6B2845570
:101C9000761C9EE700200600F6B2182E0EDA02A887
:101CA000F6B28019407802A9F6B2895D401A20A9DF
:101CB000F6B2042272438850761CEDE7002006003D
:101CC000F6B2172E37DA20A8F6B204217143401875
:101CD000406820A9F6B2042272438958401A09A923
:101CE000F6B204227243885009A8F6B20421714367
:101CF0004058012805DB09A8F6B204217143405879
:101D000005E009A8F6B2042171434158484203286E
:101D100000DA6D1C09A8F6B20421714340580E2167
:101D2000C943884205DAF6B2B01EA84201DA022D94
:101D300001DA761CC4E7F6B2042070430190D2E0C9
:101D40006F4800214056052800D0CCE00020060056
:101D5000F6B2192E6FDADC200400FF204030F6B214
:101D600004217143401A082101F012F865490968FD
:101D7000E4B2282262438918085C00900727FF20FC
:101D80004030F6B204217143401A082101F000F8F6
:101D9000791A00980841C00743D5FF204030F6B2B9
:101DA00004217143401A082100F0F2FF55490968E7
:101DB000E4B2282262438918081828380078009075
:101DC0000727FF204030F6B204217143401A082152
:101DD00000F0DEFF791A00980841C00721D5FF20E6
:101DE0004030F6B204217143401A082100F0D0FFC0
:101DF00044490968E4B22822624389180818503817
:101E0000007800900727FF204030F6B2042171438C
:101E1000401A082100F0BCFF791A00980841C00759
:101E200004D4E4B20A2C01DB641E96E702A8F6B2E1
:101E30008455761C8CE700200600F6B2182E0EDAC8
:101E400002A8F6B28019407802A9F6B2895D401A5C
:101E500020A9F6B2042272438850761CEDE70020D8
:101E60000600F6B2172E37DA20A8F6B20421714325
:101E70004018406820A9F6B2042272438958401ADB
:101E800009A9F6B204227243885009A8F6B20421C7
:101E900071434058012805DB09A8F6B204217143BB
:101EA000405805E009A8F6B2042171434158484260
:101EB000032800DA6D1C09A8F6B2042171434058CA
:101EC0000E21C943884205DAF6B2B01EA84201DAF3
:101ED000022D01DA761CC4E7FF204030F6B204215F
:101EE0007143401A01906846007A3899086002A848
:101EF000F6B2805D3999086001983AB0F0BD0000F3
:101F000020E4FF1FD84B0020F0B5ACB00025002026
:101F100069460871CC4800214056042800D0BEE034
:101F200000200600F6B2142E63DAB4200400F6B2E4
:101F3000042070431E30082100F02AFFC3490968BD
:101F4000E4B2282262438918085C00900727F6B2A1
:101F5000042070431E30082100F01AFF791A0098FF
:101F60000841C0073BD5F6B2042070431E3008215B
:101F700000F00EFFB5490968E4B2282262438918CF
:101F800008182838007800900727F6B2042070431C
:101F90001E30082100F0FCFE791A00980841C007A5
:101FA0001DD5F6B2042070431E30082100F0F0FE6B
:101FB000A6490968E4B228226243891808185038F3
:101FC000007800900727F6B2042070431E300821E5
:101FD00000F0DEFE791A00980841C00704D4E4B28C
:101FE0000A2C01DB641EA2E702A8F6B28455761C17
:101FF00098E700200600F6B2132E0EDA02A8F6B219
:102000008019407802A9F6B2895D401A19A9F6B282
:10201000042272438850761CEDE700200600F6B2D9
:10202000122E00DB0BE119A8F6B20421714340180F
:10203000406819A9F6B2042272438958401A07A9C8
:10204000F6B204227243885007A8F6B20421714305
:102050004058012805DB07A8F6B204217143405817
:1020600005E007A8F6B2042171434158484203280D
:1020700000DA6D1C07A8F6B20421714340580E2106
:10208000C943884209DAF6B2B01EA84205DA022D29
:1020900003DB012069460871D1E0761CBFE76A487E
:1020A00000214056032800D0C9E000200600F6B207
:1020B000142E6FDAB4200400FF202230F6B204217F
:1020C0007143401A082100F063FE60490968E4B2D8
:1020D000282262438918085C00900727FF202230DD
:1020E000F6B204217143401A082100F051FE791A1A
:1020F00000980841C00743D5FF202230F6B20421E2
:102100007143401A082100F043FE50490968E4B2C7
:102110002822624389180818283800780090072779
:10212000FF202230F6B204217143401A082100F04A
:102130002FFE791A00980841C00721D5FF202230D0
:10214000F6B204217143401A082100F021FE3F49F4
:102150000968E4B2282262438918081850380078C8
:1021600000900727FF202230F6B204217143401A65
:10217000082100F00DFE791A00980841C00704D428
:10218000E4B20A2C01DB641E96E702A8F6B284557D
:10219000761C8CE700200600F6B2132E0EDA02A899
:1021A000F6B28019407802A9F6B2895D401A19A9E1
:1021B000F6B2042272438850761CEDE70020060038
:1021C000F6B2122E3BDA19A8F6B204217143401878
:1021D000406819A9F6B2042272438958401A07A927
:1021E000F6B204227243885007A8F6B20421714364
:1021F0004058012805DB07A8F6B204217143405876
:1022000005E007A8F6B2042171434158484203286B
:1022100000DA6D1C07A8F6B20421714340580E2164
:10222000C943884209DAF6B2B01EA84205DA022D87
:1022300003DB01206946087101E0761CC0E76846AF
:1022400000792CB0F0BD000020E4FF1FD84B002027
:1022500080B501220121862001F08AF801220121A6
:10226000852001F085F801220121842001F080F809
:1022700001220121832001F07BF801BD10B504008B
:10228000FFF7E6FF8F480068202188438D490860EA
:102290008D4800681421484301F0D4F8894800684B
:1022A0002021014387480160874800681421484382
:1022B00001F0C8F8CB2000F009F9392000F0D8F976
:1022C0002C2000F0D5F9002000F0D2F9342000F0E5
:1022D000CFF9022000F0CCF9CF2000F0F7F8002071
:1022E00000F0C6F9C12000F0C3F9302000F0C0F9B9
:1022F000E82000F0EBF8852000F0BAF9002000F0AB
:10230000B7F9782000F0B4F9EA2000F0DFF80020F7
:1023100000F0AEF9002000F0ABF9ED2000F0D6F8A7
:10232000642000F0A5F9032000F0A2F9122000F0CB
:102330009FF9812000F09CF9F72000F0C7F82020D9
:1023400000F096F9C02000F0C1F8232000F090F9C9
:10235000C12000F0BBF8102000F08AF9C52000F081
:10236000B5F83E2000F084F9282000F081F9C7205C
:1023700000F0ACF8862000F07BF9362000F0A6F8DB
:10238000E4B2002C03D0E82000F072F902E028202B
:1023900000F06EF93A2000F099F8552000F068F945
:1023A000B12000F093F8002000F062F9182000F04E
:1023B0005FF9B62000F08AF8082000F059F9822071
:1023C00000F056F9272000F053F9F22000F07EF8D3
:1023D000002000F04DF9262000F078F8012000F0F0
:1023E00047F9E02000F072F80F2000F041F93120A9
:1023F00000F03EF92B2000F03BF90C2000F038F9FA
:102400000E2000F035F9082000F032F94E2000F0DF
:102410002FF9F12000F02CF9372000F029F90720DE
:1024200000F026F9102000F023F9032000F020F935
:102430000E2000F01DF9092000F01AF9002000F02C
:1024400017F9E12000F042F8002000F011F90E2009
:1024500000F00EF9142000F00BF9032000F008F949
:10246000112000F005F9072000F002F9312000F0FA
:10247000FFF8C12000F0FCF8482000F0F9F808202F
:1024800000F0F6F80F2000F0F3F80C2000F0F0F860
:10249000312000F0EDF8362000F0EAF80F2000F0CF
:1024A000E7F8112000F012F80748006814214843AB
:1024B00000F0C8FF292000F009F82C2000F006F8F1
:1024C00010BD000000F10FF8E04B0020D149096871
:1024D00040229143CF4A1160CE49096810229143AE
:1024E0000200D2B2D209D2B212010A43C9490A602B
:1024F000C849096808229143C64A1160C54909685C
:1025000008220A43C3490A60C2490968102291435C
:102510000200D2B29209D2B2120110231A400A4329
:10252000BC490A60BB49096808229143B94A116055
:10253000B849096808220A43B6490A60B5490968DA
:10254000102291430200D2B25209D2B212011023DA
:102550001A400A43AF490A60AE490968082291430C
:10256000AC4A1160AB49096808220A43A9490A60CC
:10257000A8490968102291430200D2B21209D2B2CE
:10258000120110231A400A43A2490A60A1490968AE
:10259000082291439F4A11609E49096808220A4314
:1025A0009C490A609B490968102291430200D2B2FB
:1025B000D208D2B2120110231A400A4395490A6088
:1025C0009449096808229143924A11609149096827
:1025D00008220A438F490A608E49096810229143F4
:1025E0000200D2B29208D2B2120110231A400A435A
:1025F00088490A608749096808229143854A116021
:102600008449096808220A4382490A6081490968A5
:10261000102291430200D2B25208D2B2120110230A
:102620001A400A437B490A607A49096808229143A3
:10263000784A11607749096808220A4375490A6097
:102640007449096810229143C0B2020110231A4054
:102650000A4370490A606F490968082291436D4A2C
:1026600011606C49096808220A436A490A60704788
:102670006849096840220A4366490A606549096851
:10268000102291430200D2B2D209D2B212010A43FF
:1026900060490A605F490968082291435D4A1160F8
:1026A0005C49096808220A435A490A60594909687D
:1026B000102291430200D2B29209D2B21201102329
:1026C0001A400A4353490A60524909680822914353
:1026D000504A11604F49096808220A434D490A606F
:1026E0004C490968102291430200D2B25209D2B279
:1026F000120110231A400A4346490A6045490968F5
:1027000008229143434A11604249096808220A435A
:1027100040490A603F490968102291430200D2B241
:102720001209D2B2120110231A400A4339490A6031
:102730003849096808229143364A116035490968C9
:1027400008220A4333490A6032490968102291433A
:102750000200D2B2D208D2B2120110231A400A43A8
:102760002C490A602B49096808229143294A1160C3
:102770002849096808220A4326490A602549096848
:10278000102291430200D2B29208D2B21201102359
:102790001A400A431F490A601E49096808229143EA
:1027A0001C4A11601B49096808220A4319490A603A
:1027B00018490968102291430200D2B25208D2B2DD
:1027C000120110231A400A4312490A60114909688C
:1027D000082291430F4A11600E49096808220A43F2
:1027E0000C490A600B49096810229143C0B20201EA
:1027F00010231A400A4307490A600649096808225B
:102800009143044A11600349096808220A430149B7
:102810000A60704700F10FF810B504002000000AAC
:10282000C0B2FFF725FF2000C0B2FFF721FF10BDA7
:10283000F8B504000F0015001E002A20FFF746FE21
:102840002000000AC0B2FFF713FF2000C0B2FFF75C
:102850000FFF3800000AC0B2FFF70AFF3800C0B20D
:10286000FFF706FF2B20FFF731FE2800000AC0B259
:10287000FFF7FEFE2800C0B2FFF7FAFE3000000AA4
:10288000C0B2FFF7F5FE3000C0B2FFF7F1FE2C201A
:10289000FFF71CFEF1BDF2B582B0050017001E0067
:1028A000089C009433003A00D2B20299280000F04C
:1028B0001DF8F7BDFBB507001400089E0025207821
:1028C000002812D0207880280CDA0096029B22780B
:1028D0000199EDB2082068433818FFF7DCFF641C4B
:1028E0006D1CECE7A41CAD1CE9E7F7BDFFB581B09A
:1028F0000A9F029B0F33029A0199C91D0198FFF7A5
:1029000097FF00200500102D19D20E486946097B5B
:10291000102251434919465C00200400082C0CD2B7
:10292000F6B2300603D50498FFF776FF02E03800D0
:10293000FFF772FF7600641CF0E76D1CE3E705B05B
:10294000F0BD00006CE4FF1F70B50600EF2300220D
:10295000FF2140310020FFF76BFF00200500F02D24
:102960000CD200200400A0204000844204D2300099
:10297000FFF752FF641CF6E76D1CF0E770BDF7B57A
:102980008AB01E0000250024002004000C98E4B248
:10299000005D002807D00C98E4B2005D01A9E4B204
:1029A0000855641CF2E7202001A9E4B20855641C14
:1029B000002E07D52D2001A9E4B20855641C002083
:1029C000C04346430A2E0ADA3000303001A9E4B28F
:1029D0000855002001A9E4B209194870B2E00A2E96
:1029E00018DB642E16DA30000A2100F0D1F93030FD
:1029F00001A9E4B2085530000A2100F0C9F93031CC
:102A000001A8E4B200194170002001A9E4B209193B
:102A1000887097E0FA208000864222DA3000642134
:102A200000F0B6F9303001A9E4B2085530000A21AF
:102A300000F0AEF90A2100F0ABF9303101A8E4B2A0
:102A40000019417030000A2100F0A2F9303101A8CC
:102A5000E4B200198170002001A9E4B20919C8701C
:102A600070E05A4886422FDA3000FA21890000F0DF
:102A70008FF9303001A9E4B208553000642100F02C
:102A800087F90A2100F084F9303101A8E4B2001975
:102A9000417030000A2100F07BF90A2100F078F93A
:102AA000303101A8E4B20019817030000A2100F031
:102AB0006FF9303101A8E4B20019C170002001A9FA
:102AC000E4B2091908713DE0414886423ADA300023
:102AD0003E4900F05DF9303001A9E4B208553000FC
:102AE000FA21890000F054F90A2100F051F930313F
:102AF00001A8E4B2001941703000642100F048F9E7
:102B00000A2100F045F9303101A8E4B200198170C2
:102B100030000A2100F03CF90A2100F039F9303187
:102B200001A8E4B20019C17030000A2100F030F9A8
:102B3000303101A8E4B200190171002001A9E4B20A
:102B40000919487100277FB2072F0FDA13980090F8
:102B5000139B20220B998C460A997FB20820784358
:102B600008186146FFF797FE7F1CECE70020040081
:102B700001A8E4B2005D002824D001A8E4B2005D01
:102B8000802810DA13980090129B01A8E4B2025D2D
:102B90000B990A98EDB208276F43C019FFF77BFE27
:102BA000641C6D1C01E0A41CAD1C13980090139BC9
:102BB00020220B990A98EDB208276F43C019FFF73E
:102BC0006AFED5E70DB0F0BD000000001027000040
:102BD000A0860100F8B50700EF230022FF21403155
:102BE0000020FFF725FE00200600F02E1CDA002052
:102BF0000500282D16DA00200400082C10DA282001
:102C000070433818405D80212141084203D00020E4
:102C1000FFF702FE02E00548FFF7FEFD641CECE74B
:102C20006D1CE6E7761CE0E7F1BD0000FFFF000049
:102C3000FFB587B0002400256846808C6946898BE3
:102C4000401A01906846008D6946098C401A009030
:102C50006846808B07006846008C060001980128B2
:102C600002DB012004900BE00198002802D1002033
:102C7000049005E00020C043049001984142019176
:102C80000098012802DB012003900BE00098002847
:102C900002D10020039005E00020C043039000987B
:102CA0004142009100980199884202DA019802900D
:102CB00001E0009802900020694688820298401C3A
:102CC0006946898A88421DDB310089B2380080B2AA
:102CD00000F01AF80198241800982D180298A042C4
:102CE00003DA0298241A04983F180298A84203DADB
:102CF00002982D1A0398361868466946898A491C35
:102D00008182DBE70BB0F0BD38B504000D00ADB239
:102D10002B00ADB22A00A4B22100A4B22000FFF71C
:102D200087FDF8200002FFF777FD31BDF8B50600FA
:102D30000D001700ADB22B005B1CADB26A1EB6B21F
:102D40003100491CB6B2701EFFF772FD002004006E
:102D5000E4B2092C05DABFB23800FFF75DFD641C50
:102D6000F6E7F1BDF446002804D4494200F013F818
:102D7000404260474042002905D45FD000F00BF884
:102D8000404249426047494200F005F849426047E5
:102D900003460B43E6D40022030A8B420BD20309FD
:102DA0008B4219D243088B422ED2411A00D20146DF
:102DB000524110467047FF2209023FD012068B4253
:102DC00005D3121209028B4201D312120902030920
:102DD0008B4219D300E0090AC3098B4201D3CB010E
:102DE000C01A524183098B4201D38B01C01A524150
:102DF00043098B4201D34B01C01A524103098B4254
:102E000001D30B01C01A5241C3088B4201D3CB003E
:102E1000C01A524183088B4201D38B00C01A524121
:102E200043088B4201D34B00C01A5241884200D361
:102E3000401A5241CFD201461046704708B500F003
:102E400033FB08BD010009D5F446404200F006F806
:102E50000122D20711436047010000BF4222120144
:102E6000D21E004207D002D4521E0018FCD5C10A5F
:102E70004005120589187047F0B40E005E40012528
:102E8000ED072E40B446AE0ADF184C18F4423BD290
:102E9000F74241D2640D43D07F0D38D0E41BC90204
:102EA000DB0229432B43CF0ADB0A0600B61A9F41F7
:102EB00004D2641EB6197F41B6185F416812800DB6
:102EC00024180018844222DAE80C0021B6197F4148
:102ED000B61A9F4102D2B6185F413F1C404149419A
:102EE000F4D3241C21DD2405B6197F41B61A9F4175
:102EF00005D33743C60737430026012F7041614190
:102F000066463143F0BC7047FCD1F74205D2002041
:102F1000C14349054908F3E704D00020C143F1E764
:102F20007F0DFAD000206146ECE72442FAD1401C24
:102F300061410F03F6D30020E2E730B40121002203
:102F40000368001D002B0BD00468001D0C4202D04A
:102F50004D466D1E64192260241D1B1FF0D0FAE738
:102F600030BC7047F4464A1805D200F00FF801D57E
:102F700080174008604700F009F80121C90788421E
:102F800000D90800404260474A1812D2400DC902D9
:102F900008430121C9070843520D40210901521A73
:102FA000521C06D452421F3201D4D0407047C01781
:102FB000704700207047F0B50E005E400125ED0718
:102FC0002E40B446AE0ADF184C18F44208D2F7423D
:102FD0000ED2640D01D07F0D12D100206146F0BDEC
:102FE00005D1F74201D87F0D05D10020C143F0BDC6
:102FF000FBD1640DF9D00020C143490549088FE099
:10300000E419C902DB0229432B43DB0A460DC00247
:1030100031438E4630B487B295B27D432E0CADB2AB
:10302000140C7C43A419260C240425439CB27C4335
:10303000A419190C7943270CC919A4B20F043C43F5
:10304000090C000C97B247432E0CBE193543ADB2A4
:10305000170C4743360CBF19A6B2BF193E043543BF
:10306000240C3E0C36199FB24743BF19BCB23E0C2C
:1030700089191F0C47437F183E043443390C7046AE
:1030800080B297B247432E0CBE193543ADB2170C30
:103090004743360CBF19A6B2BF193E043543240C72
:1030A0003E0C36199FB24743BF19BCB23E0C89197A
:1030B0001F0C47437F183E043443390C77463F0CBE
:1030C00090B278432E0C80190604ADB22E43050C45
:1030D000A0B22D18120C7A435019020C80B2240CA5
:1030E000A4189AB27A43121914042043120C8918B6
:1030F0001B0C7B43C91830BCEF0A394203D1B61907
:1031000040414941641E6F12BF0DE41B0BDBFF19E8
:10311000BC4211DA240500274208AE4178416141E2
:1031200066463143F0BD641C05D1401C6141CF02AD
:1031300001D34908F4E750E75DE7F0B40125ED0756
:103140000F005F404FD48B4200D1824205D98446A4
:10315000100062468C4619006346DF184C18640D57
:103160007F0D3AD0661C760537D0E61B352E34DC51
:10317000DB022B43DB0A0C0DC9022943C912202EA6
:103180000DDB1700203E06D01F00F741F3405F40E3
:103190000026012A7741C01871410DD217E01700AF
:1031A000F741F2405740F3415A40B340F3405A4090
:1031B0000026801859410AD3A21C52050FD0C2071D
:1031C000012F724117004008CB0718434908641CBF
:1031D00024054208AF4170416141F0BC7047641C56
:1031E00021050020F9E76B4010E06B40ABE7F742A8
:1031F000F3D1E943F1E72442EFD100200021ECE7CD
:10320000F0B40125ED070F005F40EED40C00871AE3
:103210009C4105D2C01BA141D219634169406B405A
:10322000AE0ADF184C18F442E1D2640D7F0DE2D0F3
:10323000E61B362ED1DCDB022B43DB0AA4460C0D49
:10324000C9022943C90A012E28DC04D1D607520835
:10325000DF073A435B08EF0A76429041994114D068
:1032600039423BD1B61940414941761C394204D11B
:10327000761C001849413942FAD0B9436746B74233
:1032800008D9A41B24052143A7E70042EAD136420E
:10329000E8D1A2E7E40AE10700209EE7202E0BDD3B
:1032A000203E1F00F340F7415F40012A00225741B2
:1032B0007E42984191410BE01700F741F2405740A0
:1032C000F3415A40B340F3405A407E429041994105
:1032D0000A0303D2641EB619404149410027641E07
:1032E00024054208AE4178416141F0BC70470000BE
:1032F00030B50200FF23002000252C00A4B289B2C3
:103300008C420BD2A4B2155DDBB29D4204D2A4B2B2
:10331000155D2B0025002800641CEFE7C0B230BD0E
:1033200010B50200012000242300DBB2C9B28B4299
:1033300002D250435B1CF8E710BD70B502000020BC
:1033400000252B00DBB2C9B28B420FD200252C0026
:10335000E4B2082C08DADBB2D55C25412E00F60772
:10336000F60F8019641CF3E75B1CEBE770BD0000EF
:1033700070B504000D0016006DB2002D15D1304857
:10338000E4B2210049110422514340582C49E4B2CF
:103390002200521104235A43895849690122E30645
:1033A000DB0E9A409143416142E02548E4B221009E
:1033B00049110422514340582149E4B222005211DC
:1033C00004235A43895849690122E306DB0E9A40D7
:1033D0000A434261F6B2002E15D11948E4B2210029
:1033E000491104225143405800680121E206D20EDF
:1033F000914088431249E4B22200521104235A43F7
:103400008958086014E00E48E4B2210049110422F2
:103410005143405801680120E206D20E9040084313
:103420000749E4B22200521104235A438958086024
:10343000802149002000C0B200F038F870BD0000C3
:1034400060EEFF1F10B50400002C16D08020400451
:10345000844203D329210F4800F094F800200E493C
:1034600008600E48046000200D49086005200A49E4
:10347000086009480068C003FBD510BD10B5040002
:103480002000441E002804D006480068FFF7DAFF39
:10349000F6E710BDA08A000010E000E014E000E0B4
:1034A00018E000E0E04B00207047000010B4324A02
:1034B000126880239B000400E4B26409A340134314
:1034C0002D4A13602D4AC0B203005B1104246343EC
:1034D000D258A0320123C406E40EA3401360274A49
:1034E000C0B203005B1104246343D258C0B2C306C8
:1034F000DB0E04246343D15010BC704710B41E4A45
:10350000126880239B000400E4B26409A3401343C3
:10351000194A1360194AC0B203005B1104246343C3
:10352000D258A0320123C406E40EA34013600A005F
:10353000134911400A001149C0B203005B11042471
:103540006343C958C0B2C306DB0E04246343CB589F
:10355000E021C90019401143084AC0B203005B11C1
:1035600004246343D258C0B2C306DB0E0424634371
:10357000D15010BC7047000038800440ACEEFF1FF3
:10358000FFF8FFFF38B504000D002A0021000E48A7
:1035900000F022F8FEE738B504000D00210049B222
:1035A000012000F0EFF9200032BD704710B5074848
:1035B00004680748E4B2092161434218E4B22100DB
:1035C000044800F009F810BDE48B000004ED00E0B1
:1035D000A4ECFF1F648A00000EB400B582B003A9FA
:1035E00000916B4602000121034878440A3000F044
:1035F0007FFA029906B00847FD5600000121C20675
:10360000D20E9140B14A11607047F1B584B00F00FD
:10361000AF4869468881694610200856002803D0C3
:10362000022825D012D335E0AA4800688021C900BD
:103630000143A8480160C02189000F20FFF736FF31
:10364000C02189000E20FFF731FF23E0A148006868
:103650008021090101439F480160C0218900812028
:10366000FFF724FFC02189008020FFF71FFF11E032
:103670009848006880214901014396480160C021B3
:1036800089006220FFF712FFC02189006320FFF745
:103690000DFFFFE7694610200856002800D0ABE078
:1036A0009E4800689E4901409C4801609B48006814
:1036B0009C49014399480160AE480078F3210140DC
:1036C000AC4801700020AC490870AC480068AC49B7
:1036D00048430221FFF75CFB029004200400E4B29F
:1036E000212C64DA0298E4B22100491C7943FFF7E7
:1036F00052FB0500ADB280208001854255DA029868
:10370000ADB2E4B22100491C6943FFF744FB0190CC
:103710000198C01B012803DB01983900461A02E01A
:103720000198C01B4642B6B2002E05D168460580FE
:10373000E4B2684644803AE068468089B6B2864280
:1037400006D26846868168460580E4B268464480B1
:103750006D1CADB280208001854226DA0298ADB2A0
:10376000E4B22100491C6943FFF715FB0190019861
:10377000C01B012803DB01983900461A02E00198BA
:10378000C01B4642B6B2002E05D168460580E4B2A1
:10379000684644800BE068468089B6B2864204D20F
:1037A00068460580E4B268464480641C97E7824816
:1037B0000078E02101400C006846008880B2000AD1
:1037C000C006C00E20437C490870684600887B49CB
:1037D00008707B480078E02101400C006846408872
:1037E000C006C00E204376490870624800780C215C
:1037F00001436048017066E07D486A4610215156D9
:10380000042251434058C178F320084078496B4660
:1038100010229A5604235A438958C87000217448CC
:103820006B4610229A5604235A438058817071487F
:103830000068FA21890048430290029810217943D8
:10384000FFF7A9FA69460880684600888021890147
:10385000884202DB68486946088065486A4610214C
:1038600051560422514340580078E02101400C0099
:103870006846008880B2000AC106C90E21435C4830
:103880006B4610229A5604235A43805801706846AA
:10389000018857486B4610229A5604235A43805891
:1038A000417053486A4610215156042251434058F2
:1038B000C1780C2008434E496B4610229A560423C7
:1038C0005A438958C87005B0F0BD000000E100E01F
:1038D000FFFF00003480044000B5020052B2002A0D
:1038E00008D146480078800615D54548007808700C
:1038F000012011E03E4852B204235343C0580079DE
:10390000800608D53A4852B204235343C058C079C0
:103910000870012000E0002000BD00000480044089
:10392000FFFFFFF300000104F4B507000E000025BF
:10393000002004003348844217D27119380040B285
:10394000FFF7CAFF00280ED000200400705700289F
:1039500001D128000CE06D1C00988542EDD30020B9
:103960007055280004E0641CE4E70020705528002E
:10397000F2BD000003A0064002A00640DC4B002080
:1039800040420F0000B540B2002806D11B4A127811
:103990001206FBD51A4A11700DE0154A40B20423F5
:1039A0004343D25812791206F7D5114A40B2042384
:1039B0004343D258D17100BD00A0064001A006408B
:1039C0000AA0064010B50400094864B2042161430E
:1039D0004058C07820210143054864B20422624364
:1039E0008058C17020000C3040B2FFF707FE10BDB8
:1039F000CCEEFF1FE84B0020FF1F000004A0064094
:103A000007A0064010270000F1B582B0002400276F
:103A10003448006800F0E2FF334908800020324952
:103A200048803248006800F0D9FF2F490881002003
:103A30002D49088253216A4608201056FFF7A2FF3D
:103A400054216A4608201056FFF79CFF0026032EDB
:103A500038DA0025042D33DA234808217143401851
:103A600002216943405A694608701F480821714382
:103A7000401802216943405A80B2000A69464870E2
:103A80006846017849B26A4608201056FFF77AFF67
:103A90006846417849B26A4608201056FFF772FF1F
:103AA000684600782418684640782418390068462B
:103AB00007784F403900684647784F406D1CC9E78A
:103AC000761CC4E7210049B26A4608201056FFF769
:103AD00059FF390049B26A4608201056FFF752FFD5
:103AE000F7BD00006CECFF1F6C00002070ECFF1FA6
:103AF000F1B5A2B014001F00049100200D900AE05F
:103B00000498229A90470490002800D1CBE20D98A7
:103B1000401C0D90641C2178002901D10D98C4E24D
:103B20002529EDD100200790089009900A900B906C
:103B30000C9002E0010001200843641C2178202938
:103B4000F8D023290ED02B2904D02D2907D03029D5
:103B50000BD00DE001000220084380B2EDE7010028
:103B60000420F9E701000820F6E701001020F3E740
:103B70002A290FD1396839600A68091D39600F9206
:103B8000002A05D551420F9101000420084380B25C
:103B9000641C12E000210F910AE00F9A754B9A42C3
:103BA00005D093009A185200511830390F91641CB7
:103BB00021780A00303A0A2AEFD321782E2903D03F
:103BC0000021C9430E911EE0641C21782A2907D1E7
:103BD000396839600A68091D39600E92641C12E068
:103BE00000210E910AE00E9A624B9A4205D0930092
:103BF0009A185200511830390E91641C21780A002D
:103C0000303A0A2AEFD302A90887257829005848B4
:103C10007844FF305D3000F0FEFE002801D0641CC7
:103C200000E0002502A83A30057002A83A3000787A
:103C3000682804D12178682901D1622005E06C2828
:103C400007D120786C2804D1712002A93A3108707C
:103C5000641C12A806902578641C280025382AD0F8
:103C60001C3800D1CFE0001F022800D8CBE0133869
:103C700000D1EFE0093800D1C5E0801E00D157E146
:103C8000401E00D12BE1401E022800D8BBE0001FDF
:103C900000D124E1401F00D186E0401E00D1D9E0D0
:103CA000401E26D0C01E0BD0801E00D1D2E0C01E08
:103CB00000D1CFE046E101200790252012A998E02D
:103CC000386838600568001D386005950E9E002E26
:103CD00003D5280000F0A9FE09E0320000212800E9
:103CE00000F0ABFE002801D0401B00E0300008903F
:103CF00034E1386838600268001D38600020C04335
:103D00000021104002AA03C212A80590069B3C2580
:103D100002A803C8002904D1002802D10E9A002A63
:103D200014D06D1E01950207120F3032D2B23A2A1A
:103D300000DB27325A5500090A071043090901D14F
:103D4000002803D0059A5E19B242EAD33C20401BFA
:103D50000890591905910E9988420FDA081A0A90AD
:103D600002A8008F0449014002A80187F6E000BFC5
:103D70006C4F0000FFFFFF7FEFFF0000002900D421
:103D8000ECE002A93831097814220A40102A00D048
:103D9000E4E00F99079A891A0A9A891A0D1A012DD7
:103DA00000DADBE00A95D9E002A83A300078622810
:103DB00019D0682806D06A280CD06C281BD071282E
:103DC00008D018E0386838600168001D38600D9828
:103DD0000880C3E0386838600268001D38600D98BC
:103DE000C11703C2BAE0386838600168001D386046
:103DF0000D980870B2E0386838600168001D3860BE
:103E00000D980860AAE03A68D21D072082433A6004
:103E100003CA3A6002AA03C2002903D50120079011
:103E20002D200CE002A8008F810703D50120079008
:103E30002B2004E0C00704D501200790202012A900
:103E4000087012A8079940180590290002A800F0F0
:103E5000FBF983E002A83A3002786C2A0BD0712A71
:103E600001D06A2A07D13B68DB1D072083433B60F2
:103E700003CB3B6005E0396839600868091D39608B
:103E8000002102AB03C3682A03D102A803C880B291
:103E90000BE0622A03D102A803C8C0B205E0742A6D
:103EA00001D07A2A04D102A803C8002102AA03C2C1
:103EB00002A838300078000731D502A803C80029CD
:103EC00001D100282BD020202843782827D130206A
:103ED00012A908700220079012A845701FE039004F
:103EE00002A83A30007800F0E2F802AA03C202A861
:103EF000002904DA0798411C07912D210DE0008F5D
:103F0000810704D50798411C07912B2105E0C007C4
:103F100005D50798411C0791202112AA115412A817
:103F2000079940180590290002A800F0F4F815E060
:103F300001200790386838600168001D386012A8B9
:103F400001700BE001200790252012A90870002DB8
:103F500004D00798411C079112A90D540F98079996
:103F6000401A0A99401A0899401A0B99401A09995F
:103F7000401A0C99401A019002A838300078400786
:103F800011D4202069460870002509E001236A4603
:103F900002A9229800F009FD002800D083E06D1CE2
:103FA00001988542F2DB079E12AD0BE02978049858
:103FB000229A90470490002875D00D98401C0D90CF
:103FC0006D1C761E002EF1D13020694608700A9EC5
:103FD000002508E001236A4602A9229800F0E5FCCA
:103FE000002860D16D1CB542F4DB089E059D0BE0F6
:103FF00029780498229A90470490002853D00D986D
:10400000401C0D906D1C761E002EF1D130206946AB
:1040100008700B9E002508E001236A4602A9229839
:1040200000F0C3FC00283ED16D1CB542F4DB099EB4
:104030000598089945180BE029780498229A90472A
:10404000049000282FD00D98401C0D906D1C761EFA
:10405000002EF1D13020694608700C9E002508E042
:1040600001236A4602A9229800F09FFC00281AD179
:104070006D1CB542F4DB02A838300078400700D44C
:1040800049E5202069460870002500E06D1C019874
:10409000854200DB3FE501236A4602A9229800F031
:1040A00084FC0028F2D00020C04323B0F0BD0A00F9
:1040B000622822D0682819D06A2808D06C2823D01A
:1040C000712804D074281FD07A2808D01CE0136807
:1040D000DB1D07208343136003CB13607047116817
:1040E00011600868091D1160002170471168116096
:1040F0000868091D116000B20BE0116811600868C2
:10410000091D116040B204E0116811600868091DC2
:104110001160C1177047F3B583B00069009068461D
:10412000027C6F2A01D1082406E02021114378295E
:1041300001D00A2400E010243C25039803C806009F
:104140000F00642A01D0692A07D1002905DA00206E
:104150000021801BB94106000F00002F12D1002E54
:1041600010D10398006B00280CD1082C3CD1039887
:1041700038300078000737D53B25302000993B3197
:10418000087031E06D1E0195300039002200E31700
:1041900000F05FFC3032D2B23A2A03DB6846007C82
:1041A0005138121800984255300039002200E317A8
:1041B00000F04FFC06000F0001D1002E05D003983F
:1041C000C068009949198842DCD3082C0CD10398A7
:1041D00038300078000707D50098405D302803D0BC
:1041E0006D1E3020009948553C20401B0399886182
:1041F00000994919039AD1600399096B884209DA39
:10420000081A039908620398008F0E490140039829
:10421000018715E0002913D5039938310978142254
:104220000A40102A0CD10399496B039A5269891AE2
:10423000039A126A891A0D1A012D01DB039805628F
:1042400005B0F0BDEFFF0000F3B591B006AD03C8B7
:1042500002AA03C212A8007820210143009161291B
:104260000BD01198006B002801D5062003E004D183
:10427000672902D10120119908631198416848000B
:10428000400DAA4A904225D1080310D11198006828
:1042900000280CD103201199886112A80078613898
:1042A0001A2842D3234878448A3000900BE0032038
:1042B0001199886112A8007861381A2831D31E48F4
:1042C000784474300090032200991198C06800F07F
:1042D000F5FBF1E1012817DA119800F01DFC012827
:1042E00012DB002700260098612832D11198C0689F
:1042F00030210170401C411C119AD16012A909782B
:1043000061291FD178211EE011994968884A0A4025
:1043100088491143119A51608749461A0027FF4383
:10432000E1E7064878441430CCE70548784410307B
:10433000BBE700BFBC490000B0490000A84900002D
:10434000AC4900005821017011984069801C1199F6
:104350004861002F03D1002468468780A2E10098BD
:10436000612800D09FE01198046B002C01D5212416
:1043700000E0641C24B2601C0090119803C804AAD9
:1043800003C202A803C80022002300F0E7FB04A830
:1043900003C802D280221206514002AA03C2301F73
:1043A0006946888000270F7606AE761C00E0F61D71
:1043B0000098012830DB02A803C80022002300F087
:1043C000E6FB29D21C2102A800F0FAFB02A803C8D0
:1043D000FEF7C8FD05000098C01F009001280ADB09
:1043E0002800FEF72FFD02000B0002A803C8FEF70D
:1043F00007FF02AA03C2F61D072004E0761E290764
:10440000090F31702D11012D01DB401EF6D5401E24
:10441000CDD4761E3770FAE706A8401C311A06ADD7
:104420006D1CA14200DA0C0024B2200032D4884274
:1044300005DA06A909184978082900DB0F2706A91B
:10444000091801E0641E491E401E0A78BA42F9D0DC
:104450000F2F04D106A909184A78521C4A70002867
:1044600006D506AD641C019800B2001D694688801F
:1044700024B2601E0ED429180A783032D2B23A2AF9
:1044800003DB12AB1B783A3BD2180A70401E491E60
:104490000028F1D51198006B002800D402E1601EBD
:1044A00011990863FEE002A803C80022002300F06F
:1044B00055FB06D202A803C880221206514002AA68
:1044C00003C236B27D4870437D49FEF761FC694600
:1044D00088800720019909B2421A00207949012AEF
:1044E00020DB049202AA30CA00260F000498C007FD
:1044F00007D532003B0020002900FEF75CFD0400D8
:104500000D000498401004903000390032003B0048
:10451000FEF751FD06000F0004980028E6D102A81E
:1045200030C028E054420026674F18E0FF07000023
:10453000FFFF0F800000E03FFE030000E00707D50B
:1045400004A803C832003B00FEF735FD06000F004B
:10455000641004A803C804AA0CCAFEF72CFD04AA20
:1045600003C2002CEAD102A803C832003B00FEF7C8
:1045700083FC02AA03C20098662803D1019800B206
:104580000A3000E006201199096B081804901428DD
:1045900001DB1320049030206946087606AC641CC9
:1045A000049801283ADB02A803C8FEF7EDFC0500D9
:1045B0000834042628000A21FEF7EDFB0F0028002E
:1045C0000A21FEF7E8FB0500641E303727700A2138
:1045D000FEF7E1FB0F0028000A21FEF7DCFB0500D7
:1045E000641E30372770761EE4D1083404980838EA
:1045F00004900128D4DB02A803C8FEF7C5FCFEF72F
:104600002BFC02000B0002A803C8FEF7F9FD0022F4
:104610002E4BFEF7D0FC02AA03C2C4E706A8401C3A
:10462000201A06AD6D1C6A4605E0401E019909B2CC
:10463000491E91806D1C29783029F6D00099662991
:1046400003D1019909B2491C04E0652901D1012176
:1046500000E00021119A126B541824B2A04200DA33
:10466000040024B221001DD4814204DA685C35289C
:1046700001DB392000E030206A1800E0641E521E81
:10468000491E13788342F9D0392802D1685C401C56
:104690006854002906D56D1E641C019800B2401CA8
:1046A00069468880019800B2009023B22A0012A8BF
:1046B0000178119800F00CF813B0F0BD9775000068
:1046C000A0860100000024400000F03F84D79741FD
:1046D000F3B589B015001C0000F019FB0190406A89
:1046E0000078694608720998076B012C01DA0124E9
:1046F000ADA50AA8017820200843109E662801D1A4
:10470000761C18E0672800D09FE036B20321C94329
:104710008E4200DA9DE0BE4200DB9AE0761C0998EA
:1047200038300078000702D4BC4200DA270036B2E5
:10473000BF1B00D500270998C068009009988069C0
:1047400000990918019136B2012E2CDA401C302153
:10475000019A1170012F04DA099938310978090793
:1047600004D56946097A009A1154401C0999886158
:104770007042874200DA7E4236B27042099948623E
:10478000BF19A74200DA3C0024B20998C461220094
:1047900029000098099B9B69C01800F08FF9381B0D
:1047A00009998862E1E0B44220DA220029000198E8
:1047B00000F084F9099989690919099A9161301BF6
:1047C000099A5062012F04DA0998383000780007FE
:1047D00009D56846007A099AD26850540998C06988
:1047E000401C0999C86109988762BEE0320029001F
:1047F000019800F063F9099880698019A41B012FC2
:1048000004DA099938310978090705D56946097A22
:10481000099AD2681154401C0999886124B2A742B0
:1048200000DA3C0024B22200A9190998C068099B4B
:104830009B69C01800F042F909988069001909992C
:104840008861381B099948628FE0612914D1702072
:1048500015E0BC4205DA099938310978090700D416
:1048600027007F1E00D500270AA80078672801D1FD
:10487000652004E0452002E0412902D150200AA928
:10488000087009988169481C099AD26800922A78B0
:10489000009B5A54691C012F07DA099A38321278A2
:1048A000120702D4099988611BE06A46127A009BBC
:1048B0001A54401C099A9061012F12DB641E24B225
:1048C000A74200DA3C0024B22200009B181800F036
:1048D000F5F809988069001909998861381B0999C8
:1048E00048620998C0680999896945180AA800783A
:1048F00028706D1C36B2300003D42B2028706D1C3C
:1049000003E02D2129706D1C4642002405AF08E00C
:104910000A2203A800F016FA04983870039E641C5B
:104920007F1C31B20129F3DA022C08DA0AA80078D8
:1049300020210143652902D1302028706D1C002CF4
:1049400009D1302028706D1C07E0641E05A8005DA9
:10495000303028706D1C012CF7DA0998C06809996D
:1049600089694018281A0999C8610998383000786F
:1049700014210140102914D10998406909998969C5
:1049800040180999496A40180999C9694018099954
:10499000896A40180999496B884202DA081A09990C
:1049A00008620BB0F0BD0000300079B50E001400B5
:1049B0001D00002005E0F06A401CF0620020641C2D
:1049C0006D1E002D08D02178B068009A9047B06025
:1049D0000028F0D10020C04376BD00000122D2079C
:1049E0000118090E7F3910D449421F310FD4001825
:1049F00005D2C0011043C84000D5D0437047C00164
:104A00001043C84005D44042704700207047004220
:104A1000F3D510007047C9B200E0401C02788A420A
:104A200002D0002AF9D100207047010000E0491CA3
:104A30000A78002AFBD1081A7047C9B201E0401C6D
:104A4000521E002A03D003788B42F8D17047002011
:104A50007047124224D0994228D970B500251B42D4
:104A600002D00C00002109E000240126491864410D
:104A7000944200D3A41A7641F8D33100012601E014
:104A8000764109D2001864416D41A41A9D41F7D2C4
:104A9000A4185D41B619F5D3300022002B0070BD7B
:104AA0001B42D8D108B500F05DF908BD01D1904294
:104AB000D3D202000B00002100207047124207D021
:104AC0008B0706D00B78491C0370401C521EF7D888
:104AD0007047830706D00B78491C0370401C521E98
:104AE000F9D1704770B4103A03D378C9103A78C03E
:104AF000FBD2530701D318C918C001D508C908C093
:104B0000D20704D30B880380891C801C002A01D59E
:104B10000B78037070BC704730B401004B68802282
:104B200012061A4001201B031B0B4B600BD10B68B4
:104B3000002B08D10DE00B686400DD0F25434D60AC
:104B40005B000B60401E4C68E302F4D523031B0B93
:104B50004B604B681A434A6030BC704730B4012444
:104B600064054D00EC420BD85D00EC4208D80C0007
:104B70001C4364000443144304D2994200D1904280
:104B800030BC7047FCD08B42FAD18242F8E730B497
:104B9000012464054D00EC420BD85D00EC4208D8BE
:104BA0000C001C4364000443144304D28B4200D124
:104BB000824230BC7047FCD09942FAD19042F8E76B
:104BC00070B504000D0060684000400D3F4EB042DB
:104BD00007D16068000302D12068002816D00220A7
:104BE00070BD002804D12000FFF796FF01286BDA82
:104BF000012D0DDB311A8D420AD36068002802D5E1
:104C00000020334901E00020310503C4012070BDBC
:104C10004142A942616806DA2E4A0A402818000576
:104C20001043606047E08022120611406268120360
:104C3000120B80235B0313436360401E2D1800207A
:104C40002A003532352A02D36160206070BD00220F
:104C50001E23DB439D4204DA20352268636823600B
:104C60006060684211D0521E9241D243D20F20237D
:104C70001B1A25689D402A432568C54066689E40EA
:104C80002E4326606368C3406360606808436060C9
:104C90001148824206D28020000682420ED120783E
:104CA000C0070BD52068401C20602068002805D173
:104CB0006068401C60600020C04370BD606888422E
:104CC000F9D120680028F6D1002070BDFF07000050
:104CD0000000F0FFFFFF0F800100008080B5124848
:104CE00000F041F811A1016041608160C160016183
:104CF000416181610EA242628162C16201634163CE
:104D00000CA282630DA2C2630164416401BD10B5AF
:104D1000054800F028F804002068002801D1FFF7BA
:104D2000DDFF200010BD0000584C002000000000F6
:104D30002E00000066616C7365000000747275657A
:104D4000000000007CB504000E00150030002900B2
:104D5000FEF71EF800904543701B0190684603C89B
:104D600003C476BD7047704700001400FFFF0000C9
:104D70004E9EEE0000000000000000000000000059
:104D80000000000000000000000000000000000023
:104D90000000000000000000000000000000000013
:104DA000000053960000000000000000000000001A
:104DB000000000002003000000000000E8030000E5
:104DC00001000000000000000000000000000000E2
:104DD00000000000000000000000000000000000D3
:104DE00000000000000000000000000000000000C3
:104DF00000000000000000000000000000000000B3
:104E000000000000000000000000000000000000A2
:104E10000000000000000000000000000000000092
:104E20000000000000000000000000000000000082
:104E30000000000000000000000000000000000072
:104E40000000000000000000000000000000000062
:104E50000000000000000000000000000000000052
:104E60000000000000000000000000000000000042
:104E70000000000000000000000000000000000032
:104E80000000000000000000000000000000000022
:104E90000000000000000000000000000000000012
:104EA0000000000000000000000000000000000002
:104EB00000000000000000000000000000000000F2
:104EC00000000000000000000000000000000000E2
:104ED00000000000000000000000000000000000D2
:104EE00000000000000000000000000000000000C2
:104EF00000000000000000000000000000000000B2
:104F000000000000000000000000000000000000A1
:104F10000000000000000000000000000000000091
:104F20000000000000000000000000000000000081
:104F30000000000000000000000000000000000071
:104F40000000000000000000000000000000000061
:104F50000000000000000000000000000000000051
:104F60000000000000000000000000000000000041
:104F70000000000000000000000000000000000031
:104F80000000000000000000000000000000000021
:104F90000000000000000000000000000000000011
:104FA0000000000000000000000000000000000001
:104FB00000000000000000000000000000000000F1
:104FC00000000000000000000000000000000000E1
:104FD0000000000000000010101010101000101051
:104FE0000000000000000024242400000000000055
:104FF0000000000000000024247E2424247E2424B9
:1050000000000000000000107C90907C12127C10C8
:10501000000000000000000062640810204C8C00BA
:105020000000000000000000182420508A844A304C
:105030000000000000000010102000000000000030
:105040000000000000000810202020202020201058
:1050500008000000000020100808080808080810D0
:1050600020000000000000000010543838541000E8
:1050700000000000000000000010107C1010000074
:105080000000000000000000000000000000101000
:1050900020000000000000000000007C0000000074
:1050A00000000000000000000000000000000010F0
:1050B0000000000000000000000204081020400072
:1050C000000000000000003844444C54644444385C
:1050D00000000000000000103010101010101038F8
:1050E0000000000000000038440404081020407C48
:1050F000000000000000007C04081038040404785C
:105100000000000000000008182848487C08080833
:10511000000000000000007C404040780404047857
:10512000000000000000003C404040784444443807
:10513000000000000000007C040408102020202053
:10514000000000000000003844444438444444381F
:1051500000000000000000384444443C04040438CB
:10516000000000000000000000000010000010001F
:1051700000000000000000000000000010001010FF
:1051800020000000000000000004081020100804A7
:1051900000000000000000000000007C007C000017
:1051A000000000000000000000201008040810208B
:1051B00000000000000038444404081010001010E3
:1051C00000000000000000000038445C545C403CDB
:1051D00000000000000018244242427E4242424247
:1051E0000000000000007C4242427C424242427C7D
:1051F0000000000000003C42404040404040423C33
:105200000000000000007C42424242424242427C96
:105210000000000000007E40404078404040407E5A
:105220000000000000007E40404078404040404088
:105230000000000000003C4240405E424242423CCE
:10524000000000000000424242427E42424242428E
:10525000000000000000381010101010101010385E
:105260000000000000001C08080808080808483072
:105270000000000000004244485060605048444232
:105280000000000000004040404040404040407E60
:105290000000000000008282C6C6AAAA9292828202
:1052A00000000000000042626252524A4A464642F2
:1052B0000000000000003C42424242424242423C66
:1052C0000000000000007C424242427C40404040DE
:1052D0000000000000003C424242424242424A3C3E
:1052E0000E00000000007C424242427C5048444292
:1052F0000000000000003C4240403C020202423CF0
:105300000000000000007C10101010101010101091
:105310000000000000004242424242424242423CFF
:1053200000000000000044444444282828101010C5
:1053300000000000000082828282545454282828F1
:1053400000000000000042422418181824244242A1
:1053500000000000000044444444282810101010AD
:105360000000000000007E02020408102040407E81
:1053700000000000000038202020202020202038BD
:10538000000000000000000000004020100804029F
:105390000000000000001C04040404040404041CB5
:1053A0000000000000000000102844000000000081
:1053B00000000000000000000000000000000000ED
:1053C000FF000000000000101008000000000000B6
:1053D00000000000000000000078043C4444443A0F
:1053E0000000000000004040405C62424242625CBB
:1053F0000000000000000000003C42404040423CF1
:105400000000000000000202023A46424242463AD0
:105410000000000000000000003C42427E40423C90
:105420000000000000000E1010103C1010101010B2
:105430000000000000000000003E424242423E02E6
:10544000023C000000004040405C62424242424256
:10545000000000000000000800080808080808080C
:10546000000000000000000400040404040404041C
:1054700044380000000040404042444850684442E4
:10548000000000000000101010101010101010107C
:10549000000000000000000000EC929292929292B4
:1054A0000000000000000000007C424242424242F4
:1054B0000000000000000000003C42424242423C2A
:1054C0000000000000000000005C62424242625C9A
:1054D0004040000000000000003A46424242463A86
:1054E0000202000000000000005C624040404040BA
:1054F0000000000000000000003C42403C02423C32
:105500000000000000000020207820202020221C25
:105510000000000000000000004242424242423EC1
:1055200000000000000000000042424242422418F5
:105530000000000000000000008282829292AA44D3
:1055400000000000000000000042422418244242F3
:1055500000000000000000000042424242423E02C1
:10556000023C000000000000007E02041820407E83
:105570000000000000000810101020402010101043
:105580000800000000101010101010101010101063
:105590001010100000002010101008040810101047
:1055A00020000000000000000000225488000000DD
:1055B00000000000000000000000000000000000EB
:1055C000000000000000A0420000A0421900FF01FE
:1055D0000101000050000000500000000100000028
:1055E000983A000068C5FFFF204E0000E0B1FFFFC1
:1055F000FFFFFFFFFFFF000000B0034052455300D4
:1056000000000000005245530000000000004E4D15
:1056100049000000000000486172644661756C74C6
:1056200052455300000000000052455300000000A6
:105630000000524553000000000000524553000096
:105640000000000052455300000000000052455386
:10565000000000000000524553000000000000530D
:105660005643616C6C00000052455300000000007E
:105670000052455300000000000050656E64535610
:105680000000005379735469636B0000444D41304E
:105690000000000000444D41310000000000444D76
:1056A00041320000000000444D4133000000000082
:1056B000444D4134000000000052455300000000FA
:1056C00000004654464100000000004C56445F4C28
:1056D000565700004C4C5700000000000049324370
:1056E0003000000000004932433100000000005348
:1056F00050493000000000005350493100000000C4
:1057000000554152543000000000554152543100C0
:105710000000005541525432000000004144433023
:105720000000000000434D503000000000005450C5
:105730004D30000000000054504D310000000000CA
:1057400054504D320000000000525443000000004D
:1057500000005254435F53656300005049540000F9
:105760000000000049325330000000000055534251
:1057700030000000000044414330000000000054AD
:1057800053493000000000004D4347000000000076
:10579000004C50544D520000000052455300000090
:1057A0000000005054410000000000005054435FCE
:1057B000505444000000000000F00FF840F00FF8D3
:1057C00080F00FF8C0F00FF800F10FF800000A1D8C
:1057D0003000030040000200420003094400030AB5
:1057E0004800020350000206600001008000021819
:1057F0008800010A9400010DC800011ADC00011F95
:10580000000100000090044000A0044000B00440EB
:1058100000C0044000D004400080034000900340DA
:1058200000A0034000A0064000B0064000C00640B3
:10583000010101000DC1110009030CD01240173FF6
:10584000185019031A783200A00A63E0ACFF650C07
:105850006600670029502C782A007E0C7F16802A6B
:10586000814E8261836F847B8586868E879788A42C
:1058700089AF8AC58BD78CE88D204A004913470829
:105880004B144C17460522992303A6049B009C64E5
:10589000AB069E119F0200003100000002040101CE
:1058A000EC4B00203C4C0020EC4B0020EC4B00204B
:1058B000EC4B002081EFFF1F68EFFF1F000000008E
:1058C00000000000000000000000000000000000D8
:1058D0000000000000000000000000000121C206DE
:1058E000D20E9140614A116070470121C206D20E6A
:1058F00091405F4A1160704770B45E4C40B2102511
:1059000045436419A568802464042C43594D40B272
:1059100010264643AD19AC601C02240A554D40B216
:1059200010264643AD19AC60524C40B21025454399
:105930006151504C40B210254543641962604E4C91
:105940002478802525434C4C25704A4C40B21025C4
:1059500045436419E5688024E4052C43454D40B275
:1059600010264643AD19EC6070BC704780B54348C3
:105970000068434908604248006840490860404860
:10598000006880043AD500203E4908703E480078FF
:10599000042829D13D48007802280AD101203B493A
:1059A000087096239B013A4A3A490020FFF7A4FF6A
:1059B0000DE036480078012809D1022033490870EB
:1059C00096239B01344A33490020FFF795FF2A486C
:1059D000007880210143284801701F20FFF785FFD0
:1059E00003202949087009E0042027490870244849
:1059F0000068224908601F20FFF770FF20480078E8
:105A000000070ED52548007800280AD10120234937
:105A1000087023482349088023480078401C224905
:105A2000087001BD00B519480078012803D1184855
:105A30001E49086006E015480078022802D1164881
:105A40001A4908600C4800784006400E0A49087060
:105A5000174800688021490401431548016001206E
:105A60000949087001200749087000BD00E100E005
:105A700080E100E00081004000100240A0B004403E
:105A8000ECFEFF1F84ECFF1FDAEEFF1FD9EEFF1FB5
:105A900030260020D0F00F4088000020434C00202A
:105AA0001027000014E4FF1F444C0020D84B0020B6
:105AB00008810040FEB50026002568460C2100F054
:105AC00097FA72B6874840680079800600D406E1EC
:105AD000012269460120FDF727FF6946002008568C
:105AE00007007FB23800312800D1ADE0322800D164
:105AF000B2E0332800D1B7E0342800D1BCE06128FF
:105B000000D182E0622860D0642844D069282ED079
:105B10006D2804D0702816D0732813D0B4E07248D2
:105B200000688009012141400800C007C00F6E498C
:105B300009684022914380014022104008436A498D
:105B40000860B6E0B5E000200400E4B2F6B2B4426A
:105B50000CD2301B411EC9B20A20FDF7E1FB63499C
:105B6000E4B2095741436D18641CEEE7A1E0002040
:105B70000400E4B2F6B2B4420CD2301B411EC9B2EA
:105B80000A20FDF7CDFB5949E4B2095741436D188E
:105B9000641CEEE78DE056480078002808D155488F
:105BA0005549886252480078401C514908700BE002
:105BB0004F480078012807D150484F4988624C4827
:105BC0000078401E4A49087073E04D48007800286C
:105BD00008D101204B49087049480078401C4849C9
:105BE000087011E00020484908600020474908601B
:105BF00000204749088000204649086000204649A7
:105C0000086000204549087053E03F480068FEF7EF
:105C1000E5FE434908603D480068FEF7DFFE414964
:105C200008600020384908600020384908600020DA
:105C3000374908800020374908600020364908604D
:105C400000203649087034E02F480168364800F0DB
:105C5000D1F92D4908602CE02B480168334800F049
:105C6000C9F92949086024E0284801682E4800F055
:105C7000C1F9264908601CE0244801682B4800F05F
:105C8000B9F92249086014E07FB2302F11DB7FB2EE
:105C90003A2F0EDA00200400E4B2F6B2B44208D281
:105CA0006846E4B2005D30381049E4B20855641C1F
:105CB000F2E71F48FDF790FC00200400E4B2F6B2C2
:105CC000B44209D20948E4B2015D303149B2012041
:105CD000FDF758FE641CF1E79AA0FDF77DFC62B663
:105CE000F7BD0000CCEEFF1F80F00FF8F0FEFF1FA5
:105CF000494C00200000F041200000200000F0C1CD
:105D0000484C002079ECFF1F6CECFF1F70ECFF1F6C
:105D10003E4C0020640000206800002078ECFF1F4B
:105D20007CECFF1F80ECFF1F0000C8420000C8C2CF
:105D30005C8D000080B584480068401C8249086082
:105D400082480078401C814908707C480078401CDB
:105D50007A49087078480078012808D17C48007892
:105D6000012804D176480068401C754908607948CC
:105D70000078012804D178480068401C7649086002
:105D800073480078012812D1744800687449884229
:105D90000DD272480068401C704908606F48006866
:105DA000FA218900884202D100206E4908706748B4
:105DB0000078052802DB0020644908705F480078FD
:105DC000142802DB00205D4908706748007801282C
:105DD0001DD166480088002814D10020644908704D
:105DE00000206349C86200206249087000206049B1
:105DF0004863002060490870002060490870002056
:105E00005949087059480088401E584908805C4824
:105E1000007801280ED15648408F002805D1012076
:105E2000554908700020564908705148408F401E5F
:105E30004F494887534800F097F94748006852494E
:105E4000884205D30120424908700020414908706A
:105E50004E480078102804DA4C480078401E4B4920
:105E600008704A480078002829D149480068010094
:105E70000902C90F002922D04548006801004902E3
:105E8000C90F00291BD043480078C00717D403204E
